{
  "_format": "hh-sol-artifact-1",
  "contractName": "CollectionFactory",
  "sourceName": "contracts/CollectionFactory.sol",
  "abi": [
    {
      "inputs": [],
      "name": "AccessControlBadConfirmation",
      "type": "error"
    },
    {
      "inputs": [
        {
          "internalType": "address",
          "name": "account",
          "type": "address"
        },
        {
          "internalType": "bytes32",
          "name": "neededRole",
          "type": "bytes32"
        }
      ],
      "name": "AccessControlUnauthorizedAccount",
      "type": "error"
    },
    {
      "inputs": [
        {
          "internalType": "address",
          "name": "target",
          "type": "address"
        }
      ],
      "name": "AddressEmptyCode",
      "type": "error"
    },
    {
      "inputs": [
        {
          "internalType": "address",
          "name": "implementation",
          "type": "address"
        }
      ],
      "name": "ERC1967InvalidImplementation",
      "type": "error"
    },
    {
      "inputs": [],
      "name": "ERC1967NonPayable",
      "type": "error"
    },
    {
      "inputs": [],
      "name": "FailedCall",
      "type": "error"
    },
    {
      "inputs": [],
      "name": "InvalidInitialization",
      "type": "error"
    },
    {
      "inputs": [],
      "name": "NotInitializing",
      "type": "error"
    },
    {
      "inputs": [],
      "name": "ReentrancyGuardReentrantCall",
      "type": "error"
    },
    {
      "inputs": [],
      "name": "UUPSUnauthorizedCallContext",
      "type": "error"
    },
    {
      "inputs": [
        {
          "internalType": "bytes32",
          "name": "slot",
          "type": "bytes32"
        }
      ],
      "name": "UUPSUnsupportedProxiableUUID",
      "type": "error"
    },
    {
      "anonymous": false,
      "inputs": [
        {
          "indexed": true,
          "internalType": "address",
          "name": "collection",
          "type": "address"
        },
        {
          "indexed": false,
          "internalType": "string",
          "name": "baseTokenURI",
          "type": "string"
        }
      ],
      "name": "CollectionBaseURIUpdated",
      "type": "event"
    },
    {
      "anonymous": false,
      "inputs": [
        {
          "indexed": true,
          "internalType": "address",
          "name": "collection",
          "type": "address"
        },
        {
          "indexed": false,
          "internalType": "string",
          "name": "contractURI",
          "type": "string"
        }
      ],
      "name": "CollectionContractURIUpdated",
      "type": "event"
    },
    {
      "anonymous": false,
      "inputs": [
        {
          "indexed": true,
          "internalType": "address",
          "name": "collection",
          "type": "address"
        },
        {
          "indexed": true,
          "internalType": "address",
          "name": "creator",
          "type": "address"
        },
        {
          "indexed": true,
          "internalType": "uint256",
          "name": "gameId",
          "type": "uint256"
        },
        {
          "indexed": false,
          "internalType": "string",
          "name": "name",
          "type": "string"
        },
        {
          "indexed": false,
          "internalType": "string",
          "name": "symbol",
          "type": "string"
        },
        {
          "indexed": false,
          "internalType": "uint256",
          "name": "maxSupply",
          "type": "uint256"
        }
      ],
      "name": "CollectionDeployed",
      "type": "event"
    },
    {
      "anonymous": false,
      "inputs": [
        {
          "indexed": false,
          "internalType": "uint256",
          "name": "newFee",
          "type": "uint256"
        }
      ],
      "name": "DeploymentFeeUpdated",
      "type": "event"
    },
    {
      "anonymous": false,
      "inputs": [
        {
          "indexed": false,
          "internalType": "address",
          "name": "newRecipient",
          "type": "address"
        }
      ],
      "name": "FeeRecipientUpdated",
      "type": "event"
    },
    {
      "anonymous": false,
      "inputs": [
        {
          "indexed": false,
          "internalType": "uint64",
          "name": "version",
          "type": "uint64"
        }
      ],
      "name": "Initialized",
      "type": "event"
    },
    {
      "anonymous": false,
      "inputs": [
        {
          "indexed": true,
          "internalType": "bytes32",
          "name": "role",
          "type": "bytes32"
        },
        {
          "indexed": true,
          "internalType": "bytes32",
          "name": "previousAdminRole",
          "type": "bytes32"
        },
        {
          "indexed": true,
          "internalType": "bytes32",
          "name": "newAdminRole",
          "type": "bytes32"
        }
      ],
      "name": "RoleAdminChanged",
      "type": "event"
    },
    {
      "anonymous": false,
      "inputs": [
        {
          "indexed": true,
          "internalType": "bytes32",
          "name": "role",
          "type": "bytes32"
        },
        {
          "indexed": true,
          "internalType": "address",
          "name": "account",
          "type": "address"
        },
        {
          "indexed": true,
          "internalType": "address",
          "name": "sender",
          "type": "address"
        }
      ],
      "name": "RoleGranted",
      "type": "event"
    },
    {
      "anonymous": false,
      "inputs": [
        {
          "indexed": true,
          "internalType": "bytes32",
          "name": "role",
          "type": "bytes32"
        },
        {
          "indexed": true,
          "internalType": "address",
          "name": "account",
          "type": "address"
        },
        {
          "indexed": true,
          "internalType": "address",
          "name": "sender",
          "type": "address"
        }
      ],
      "name": "RoleRevoked",
      "type": "event"
    },
    {
      "anonymous": false,
      "inputs": [
        {
          "indexed": true,
          "internalType": "address",
          "name": "implementation",
          "type": "address"
        }
      ],
      "name": "Upgraded",
      "type": "event"
    },
    {
      "inputs": [],
      "name": "ADMIN_ROLE",
      "outputs": [
        {
          "internalType": "bytes32",
          "name": "",
          "type": "bytes32"
        }
      ],
      "stateMutability": "view",
      "type": "function"
    },
    {
      "inputs": [],
      "name": "DEFAULT_ADMIN_ROLE",
      "outputs": [
        {
          "internalType": "bytes32",
          "name": "",
          "type": "bytes32"
        }
      ],
      "stateMutability": "view",
      "type": "function"
    },
    {
      "inputs": [],
      "name": "UPGRADE_INTERFACE_VERSION",
      "outputs": [
        {
          "internalType": "string",
          "name": "",
          "type": "string"
        }
      ],
      "stateMutability": "view",
      "type": "function"
    },
    {
      "inputs": [
        {
          "internalType": "address",
          "name": "account",
          "type": "address"
        }
      ],
      "name": "addAdmin",
      "outputs": [],
      "stateMutability": "nonpayable",
      "type": "function"
    },
    {
      "inputs": [
        {
          "internalType": "uint256",
          "name": "",
          "type": "uint256"
        }
      ],
      "name": "allCollections",
      "outputs": [
        {
          "internalType": "address",
          "name": "",
          "type": "address"
        }
      ],
      "stateMutability": "view",
      "type": "function"
    },
    {
      "inputs": [
        {
          "internalType": "address",
          "name": "",
          "type": "address"
        }
      ],
      "name": "collectionBaseURI",
      "outputs": [
        {
          "internalType": "string",
          "name": "",
          "type": "string"
        }
      ],
      "stateMutability": "view",
      "type": "function"
    },
    {
      "inputs": [
        {
          "internalType": "address",
          "name": "",
          "type": "address"
        }
      ],
      "name": "collectionContractURI",
      "outputs": [
        {
          "internalType": "string",
          "name": "",
          "type": "string"
        }
      ],
      "stateMutability": "view",
      "type": "function"
    },
    {
      "inputs": [
        {
          "internalType": "uint256",
          "name": "gameId",
          "type": "uint256"
        },
        {
          "internalType": "string",
          "name": "name",
          "type": "string"
        },
        {
          "internalType": "string",
          "name": "symbol",
          "type": "string"
        },
        {
          "internalType": "string",
          "name": "description",
          "type": "string"
        },
        {
          "internalType": "string",
          "name": "baseTokenURI",
          "type": "string"
        },
        {
          "internalType": "string",
          "name": "contractURI",
          "type": "string"
        },
        {
          "internalType": "uint256",
          "name": "maxSupply",
          "type": "uint256"
        },
        {
          "internalType": "address",
          "name": "royaltyRecipient",
          "type": "address"
        },
        {
          "internalType": "uint96",
          "name": "royaltyBps",
          "type": "uint96"
        }
      ],
      "name": "deployCollection",
      "outputs": [
        {
          "internalType": "address",
          "name": "",
          "type": "address"
        }
      ],
      "stateMutability": "payable",
      "type": "function"
    },
    {
      "inputs": [],
      "name": "deploymentFee",
      "outputs": [
        {
          "internalType": "uint256",
          "name": "",
          "type": "uint256"
        }
      ],
      "stateMutability": "view",
      "type": "function"
    },
    {
      "inputs": [],
      "name": "feeRecipient",
      "outputs": [
        {
          "internalType": "address",
          "name": "",
          "type": "address"
        }
      ],
      "stateMutability": "view",
      "type": "function"
    },
    {
      "inputs": [
        {
          "internalType": "uint256",
          "name": "",
          "type": "uint256"
        },
        {
          "internalType": "uint256",
          "name": "",
          "type": "uint256"
        }
      ],
      "name": "gameCollections",
      "outputs": [
        {
          "internalType": "address",
          "name": "",
          "type": "address"
        }
      ],
      "stateMutability": "view",
      "type": "function"
    },
    {
      "inputs": [
        {
          "internalType": "uint256",
          "name": "gameId",
          "type": "uint256"
        }
      ],
      "name": "getGameCollections",
      "outputs": [
        {
          "internalType": "address[]",
          "name": "",
          "type": "address[]"
        }
      ],
      "stateMutability": "view",
      "type": "function"
    },
    {
      "inputs": [
        {
          "internalType": "bytes32",
          "name": "role",
          "type": "bytes32"
        }
      ],
      "name": "getRoleAdmin",
      "outputs": [
        {
          "internalType": "bytes32",
          "name": "",
          "type": "bytes32"
        }
      ],
      "stateMutability": "view",
      "type": "function"
    },
    {
      "inputs": [],
      "name": "getTotalCollections",
      "outputs": [
        {
          "internalType": "uint256",
          "name": "",
          "type": "uint256"
        }
      ],
      "stateMutability": "view",
      "type": "function"
    },
    {
      "inputs": [
        {
          "internalType": "address",
          "name": "user",
          "type": "address"
        }
      ],
      "name": "getUserCollections",
      "outputs": [
        {
          "internalType": "address[]",
          "name": "",
          "type": "address[]"
        }
      ],
      "stateMutability": "view",
      "type": "function"
    },
    {
      "inputs": [
        {
          "internalType": "bytes32",
          "name": "role",
          "type": "bytes32"
        },
        {
          "internalType": "address",
          "name": "account",
          "type": "address"
        }
      ],
      "name": "grantRole",
      "outputs": [],
      "stateMutability": "nonpayable",
      "type": "function"
    },
    {
      "inputs": [
        {
          "internalType": "bytes32",
          "name": "role",
          "type": "bytes32"
        },
        {
          "internalType": "address",
          "name": "account",
          "type": "address"
        }
      ],
      "name": "hasRole",
      "outputs": [
        {
          "internalType": "bool",
          "name": "",
          "type": "bool"
        }
      ],
      "stateMutability": "view",
      "type": "function"
    },
    {
      "inputs": [
        {
          "internalType": "uint256",
          "name": "_deploymentFee",
          "type": "uint256"
        },
        {
          "internalType": "address",
          "name": "_feeRecipient",
          "type": "address"
        }
      ],
      "name": "initialize",
      "outputs": [],
      "stateMutability": "nonpayable",
      "type": "function"
    },
    {
      "inputs": [
        {
          "internalType": "address",
          "name": "",
          "type": "address"
        }
      ],
      "name": "isDeployedCollection",
      "outputs": [
        {
          "internalType": "bool",
          "name": "",
          "type": "bool"
        }
      ],
      "stateMutability": "view",
      "type": "function"
    },
    {
      "inputs": [],
      "name": "proxiableUUID",
      "outputs": [
        {
          "internalType": "bytes32",
          "name": "",
          "type": "bytes32"
        }
      ],
      "stateMutability": "view",
      "type": "function"
    },
    {
      "inputs": [
        {
          "internalType": "address",
          "name": "account",
          "type": "address"
        }
      ],
      "name": "removeAdmin",
      "outputs": [],
      "stateMutability": "nonpayable",
      "type": "function"
    },
    {
      "inputs": [
        {
          "internalType": "bytes32",
          "name": "role",
          "type": "bytes32"
        },
        {
          "internalType": "address",
          "name": "callerConfirmation",
          "type": "address"
        }
      ],
      "name": "renounceRole",
      "outputs": [],
      "stateMutability": "nonpayable",
      "type": "function"
    },
    {
      "inputs": [
        {
          "internalType": "bytes32",
          "name": "role",
          "type": "bytes32"
        },
        {
          "internalType": "address",
          "name": "account",
          "type": "address"
        }
      ],
      "name": "revokeRole",
      "outputs": [],
      "stateMutability": "nonpayable",
      "type": "function"
    },
    {
      "inputs": [
        {
          "internalType": "address",
          "name": "collection",
          "type": "address"
        },
        {
          "internalType": "string",
          "name": "baseURI",
          "type": "string"
        }
      ],
      "name": "setCollectionBaseURI",
      "outputs": [],
      "stateMutability": "nonpayable",
      "type": "function"
    },
    {
      "inputs": [
        {
          "internalType": "address",
          "name": "collection",
          "type": "address"
        },
        {
          "internalType": "string",
          "name": "uri",
          "type": "string"
        }
      ],
      "name": "setCollectionContractURI",
      "outputs": [],
      "stateMutability": "nonpayable",
      "type": "function"
    },
    {
      "inputs": [
        {
          "internalType": "bytes4",
          "name": "interfaceId",
          "type": "bytes4"
        }
      ],
      "name": "supportsInterface",
      "outputs": [
        {
          "internalType": "bool",
          "name": "",
          "type": "bool"
        }
      ],
      "stateMutability": "view",
      "type": "function"
    },
    {
      "inputs": [
        {
          "internalType": "uint256",
          "name": "_newFee",
          "type": "uint256"
        }
      ],
      "name": "updateDeploymentFee",
      "outputs": [],
      "stateMutability": "nonpayable",
      "type": "function"
    },
    {
      "inputs": [
        {
          "internalType": "address",
          "name": "_newRecipient",
          "type": "address"
        }
      ],
      "name": "updateFeeRecipient",
      "outputs": [],
      "stateMutability": "nonpayable",
      "type": "function"
    },
    {
      "inputs": [
        {
          "internalType": "address",
          "name": "newImplementation",
          "type": "address"
        },
        {
          "internalType": "bytes",
          "name": "data",
          "type": "bytes"
        }
      ],
      "name": "upgradeToAndCall",
      "outputs": [],
      "stateMutability": "payable",
      "type": "function"
    },
    {
      "inputs": [
        {
          "internalType": "address",
          "name": "",
          "type": "address"
        },
        {
          "internalType": "uint256",
          "name": "",
          "type": "uint256"
        }
      ],
      "name": "userCollections",
      "outputs": [
        {
          "internalType": "address",
          "name": "",
          "type": "address"
        }
      ],
      "stateMutability": "view",
      "type": "function"
    },
    {
      "inputs": [
        {
          "internalType": "address",
          "name": "collection",
          "type": "address"
        }
      ],
      "name": "verifyCollection",
      "outputs": [
        {
          "internalType": "bool",
          "name": "",
          "type": "bool"
        }
      ],
      "stateMutability": "view",
      "type": "function"
    },
    {
      "inputs": [],
      "name": "withdrawFees",
      "outputs": [],
      "stateMutability": "nonpayable",
      "type": "function"
    }
  ],
  "bytecode": "0x60a06040523060805234801561001457600080fd5b506080516156b161003e600039600081816118b7015281816118e10152611a4401526156b16000f3fe6080604052600436106200020b5760003560e01c80634f1ef28611620001175780639aa5ad8c11620000a1578063da35a26f116200006c578063da35a26f1462000659578063e286b426146200067e578063f160d36914620006a3578063f2cff57f14620006c857600080fd5b80639aa5ad8c14620005c5578063a217fddf14620005ea578063ad3cb1cc1462000601578063d547741f146200063457600080fd5b806380aed2a911620000e257806380aed2a914620005305780638d67ea38146200055557806391d148541462000589578063939bf6dd14620005ae57600080fd5b80634f1ef28614620004b757806352d1902d14620004ce5780637048027514620004e657806375b238fc146200050b57600080fd5b806327ad0a7a1162000199578063428a61711162000164578063428a61711462000433578063469048401462000458578063476343ee146200047a578063499200db146200049257600080fd5b806327ad0a7a14620003875780632f2ff15d14620003ac57806336568abe14620003d15780633908cc9314620003f657600080fd5b8063167ef49511620001da578063167ef49514620002e25780631785f53c146200030757806319ab7fd0146200032e578063248a9ca3146200035357600080fd5b806301ffc9a71462000210578063089acd28146200024a5780630fd42be6146200027e57806311a393eb14620002b2575b600080fd5b3480156200021d57600080fd5b50620002356200022f36600462001d55565b620006e0565b60405190151581526020015b60405180910390f35b3480156200025757600080fd5b506200026f6200026936600462001d9e565b62000718565b60405162000241919062001e10565b3480156200028b57600080fd5b50620002356200029d36600462001d9e565b60026020526000908152604090205460ff1681565b620002c9620002c336600462001ef8565b620007ba565b6040516001600160a01b03909116815260200162000241565b348015620002ef57600080fd5b50620002c96200030136600462002013565b62000c3f565b3480156200031457600080fd5b506200032c6200032636600462001d9e565b62000c6a565b005b3480156200033b57600080fd5b50620002c96200034d3660046200202d565b62000c96565b3480156200036057600080fd5b50620003786200037236600462002013565b62000ccf565b60405190815260200162000241565b3480156200039457600080fd5b506200026f620003a636600462001d9e565b62000cf2565b348015620003b957600080fd5b506200032c620003cb36600462002050565b62000d0d565b348015620003de57600080fd5b506200032c620003f036600462002050565b62000d35565b3480156200040357600080fd5b50620002356200041536600462001d9e565b6001600160a01b031660009081526002602052604090205460ff1690565b3480156200044057600080fd5b50620002c9620004523660046200207f565b62000d70565b3480156200046557600080fd5b50600154620002c9906001600160a01b031681565b3480156200048757600080fd5b506200032c62000d8d565b3480156200049f57600080fd5b506200032c620004b136600462002013565b62000e29565b6200032c620004c8366004620020ac565b62000e81565b348015620004db57600080fd5b506200037862000ea2565b348015620004f357600080fd5b506200032c6200050536600462001d9e565b62000ec2565b3480156200051857600080fd5b50620003786000805160206200565c83398151915281565b3480156200053d57600080fd5b506200032c6200054f36600462002115565b62000eea565b3480156200056257600080fd5b506200057a6200057436600462002013565b6200114d565b6040516200024191906200219f565b3480156200059657600080fd5b5062000235620005a836600462002050565b620011bb565b348015620005bb57600080fd5b5060075462000378565b348015620005d257600080fd5b506200057a620005e436600462001d9e565b620011f4565b348015620005f757600080fd5b5062000378600081565b3480156200060e57600080fd5b506200026f604051806040016040528060058152602001640352e302e360dc1b81525081565b3480156200064157600080fd5b506200032c6200065336600462002050565b6200126a565b3480156200066657600080fd5b506200032c6200067836600462002050565b6200128c565b3480156200068b57600080fd5b506200032c6200069d36600462002115565b620013ef565b348015620006b057600080fd5b506200032c620006c236600462001d9e565b62001645565b348015620006d557600080fd5b506200037860005481565b60006001600160e01b03198216637965db0b60e01b14806200071257506301ffc9a760e01b6001600160e01b03198316145b92915050565b600660205260009081526040902080546200073390620021ee565b80601f01602080910402602001604051908101604052809291908181526020018280546200076190620021ee565b8015620007b25780601f106200078657610100808354040283529160200191620007b2565b820191906000526020600020905b8154815290600101906020018083116200079457829003601f168201915b505050505081565b6000620007c6620016ff565b6000805160206200565c833981519152620007e1816200174a565b600054341015620008395760405162461bcd60e51b815260206004820152601b60248201527f496e73756666696369656e74206465706c6f796d656e7420666565000000000060448201526064015b60405180910390fd5b60008a5111620008835760405162461bcd60e51b81526020600482015260146024820152734e616d652063616e6e6f7420626520656d70747960601b604482015260640162000830565b6000895111620008cf5760405162461bcd60e51b815260206004820152601660248201527553796d626f6c2063616e6e6f7420626520656d70747960501b604482015260640162000830565b600085116200092b5760405162461bcd60e51b815260206004820152602160248201527f4d617820737570706c79206d7573742062652067726561746572207468616e206044820152600360fc1b606482015260840162000830565b60008a8a8a8a8a8a338b8b604051620009449062001d47565b62000958999897969594939291906200222a565b604051809103906000f08015801562000975573d6000803e3d6000fd5b506001600160a01b038116600090815260056020526040902090915081906200099f8a826200232f565b506001600160a01b0381166000908152600660205260409020620009c489826200232f565b50600160026000836001600160a01b03166001600160a01b0316815260200190815260200160002060006101000a81548160ff02191690831515021790555060036000336001600160a01b03166001600160a01b03168152602001908152602001600020819080600181540180825580915050600190039060005260206000200160009091909190916101000a8154816001600160a01b0302191690836001600160a01b031602179055506007819080600181540180825580915050600190039060005260206000200160009091909190916101000a8154816001600160a01b0302191690836001600160a01b03160217905550600460008e8152602001908152602001600020819080600181540180825580915050600190039060005260206000200160009091909190916101000a8154816001600160a01b0302191690836001600160a01b0316021790555060003411801562000b2d57506001546001600160a01b031615155b1562000b6f576001546040516001600160a01b03909116903480156108fc02916000818181858888f1935050505015801562000b6d573d6000803e3d6000fd5b505b8c336001600160a01b0316826001600160a01b03167f19b61d06233511e84fb256672643caa07ca0ca823d641bd096a23a73acb87e188f8f8c60405162000bb993929190620023fc565b60405180910390a4806001600160a01b03167fdb9aa3775854bf02180044fbe17998bc5995c29ea5f456cea022264d2f3fd3c78960405162000bfc919062001e10565b60405180910390a29250505062000c3260017f9b779b17422d0df92223018b32b4d1fa46e071723d6817e2486d003becc55f0055565b9998505050505050505050565b6007818154811062000c5057600080fd5b6000918252602090912001546001600160a01b0316905081565b600062000c77816200174a565b62000c926000805160206200565c833981519152836200126a565b5050565b6004602052816000526040600020818154811062000cb357600080fd5b6000918252602090912001546001600160a01b03169150829050565b60009081526000805160206200563c833981519152602052604090206001015490565b600560205260009081526040902080546200073390620021ee565b62000d188262000ccf565b62000d23816200174a565b62000d2f83836200177f565b50505050565b6001600160a01b038116331462000d5f5760405163334bd91960e11b815260040160405180910390fd5b62000d6b82826200182b565b505050565b6003602052816000526040600020818154811062000cb357600080fd5b6000805160206200565c83398151915262000da8816200174a565b478062000dee5760405162461bcd60e51b81526020600482015260136024820152724e6f206665657320746f20776974686472617760681b604482015260640162000830565b6001546040516001600160a01b039091169082156108fc029083906000818181858888f1935050505015801562000d6b573d6000803e3d6000fd5b6000805160206200565c83398151915262000e44816200174a565b60008290556040518281527f40bd824d588484917db8fa4fc894c1e0feae5a75885290ba7b97521cebf82a80906020015b60405180910390a15050565b62000e8b620018ac565b62000e968262001957565b62000c92828262001972565b600062000eae62001a39565b506000805160206200561c83398151915290565b600062000ecf816200174a565b62000c926000805160206200565c8339815191528362000d0d565b6001600160a01b03831660009081526002602052604090205460ff1662000f495760405162461bcd60e51b81526020600482015260126024820152712ab735b737bbb71031b7b63632b1ba34b7b760711b604482015260640162000830565b62000f56600033620011bb565b806200103a5750826001600160a01b03166391d14854846001600160a01b03166375b238fc6040518163ffffffff1660e01b8152600401602060405180830381865afa15801562000fab573d6000803e3d6000fd5b505050506040513d601f19601f8201168201806040525081019062000fd1919062002436565b6040516001600160e01b031960e084901b1681526004810191909152336024820152604401602060405180830381865afa15801562001014573d6000803e3d6000fd5b505050506040513d601f19601f820116820180604052508101906200103a919062002450565b620010795760405162461bcd60e51b815260206004820152600e60248201526d139bdd08185d5d1a1bdc9a5e995960921b604482015260640162000830565b6001600160a01b03831660009081526005602052604090206200109e82848362002474565b506040516330176e1360e01b81526001600160a01b038416906330176e1390620010cf908590859060040162002542565b600060405180830381600087803b158015620010ea57600080fd5b505af1158015620010ff573d6000803e3d6000fd5b50505050826001600160a01b03167f65936d1dee571c89e7bc171ad8e94e288d930f863c2a4a92a0593baef6573ee983836040516200114092919062002542565b60405180910390a2505050565b600081815260046020908152604091829020805483518184028101840190945280845260609392830182828015620011af57602002820191906000526020600020905b81546001600160a01b0316815260019091019060200180831162001190575b50505050509050919050565b60009182526000805160206200563c833981519152602090815260408084206001600160a01b0393909316845291905290205460ff1690565b6001600160a01b038116600090815260036020908152604091829020805483518184028101840190945280845260609392830182828015620011af576020028201919060005260206000209081546001600160a01b03168152600190910190602001808311620011905750505050509050919050565b620012758262000ccf565b62001280816200174a565b62000d2f83836200182b565b60006200129862001a83565b805490915060ff600160401b820416159067ffffffffffffffff16600081158015620012c15750825b905060008267ffffffffffffffff166001148015620012df5750303b155b905081158015620012ee575080155b156200130d5760405163f92ee8a960e01b815260040160405180910390fd5b845467ffffffffffffffff1916600117855583156200133857845460ff60401b1916600160401b1785555b6200134262001aad565b6200134c62001ab7565b6200135662001aad565b6000878155600180546001600160a01b0319166001600160a01b0389161790556200138290336200177f565b506200139e6000805160206200565c833981519152336200177f565b508315620013e657845460ff60401b19168555604051600181527fc7f505b2f371ae2175ee4913f4499e1f2633a7b5936321eed1cdaeb6115181d29060200160405180910390a15b50505050505050565b6001600160a01b03831660009081526002602052604090205460ff166200144e5760405162461bcd60e51b81526020600482015260126024820152712ab735b737bbb71031b7b63632b1ba34b7b760711b604482015260640162000830565b6200145b600033620011bb565b806200153f5750826001600160a01b03166391d14854846001600160a01b03166375b238fc6040518163ffffffff1660e01b8152600401602060405180830381865afa158015620014b0573d6000803e3d6000fd5b505050506040513d601f19601f82011682018060405250810190620014d6919062002436565b6040516001600160e01b031960e084901b1681526004810191909152336024820152604401602060405180830381865afa15801562001519573d6000803e3d6000fd5b505050506040513d601f19601f820116820180604052508101906200153f919062002450565b6200157e5760405162461bcd60e51b815260206004820152600e60248201526d139bdd08185d5d1a1bdc9a5e995960921b604482015260640162000830565b6001600160a01b0383166000908152600660205260409020620015a382848362002474565b5060405163938e3d7b60e01b81526001600160a01b0384169063938e3d7b90620015d4908590859060040162002542565b600060405180830381600087803b158015620015ef57600080fd5b505af115801562001604573d6000803e3d6000fd5b50505050826001600160a01b03167fdb9aa3775854bf02180044fbe17998bc5995c29ea5f456cea022264d2f3fd3c783836040516200114092919062002542565b6000805160206200565c83398151915262001660816200174a565b6001600160a01b038216620016b05760405162461bcd60e51b8152602060048201526015602482015274125b9d985b1a5908199959481c9958da5c1a595b9d605a1b604482015260640162000830565b600180546001600160a01b0319166001600160a01b0384169081179091556040519081527f7a7b5a0a132f9e0581eb8527f66eae9ee89c2a3e79d4ac7e41a1f1f4d48a7fc29060200162000e75565b7f9b779b17422d0df92223018b32b4d1fa46e071723d6817e2486d003becc55f008054600119016200174457604051633ee5aeb560e01b815260040160405180910390fd5b60029055565b62001756813362001acb565b50565b60017f9b779b17422d0df92223018b32b4d1fa46e071723d6817e2486d003becc55f0055565b60006000805160206200563c8339815191526200179d8484620011bb565b62001820576000848152602082815260408083206001600160a01b03871684529091529020805460ff19166001179055620017d53390565b6001600160a01b0316836001600160a01b0316857f2f8788117e7eff1d82e926ec794901d17c78024a50270940304540a733656f0d60405160405180910390a4600191505062000712565b600091505062000712565b60006000805160206200563c833981519152620018498484620011bb565b1562001820576000848152602082815260408083206001600160a01b0387168085529252808320805460ff1916905551339287917ff6391f5c32d9c69d2a47ea670b442974b53935d1edc7fd64eb21e047a839171b9190a4600191505062000712565b306001600160a01b037f00000000000000000000000000000000000000000000000000000000000000001614806200193657507f00000000000000000000000000000000000000000000000000000000000000006001600160a01b03166200192a6000805160206200561c833981519152546001600160a01b031690565b6001600160a01b031614155b15620019555760405163703e46dd60e11b815260040160405180910390fd5b565b6000805160206200565c83398151915262000c92816200174a565b816001600160a01b03166352d1902d6040518163ffffffff1660e01b8152600401602060405180830381865afa925050508015620019cf575060408051601f3d908101601f19168201909252620019cc9181019062002436565b60015b620019f957604051634c9c8ce360e01b81526001600160a01b038316600482015260240162000830565b6000805160206200561c833981519152811462001a2d57604051632a87526960e21b81526004810182905260240162000830565b62000d6b838362001b08565b306001600160a01b037f00000000000000000000000000000000000000000000000000000000000000001614620019555760405163703e46dd60e11b815260040160405180910390fd5b6000807ff0c57e16840df040f15088dc2f81fe391c3923bec73e23a9662efc9c229c6a0062000712565b6200195562001b65565b62001ac162001b65565b6200195562001b8d565b62001ad78282620011bb565b62000c925760405163e2517d3f60e01b81526001600160a01b03821660048201526024810183905260440162000830565b62001b138262001b97565b6040516001600160a01b038316907fbc7cd75a20ee27fd9adebab32041f755214dbc6bffa90cc0225b39da2e5c2d3b90600090a280511562001b5b5762000d6b828262001bff565b62000c9262001c7b565b62001b6f62001c9b565b6200195557604051631afcd79f60e31b815260040160405180910390fd5b6200175962001b65565b806001600160a01b03163b60000362001bcf57604051634c9c8ce360e01b81526001600160a01b038216600482015260240162000830565b6000805160206200561c83398151915280546001600160a01b0319166001600160a01b0392909216919091179055565b6060600080846001600160a01b03168460405162001c1e919062002571565b600060405180830381855af49150503d806000811462001c5b576040519150601f19603f3d011682016040523d82523d6000602084013e62001c60565b606091505b509150915062001c7285838362001cb7565b95945050505050565b3415620019555760405163b398979f60e01b815260040160405180910390fd5b600062001ca762001a83565b54600160401b900460ff16919050565b60608262001cd05762001cca8262001d1d565b62001d16565b815115801562001ce857506001600160a01b0384163b155b1562001d1357604051639996b31560e01b81526001600160a01b038516600482015260240162000830565b50805b9392505050565b80511562001d2e5780518082602001fd5b60405163d6bda27560e01b815260040160405180910390fd5b61308c806200259083390190565b60006020828403121562001d6857600080fd5b81356001600160e01b03198116811462001d1657600080fd5b80356001600160a01b038116811462001d9957600080fd5b919050565b60006020828403121562001db157600080fd5b62001d168262001d81565b60005b8381101562001dd957818101518382015260200162001dbf565b50506000910152565b6000815180845262001dfc81602086016020860162001dbc565b601f01601f19169290920160200192915050565b60208152600062001d16602083018462001de2565b634e487b7160e01b600052604160045260246000fd5b600067ffffffffffffffff8084111562001e595762001e5962001e25565b604051601f8501601f19908116603f0116810190828211818310171562001e845762001e8462001e25565b8160405280935085815286868601111562001e9e57600080fd5b858560208301376000602087830101525050509392505050565b600082601f83011262001eca57600080fd5b62001d168383356020850162001e3b565b80356bffffffffffffffffffffffff8116811462001d9957600080fd5b60008060008060008060008060006101208a8c03121562001f1857600080fd5b8935985060208a013567ffffffffffffffff8082111562001f3857600080fd5b62001f468d838e0162001eb8565b995060408c013591508082111562001f5d57600080fd5b62001f6b8d838e0162001eb8565b985060608c013591508082111562001f8257600080fd5b62001f908d838e0162001eb8565b975060808c013591508082111562001fa757600080fd5b62001fb58d838e0162001eb8565b965060a08c013591508082111562001fcc57600080fd5b5062001fdb8c828d0162001eb8565b94505060c08a0135925062001ff360e08b0162001d81565b9150620020046101008b0162001edb565b90509295985092959850929598565b6000602082840312156200202657600080fd5b5035919050565b600080604083850312156200204157600080fd5b50508035926020909101359150565b600080604083850312156200206457600080fd5b82359150620020766020840162001d81565b90509250929050565b600080604083850312156200209357600080fd5b6200209e8362001d81565b946020939093013593505050565b60008060408385031215620020c057600080fd5b620020cb8362001d81565b9150602083013567ffffffffffffffff811115620020e857600080fd5b8301601f81018513620020fa57600080fd5b6200210b8582356020840162001e3b565b9150509250929050565b6000806000604084860312156200212b57600080fd5b620021368462001d81565b9250602084013567ffffffffffffffff808211156200215457600080fd5b818601915086601f8301126200216957600080fd5b8135818111156200217957600080fd5b8760208285010111156200218c57600080fd5b6020830194508093505050509250925092565b6020808252825182820181905260009190848201906040850190845b81811015620021e25783516001600160a01b031683529284019291840191600101620021bb565b50909695505050505050565b600181811c908216806200220357607f821691505b6020821081036200222457634e487b7160e01b600052602260045260246000fd5b50919050565b6000610120808352620022408184018d62001de2565b9050828103602084015262002256818c62001de2565b905082810360408401526200226c818b62001de2565b9050828103606084015262002282818a62001de2565b9050828103608084015262002298818962001de2565b60a084019790975250506001600160a01b0393841660c08201529190921660e08201526bffffffffffffffffffffffff9091166101009091015295945050505050565b601f82111562000d6b576000816000526020600020601f850160051c81016020861015620023065750805b601f850160051c820191505b81811015620023275782815560010162002312565b505050505050565b815167ffffffffffffffff8111156200234c576200234c62001e25565b62002364816200235d8454620021ee565b84620022db565b602080601f8311600181146200239c5760008415620023835750858301515b600019600386901b1c1916600185901b17855562002327565b600085815260208120601f198616915b82811015620023cd57888601518255948401946001909101908401620023ac565b5085821015620023ec5787850151600019600388901b60f8161c191681555b5050505050600190811b01905550565b60608152600062002411606083018662001de2565b828103602084015262002425818662001de2565b915050826040830152949350505050565b6000602082840312156200244957600080fd5b5051919050565b6000602082840312156200246357600080fd5b8151801515811462001d1657600080fd5b67ffffffffffffffff8311156200248f576200248f62001e25565b620024a783620024a08354620021ee565b83620022db565b6000601f841160018114620024de5760008515620024c55750838201355b600019600387901b1c1916600186901b1783556200253b565b600083815260209020601f19861690835b82811015620025115786850135825560209485019460019092019101620024ef565b50868210156200252f5760001960f88860031b161c19848701351681555b505060018560011b0183555b5050505050565b60208152816020820152818360408301376000818301604090810191909152601f909201601f19160101919050565b600082516200258581846020870162001dbc565b919091019291505056fe60806040523480156200001157600080fd5b506040516200308c3803806200308c8339810160408190526200003491620004d1565b8888600062000044838262000685565b50600162000053828262000685565b50506001600c555083620000b85760405162461bcd60e51b815260206004820152602160248201527f4d617820737570706c79206d7573742062652067726561746572207468616e206044820152600360fc1b60648201526084015b60405180910390fd5b6103e8816001600160601b03161115620001155760405162461bcd60e51b815260206004820152601960248201527f526f79616c74792063616e6e6f742065786365656420313025000000000000006044820152606401620000af565b6001600160a01b0383166200016d5760405162461bcd60e51b815260206004820152601560248201527f496e76616c69642061646d696e206164647265737300000000000000000000006044820152606401620000af565b6001600160a01b038216620001c55760405162461bcd60e51b815260206004820152601960248201527f496e76616c696420726f79616c747920726563697069656e74000000000000006044820152606401620000af565b600f620001d3888262000685565b506010620001e2878262000685565b5060138490556011620001f6868262000685565b50620002046000846200027a565b50620002317fa49807205ce4d355092ef5a8a18f56e8913cf4a201fbe287825b095693c21775846200027a565b506200025e7f9f2df0fed2c77648de5860a4cc508cd0818c85b8b8a1ab4ceeef8d981c8956a6846200027a565b506200026b82826200032d565b50505050505050505062000751565b6000828152600a602090815260408083206001600160a01b038516845290915281205460ff1662000323576000838152600a602090815260408083206001600160a01b03861684529091529020805460ff19166001179055620002da3390565b6001600160a01b0316826001600160a01b0316847f2f8788117e7eff1d82e926ec794901d17c78024a50270940304540a733656f0d60405160405180910390a450600162000327565b5060005b92915050565b6127106001600160601b0382168110156200036e57604051636f483d0960e01b81526001600160601b038316600482015260248101829052604401620000af565b6001600160a01b0383166200039a57604051635b6cc80560e11b815260006004820152602401620000af565b50604080518082019091526001600160a01b039092168083526001600160601b039091166020909201829052600160a01b90910217600d55565b634e487b7160e01b600052604160045260246000fd5b600082601f830112620003fc57600080fd5b81516001600160401b0380821115620004195762000419620003d4565b604051601f8301601f19908116603f01168101908282118183101715620004445762000444620003d4565b81604052838152602092508660208588010111156200046257600080fd5b600091505b8382101562000486578582018301518183018401529082019062000467565b6000602085830101528094505050505092915050565b80516001600160a01b0381168114620004b457600080fd5b919050565b80516001600160601b0381168114620004b457600080fd5b60008060008060008060008060006101208a8c031215620004f157600080fd5b89516001600160401b03808211156200050957600080fd5b620005178d838e01620003ea565b9a5060208c01519150808211156200052e57600080fd5b6200053c8d838e01620003ea565b995060408c01519150808211156200055357600080fd5b620005618d838e01620003ea565b985060608c01519150808211156200057857600080fd5b620005868d838e01620003ea565b975060808c01519150808211156200059d57600080fd5b50620005ac8c828d01620003ea565b95505060a08a01519350620005c460c08b016200049c565b9250620005d460e08b016200049c565b9150620005e56101008b01620004b9565b90509295985092959850929598565b600181811c908216806200060957607f821691505b6020821081036200062a57634e487b7160e01b600052602260045260246000fd5b50919050565b601f82111562000680576000816000526020600020601f850160051c810160208610156200065b5750805b601f850160051c820191505b818110156200067c5782815560010162000667565b5050505b505050565b81516001600160401b03811115620006a157620006a1620003d4565b620006b981620006b28454620005f4565b8462000630565b602080601f831160018114620006f15760008415620006d85750858301515b600019600386901b1c1916600185901b1785556200067c565b600085815260208120601f198616915b82811015620007225788860151825594840194600190910190840162000701565b5085821015620007415787850151600019600388901b60f8161c191681555b5050505050600190811b01905550565b61292b80620007616000396000f3fe608060405234801561001057600080fd5b50600436106102535760003560e01c806375b238fc11610146578063d5391393116100c3578063e2c6875c11610087578063e2c6875c14610512578063e4b7fb731461051a578063e8a3d48514610522578063e985e9c51461052a578063f2f18baa1461053d578063f48e252f1461055057600080fd5b8063d5391393146104b4578063d547741f146104db578063d547cfb7146104ee578063d5abeb01146104f6578063daa83c6d146104ff57600080fd5b8063a217fddf1161010a578063a217fddf14610460578063a22cb46514610468578063b88d4fde1461047b578063c87b56dd1461048e578063d0def521146104a157600080fd5b806375b238fc146104155780638456cb591461042a57806391d1485414610432578063938e3d7b1461044557806395d89b411461045857600080fd5b806330176e13116101d45780634f6ccce7116101985780634f6ccce7146103c957806356189236146103dc5780635c975abb146103e45780636352211e146103ef57806370a082311461040257600080fd5b806330176e131461037557806336568abe146103885780633f4ba83a1461039b57806342842e0e146103a357806342966c68146103b657600080fd5b806323b872dd1161021b57806323b872dd146102e7578063248a9ca3146102fa5780632a55205a1461031d5780632f2ff15d1461034f5780632f745c591461036257600080fd5b806301ffc9a71461025857806306fdde0314610280578063081812fc14610295578063095ea7b3146102c057806318160ddd146102d5575b600080fd5b61026b610266366004611f3a565b610563565b60405190151581526020015b60405180910390f35b610288610574565b6040516102779190611fae565b6102a86102a3366004611fc1565b610606565b6040516001600160a01b039091168152602001610277565b6102d36102ce366004611ff6565b61062f565b005b6008545b604051908152602001610277565b6102d36102f5366004612020565b61063e565b6102d9610308366004611fc1565b6000908152600a602052604090206001015490565b61033061032b36600461205c565b6106ce565b604080516001600160a01b039093168352602083019190915201610277565b6102d361035d36600461207e565b610753565b6102d9610370366004611ff6565b610778565b6102d36103833660046120aa565b6107dd565b6102d361039636600461207e565b610841565b6102d3610879565b6102d36103b1366004612020565b61089c565b6102d36103c4366004611fc1565b6108b7565b6102d96103d7366004611fc1565b6108ef565b6014546102d9565b600b5460ff1661026b565b6102a86103fd366004611fc1565b610948565b6102d961041036600461211c565b610953565b6102d96000805160206128d683398151915281565b6102d361099b565b61026b61044036600461207e565b6109bb565b6102d36104533660046120aa565b6109e6565b610288610a0b565b6102d9600081565b6102d3610476366004612137565b610a1a565b6102d3610489366004612212565b610a25565b61028861049c366004611fc1565b610a3d565b6102d96104af3660046122ae565b610b94565b6102d97f9f2df0fed2c77648de5860a4cc508cd0818c85b8b8a1ab4ceeef8d981c8956a681565b6102d36104e936600461207e565b610cbe565b610288610ce3565b6102d960135481565b6102d361050d3660046122fc565b610d71565b610288610e8b565b6102d9610e98565b610288610eaf565b61026b610538366004612334565b610ebe565b6102d361054b36600461235e565b610eec565b6102d361055e366004612434565b611156565b600061056e826111b9565b92915050565b6060600080546105839061248e565b80601f01602080910402602001604051908101604052809291908181526020018280546105af9061248e565b80156105fc5780601f106105d1576101008083540402835291602001916105fc565b820191906000526020600020905b8154815290600101906020018083116105df57829003601f168201915b5050505050905090565b6000610611826111de565b506000828152600460205260409020546001600160a01b031661056e565b61063a828233611217565b5050565b6001600160a01b03821661066d57604051633250574960e11b8152600060048201526024015b60405180910390fd5b600061067a838333611224565b9050836001600160a01b0316816001600160a01b0316146106c8576040516364283d7b60e01b81526001600160a01b0380861660048301526024820184905282166044820152606401610664565b50505050565b6000828152600e6020526040812080548291906001600160a01b03811690600160a01b90046001600160601b031681610722575050600d546001600160a01b03811690600160a01b90046001600160601b03165b600061271061073a6001600160601b038416896124de565b61074491906124f5565b92989297509195505050505050565b6000828152600a602052604090206001015461076e81611239565b6106c88383611243565b600061078383610953565b82106107b45760405163295f44f760e21b81526001600160a01b038416600482015260248101839052604401610664565b506001600160a01b03919091166000908152600660209081526040808320938352929052205490565b6000805160206128d68339815191526107f581611239565b601061080283858361255f565b507f6741b2fc379fad678116fe3d4d4b9a1a184ab53ba36b86ad0fa66340b1ab41ad838360405161083492919061261f565b60405180910390a1505050565b6001600160a01b038116331461086a5760405163334bd91960e11b815260040160405180910390fd5b61087482826112d7565b505050565b6000805160206128d683398151915261089181611239565b610899611344565b50565b61087483838360405180602001604052806000815250610a25565b6000805160206128d68339815191526108cf81611239565b6108d882611396565b600082815260126020526040812061063a91611ed6565b60006108fa60085490565b82106109235760405163295f44f760e21b81526000600482015260248101839052604401610664565b600882815481106109365761093661264e565b90600052602060002001549050919050565b600061056e826111de565b60006001600160a01b03821661097f576040516322718ad960e21b815260006004820152602401610664565b506001600160a01b031660009081526003602052604090205490565b6000805160206128d68339815191526109b381611239565b6108996113d1565b6000918252600a602090815260408084206001600160a01b0393909316845291905290205460ff1690565b6000805160206128d68339815191526109fe81611239565b60116106c883858361255f565b6060600180546105839061248e565b61063a33838361140e565b610a3084848461063e565b6106c833858585856114ad565b60606000610a4a83610948565b6001600160a01b031603610ab85760405162461bcd60e51b815260206004820152602f60248201527f4552433732314d657461646174613a2055524920717565727920666f72206e6f60448201526e3732bc34b9ba32b73a103a37b5b2b760891b6064820152608401610664565b60008281526012602052604081208054610ad19061248e565b80601f0160208091040260200160405190810160405280929190818152602001828054610afd9061248e565b8015610b4a5780601f10610b1f57610100808354040283529160200191610b4a565b820191906000526020600020905b815481529060010190602001808311610b2d57829003601f168201915b50505050509050600081511115610b615792915050565b6010610b6c846115d8565b604051602001610b7d929190612664565b604051602081830303815290604052915050919050565b60007f9f2df0fed2c77648de5860a4cc508cd0818c85b8b8a1ab4ceeef8d981c8956a6610bc081611239565b610bc861166b565b610bd0611691565b6001600160a01b038416610c265760405162461bcd60e51b815260206004820152601b60248201527f43616e6e6f74206d696e7420746f207a65726f206164647265737300000000006044820152606401610664565b60135460145410610c6e5760405162461bcd60e51b815260206004820152601260248201527113585e081cdd5c1c1b1e481c995858da195960721b6044820152606401610664565b60148054906001906000610c8283856126fb565b90915550610c92905085826116bb565b6000818152601260205260409020610caa858261270e565b509150610cb76001600c55565b5092915050565b6000828152600a6020526040902060010154610cd981611239565b6106c883836112d7565b60108054610cf09061248e565b80601f0160208091040260200160405190810160405280929190818152602001828054610d1c9061248e565b8015610d695780601f10610d3e57610100808354040283529160200191610d69565b820191906000526020600020905b815481529060010190602001808311610d4c57829003601f168201915b505050505081565b6000805160206128d6833981519152610d8981611239565b6001600160a01b038316610ddf5760405162461bcd60e51b815260206004820152601960248201527f496e76616c696420726f79616c747920726563697069656e74000000000000006044820152606401610664565b6103e8826001600160601b03161115610e3a5760405162461bcd60e51b815260206004820152601960248201527f526f79616c74792063616e6e6f742065786365656420313025000000000000006044820152606401610664565b610e4483836116d5565b604080516001600160a01b03851681526001600160601b03841660208201527faf1c0be9124aef2948fc934d6013ed3f705d2869bc4955cb4f655b0bc2952f659101610834565b600f8054610cf09061248e565b6000601454601354610eaa91906127ce565b905090565b6060601180546105839061248e565b6001600160a01b03918216600090815260056020908152604080832093909416825291909152205460ff1690565b7f9f2df0fed2c77648de5860a4cc508cd0818c85b8b8a1ab4ceeef8d981c8956a6610f1681611239565b610f1e61166b565b610f26611691565b6001600160a01b038316610f7c5760405162461bcd60e51b815260206004820152601b60248201527f43616e6e6f74206d696e7420746f207a65726f206164647265737300000000006044820152606401610664565b6000825111610fcd5760405162461bcd60e51b815260206004820152601c60248201527f4d757374206d696e74206174206c65617374206f6e6520746f6b656e000000006044820152606401610664565b6013548251601454610fdf91906126fb565b11156110385760405162461bcd60e51b815260206004820152602260248201527f4261746368206d696e7420776f756c6420657863656564206d617820737570706044820152616c7960f01b6064820152608401610664565b6000825167ffffffffffffffff81111561105457611054612173565b60405190808252806020026020018201604052801561107d578160200160208202803683370190505b50905060005b835181101561111157601480549060019060006110a083856126fb565b909155506110b0905086826116bb565b8482815181106110c2576110c261264e565b60200260200101516012600083815260200190815260200160002090816110e9919061270e565b50808383815181106110fd576110fd61264e565b602090810291909101015250600101611083565b507f0fccc44f8f4572066001d167eac735aa3f72308ef306fd3af1b0bb0b6a7ba90f84826040516111439291906127e1565b60405180910390a1506108746001600c55565b6000805160206128d683398151915261116e81611239565b600f61117a848261270e565b506010611187838261270e565b507f14de4550425f19a7fff99ceeb4e8a4a1353a69e1cc46080a624228a8acc8110c8383604051610834929190612837565b60006001600160e01b0319821663152a902d60e11b148061056e575061056e82611778565b6000818152600260205260408120546001600160a01b03168061056e57604051637e27328960e01b815260048101849052602401610664565b610874838383600161179d565b60006112318484846118a3565b949350505050565b6108998133611970565b600061124f83836109bb565b6112cf576000838152600a602090815260408083206001600160a01b03861684529091529020805460ff191660011790556112873390565b6001600160a01b0316826001600160a01b0316847f2f8788117e7eff1d82e926ec794901d17c78024a50270940304540a733656f0d60405160405180910390a450600161056e565b50600061056e565b60006112e383836109bb565b156112cf576000838152600a602090815260408083206001600160a01b0386168085529252808320805460ff1916905551339286917ff6391f5c32d9c69d2a47ea670b442974b53935d1edc7fd64eb21e047a839171b9190a450600161056e565b61134c6119a9565b600b805460ff191690557f5db9ee0a495bf2e6ff9c91a7834c1ba4fdd244a5e8aa4e537bd38aeae4b073aa335b6040516001600160a01b03909116815260200160405180910390a1565b60006113a56000836000611224565b90506001600160a01b03811661063a57604051637e27328960e01b815260048101839052602401610664565b6113d961166b565b600b805460ff191660011790557f62e78cea01bee320cd4e420270b5ea74000d11b0c9f74754ebdbfc544b05a2586113793390565b6001600160a01b03821661144057604051630b61174360e31b81526001600160a01b0383166004820152602401610664565b6001600160a01b03838116600081815260056020908152604080832094871680845294825291829020805460ff191686151590811790915591519182527f17307eab39ab6107e8899845ad3d59bd9653f200f220920489ca2b5937696c31910160405180910390a3505050565b6001600160a01b0383163b156115d157604051630a85bd0160e11b81526001600160a01b0384169063150b7a02906114ef908890889087908790600401612865565b6020604051808303816000875af192505050801561152a575060408051601f3d908101601f19168201909252611527918101906128a2565b60015b611593573d808015611558576040519150601f19603f3d011682016040523d82523d6000602084013e61155d565b606091505b50805160000361158b57604051633250574960e11b81526001600160a01b0385166004820152602401610664565b805181602001fd5b6001600160e01b03198116630a85bd0160e11b146115cf57604051633250574960e11b81526001600160a01b0385166004820152602401610664565b505b5050505050565b606060006115e5836119cc565b600101905060008167ffffffffffffffff81111561160557611605612173565b6040519080825280601f01601f19166020018201604052801561162f576020820181803683370190505b5090508181016020015b600019016f181899199a1a9b1b9c1cb0b131b232b360811b600a86061a8153600a850494508461163957509392505050565b600b5460ff161561168f5760405163d93c066560e01b815260040160405180910390fd5b565b6002600c54036116b457604051633ee5aeb560e01b815260040160405180910390fd5b6002600c55565b61063a828260405180602001604052806000815250611aa4565b6127106001600160601b03821681101561171457604051636f483d0960e01b81526001600160601b038316600482015260248101829052604401610664565b6001600160a01b03831661173e57604051635b6cc80560e11b815260006004820152602401610664565b50604080518082019091526001600160a01b039092168083526001600160601b039091166020909201829052600160a01b90910217600d55565b60006001600160e01b03198216637965db0b60e01b148061056e575061056e82611abc565b80806117b157506001600160a01b03821615155b156118735760006117c1846111de565b90506001600160a01b038316158015906117ed5750826001600160a01b0316816001600160a01b031614155b801561180057506117fe8184610ebe565b155b156118295760405163a9fbf51f60e01b81526001600160a01b0384166004820152602401610664565b81156118715783856001600160a01b0316826001600160a01b03167f8c5be1e5ebec7d5bd14f71427d1e84f3dd0314c0f7b2291e5b200ac8c7c3b92560405160405180910390a45b505b5050600090815260046020526040902080546001600160a01b0319166001600160a01b0392909216919091179055565b6000806118b1858585611ae1565b90506001600160a01b03811661190e5761190984600880546000838152600960205260408120829055600182018355919091527ff3f7a9fe364faab93b216da50a3214154f22a0a2b415b23a84c8169e8b636ee30155565b611931565b846001600160a01b0316816001600160a01b031614611931576119318185611bda565b6001600160a01b03851661194d5761194884611c5b565b611231565b846001600160a01b0316816001600160a01b031614611231576112318585611d0a565b61197a82826109bb565b61063a5760405163e2517d3f60e01b81526001600160a01b038216600482015260248101839052604401610664565b600b5460ff1661168f57604051638dfc202b60e01b815260040160405180910390fd5b60008072184f03e93ff9f4daa797ed6e38ed64bf6a1f0160401b8310611a0b5772184f03e93ff9f4daa797ed6e38ed64bf6a1f0160401b830492506040015b6d04ee2d6d415b85acef81000000008310611a37576d04ee2d6d415b85acef8100000000830492506020015b662386f26fc100008310611a5557662386f26fc10000830492506010015b6305f5e1008310611a6d576305f5e100830492506008015b6127108310611a8157612710830492506004015b60648310611a93576064830492506002015b600a831061056e5760010192915050565b611aae8383611d5a565b6108743360008585856114ad565b60006001600160e01b0319821663780e9d6360e01b148061056e575061056e82611dbf565b6000828152600260205260408120546001600160a01b0390811690831615611b0e57611b0e818486611e0f565b6001600160a01b03811615611b4c57611b2b60008560008061179d565b6001600160a01b038116600090815260036020526040902080546000190190555b6001600160a01b03851615611b7b576001600160a01b0385166000908152600360205260409020805460010190555b60008481526002602052604080822080546001600160a01b0319166001600160a01b0389811691821790925591518793918516917fddf252ad1be2c89b69c2b068fc378daa952ba7f163c4a11628f55a4df523b3ef91a4949350505050565b6000611be583610953565b6000838152600760209081526040808320546001600160a01b0388168452600690925290912091925090818314611c3c57600083815260208281526040808320548584528184208190558352600790915290208290555b6000938452600760209081526040808620869055938552525081205550565b600854600090611c6d906001906127ce565b60008381526009602052604081205460088054939450909284908110611c9557611c9561264e565b906000526020600020015490508060088381548110611cb657611cb661264e565b6000918252602080832090910192909255828152600990915260408082208490558582528120556008805480611cee57611cee6128bf565b6001900381819060005260206000200160009055905550505050565b60006001611d1784610953565b611d2191906127ce565b6001600160a01b039093166000908152600660209081526040808320868452825280832085905593825260079052919091209190915550565b6001600160a01b038216611d8457604051633250574960e11b815260006004820152602401610664565b6000611d9283836000611224565b90506001600160a01b03811615610874576040516339e3563760e11b815260006004820152602401610664565b60006001600160e01b031982166380ac58cd60e01b1480611df057506001600160e01b03198216635b5e139f60e01b145b8061056e57506301ffc9a760e01b6001600160e01b031983161461056e565b611e1a838383611e73565b610874576001600160a01b038316611e4857604051637e27328960e01b815260048101829052602401610664565b60405163177e802f60e01b81526001600160a01b038316600482015260248101829052604401610664565b60006001600160a01b038316158015906112315750826001600160a01b0316846001600160a01b03161480611ead5750611ead8484610ebe565b806112315750506000908152600460205260409020546001600160a01b03908116911614919050565b508054611ee29061248e565b6000825580601f10611ef2575050565b601f01602090049060005260206000209081019061089991905b80821115611f205760008155600101611f0c565b5090565b6001600160e01b03198116811461089957600080fd5b600060208284031215611f4c57600080fd5b8135611f5781611f24565b9392505050565b60005b83811015611f79578181015183820152602001611f61565b50506000910152565b60008151808452611f9a816020860160208601611f5e565b601f01601f19169290920160200192915050565b602081526000611f576020830184611f82565b600060208284031215611fd357600080fd5b5035919050565b80356001600160a01b0381168114611ff157600080fd5b919050565b6000806040838503121561200957600080fd5b61201283611fda565b946020939093013593505050565b60008060006060848603121561203557600080fd5b61203e84611fda565b925061204c60208501611fda565b9150604084013590509250925092565b6000806040838503121561206f57600080fd5b50508035926020909101359150565b6000806040838503121561209157600080fd5b823591506120a160208401611fda565b90509250929050565b600080602083850312156120bd57600080fd5b823567ffffffffffffffff808211156120d557600080fd5b818501915085601f8301126120e957600080fd5b8135818111156120f857600080fd5b86602082850101111561210a57600080fd5b60209290920196919550909350505050565b60006020828403121561212e57600080fd5b611f5782611fda565b6000806040838503121561214a57600080fd5b61215383611fda565b91506020830135801515811461216857600080fd5b809150509250929050565b634e487b7160e01b600052604160045260246000fd5b604051601f8201601f1916810167ffffffffffffffff811182821017156121b2576121b2612173565b604052919050565b600067ffffffffffffffff8311156121d4576121d4612173565b6121e7601f8401601f1916602001612189565b90508281528383830111156121fb57600080fd5b828260208301376000602084830101529392505050565b6000806000806080858703121561222857600080fd5b61223185611fda565b935061223f60208601611fda565b925060408501359150606085013567ffffffffffffffff81111561226257600080fd5b8501601f8101871361227357600080fd5b612282878235602084016121ba565b91505092959194509250565b600082601f83011261229f57600080fd5b611f57838335602085016121ba565b600080604083850312156122c157600080fd5b6122ca83611fda565b9150602083013567ffffffffffffffff8111156122e657600080fd5b6122f28582860161228e565b9150509250929050565b6000806040838503121561230f57600080fd5b61231883611fda565b915060208301356001600160601b038116811461216857600080fd5b6000806040838503121561234757600080fd5b61235083611fda565b91506120a160208401611fda565b6000806040838503121561237157600080fd5b61237a83611fda565b915060208084013567ffffffffffffffff8082111561239857600080fd5b818601915086601f8301126123ac57600080fd5b8135818111156123be576123be612173565b8060051b6123cd858201612189565b918252838101850191858101908a8411156123e757600080fd5b86860192505b83831015612423578235858111156124055760008081fd5b6124138c89838a010161228e565b83525091860191908601906123ed565b809750505050505050509250929050565b6000806040838503121561244757600080fd5b823567ffffffffffffffff8082111561245f57600080fd5b61246b8683870161228e565b9350602085013591508082111561248157600080fd5b506122f28582860161228e565b600181811c908216806124a257607f821691505b6020821081036124c257634e487b7160e01b600052602260045260246000fd5b50919050565b634e487b7160e01b600052601160045260246000fd5b808202811582820484141761056e5761056e6124c8565b60008261251257634e487b7160e01b600052601260045260246000fd5b500490565b601f821115610874576000816000526020600020601f850160051c810160208610156125405750805b601f850160051c820191505b818110156115cf5782815560010161254c565b67ffffffffffffffff83111561257757612577612173565b61258b83612585835461248e565b83612517565b6000601f8411600181146125bf57600085156125a75750838201355b600019600387901b1c1916600186901b1783556115d1565b600083815260209020601f19861690835b828110156125f057868501358255602094850194600190920191016125d0565b508682101561260d5760001960f88860031b161c19848701351681555b505060018560011b0183555050505050565b60208152816020820152818360408301376000818301604090810191909152601f909201601f19160101919050565b634e487b7160e01b600052603260045260246000fd5b60008084546126728161248e565b6001828116801561268a576001811461269f576126ce565b60ff19841687528215158302870194506126ce565b8860005260208060002060005b858110156126c55781548a8201529084019082016126ac565b50505082870194505b5050505083516126e2818360208801611f5e565b64173539b7b760d91b9101908152600501949350505050565b8082018082111561056e5761056e6124c8565b815167ffffffffffffffff81111561272857612728612173565b61273c81612736845461248e565b84612517565b602080601f83116001811461277157600084156127595750858301515b600019600386901b1c1916600185901b1785556115cf565b600085815260208120601f198616915b828110156127a057888601518255948401946001909101908401612781565b50858210156127be5787850151600019600388901b60f8161c191681555b5050505050600190811b01905550565b8181038181111561056e5761056e6124c8565b6001600160a01b038316815260406020808301829052835191830182905260009184820191906060850190845b8181101561282a5784518352938301939183019160010161280e565b5090979650505050505050565b60408152600061284a6040830185611f82565b828103602084015261285c8185611f82565b95945050505050565b6001600160a01b038581168252841660208201526040810183905260806060820181905260009061289890830184611f82565b9695505050505050565b6000602082840312156128b457600080fd5b8151611f5781611f24565b634e487b7160e01b600052603160045260246000fdfea49807205ce4d355092ef5a8a18f56e8913cf4a201fbe287825b095693c21775a2646970667358221220655e07a6fd249364f4393e3869de402064bd86f9fd6aaeb0404a4aefebd923ea64736f6c63430008160033360894a13ba1a3210667c828492db98dca3e2076cc3735a920a3ca505d382bbc02dd7bc7dec4dceedda775e58dd541e08a116c6c53815c0bd028192f7b626800a49807205ce4d355092ef5a8a18f56e8913cf4a201fbe287825b095693c21775a26469706673582212202e35278b116287424a78520fa6f683d3ada529b4c9795357354b8ec7c9a32bc064736f6c63430008160033",
  "linkReferences": {},
  "deployedLinkReferences": {}
}