{
  "_format": "hh-sol-artifact-1",
  "contractName": "GameMarketplace",
  "sourceName": "contracts/GameMarketplace.sol",
  "abi": [
    {
      "inputs": [],
      "name": "AccessControlBadConfirmation",
      "type": "error"
    },
    {
      "inputs": [
        {
          "internalType": "address",
          "name": "account",
          "type": "address"
        },
        {
          "internalType": "bytes32",
          "name": "neededRole",
          "type": "bytes32"
        }
      ],
      "name": "AccessControlUnauthorizedAccount",
      "type": "error"
    },
    {
      "inputs": [
        {
          "internalType": "address",
          "name": "target",
          "type": "address"
        }
      ],
      "name": "AddressEmptyCode",
      "type": "error"
    },
    {
      "inputs": [
        {
          "internalType": "address",
          "name": "implementation",
          "type": "address"
        }
      ],
      "name": "ERC1967InvalidImplementation",
      "type": "error"
    },
    {
      "inputs": [],
      "name": "ERC1967NonPayable",
      "type": "error"
    },
    {
      "inputs": [],
      "name": "EnforcedPause",
      "type": "error"
    },
    {
      "inputs": [],
      "name": "ExpectedPause",
      "type": "error"
    },
    {
      "inputs": [],
      "name": "FailedCall",
      "type": "error"
    },
    {
      "inputs": [],
      "name": "InvalidInitialization",
      "type": "error"
    },
    {
      "inputs": [],
      "name": "NotInitializing",
      "type": "error"
    },
    {
      "inputs": [],
      "name": "ReentrancyGuardReentrantCall",
      "type": "error"
    },
    {
      "inputs": [],
      "name": "UUPSUnauthorizedCallContext",
      "type": "error"
    },
    {
      "inputs": [
        {
          "internalType": "bytes32",
          "name": "slot",
          "type": "bytes32"
        }
      ],
      "name": "UUPSUnsupportedProxiableUUID",
      "type": "error"
    },
    {
      "anonymous": false,
      "inputs": [
        {
          "indexed": false,
          "internalType": "uint64",
          "name": "version",
          "type": "uint64"
        }
      ],
      "name": "Initialized",
      "type": "event"
    },
    {
      "anonymous": false,
      "inputs": [
        {
          "indexed": true,
          "internalType": "bytes32",
          "name": "listingId",
          "type": "bytes32"
        },
        {
          "indexed": true,
          "internalType": "address",
          "name": "seller",
          "type": "address"
        },
        {
          "indexed": true,
          "internalType": "address",
          "name": "nftContract",
          "type": "address"
        },
        {
          "indexed": false,
          "internalType": "uint256",
          "name": "tokenId",
          "type": "uint256"
        },
        {
          "indexed": false,
          "internalType": "address",
          "name": "paymentToken",
          "type": "address"
        },
        {
          "indexed": false,
          "internalType": "uint256",
          "name": "price",
          "type": "uint256"
        },
        {
          "indexed": false,
          "internalType": "uint256",
          "name": "expiresAt",
          "type": "uint256"
        }
      ],
      "name": "ItemListed",
      "type": "event"
    },
    {
      "anonymous": false,
      "inputs": [
        {
          "indexed": true,
          "internalType": "bytes32",
          "name": "listingId",
          "type": "bytes32"
        },
        {
          "indexed": true,
          "internalType": "address",
          "name": "buyer",
          "type": "address"
        },
        {
          "indexed": true,
          "internalType": "address",
          "name": "seller",
          "type": "address"
        },
        {
          "indexed": false,
          "internalType": "uint256",
          "name": "price",
          "type": "uint256"
        },
        {
          "indexed": false,
          "internalType": "uint256",
          "name": "platformFee",
          "type": "uint256"
        },
        {
          "indexed": false,
          "internalType": "uint256",
          "name": "royaltyFee",
          "type": "uint256"
        }
      ],
      "name": "ItemSold",
      "type": "event"
    },
    {
      "anonymous": false,
      "inputs": [
        {
          "indexed": true,
          "internalType": "bytes32",
          "name": "listingId",
          "type": "bytes32"
        }
      ],
      "name": "ListingCancelled",
      "type": "event"
    },
    {
      "anonymous": false,
      "inputs": [
        {
          "indexed": false,
          "internalType": "address",
          "name": "account",
          "type": "address"
        }
      ],
      "name": "Paused",
      "type": "event"
    },
    {
      "anonymous": false,
      "inputs": [
        {
          "indexed": false,
          "internalType": "uint256",
          "name": "newFeeBps",
          "type": "uint256"
        }
      ],
      "name": "PlatformFeeUpdated",
      "type": "event"
    },
    {
      "anonymous": false,
      "inputs": [
        {
          "indexed": true,
          "internalType": "bytes32",
          "name": "role",
          "type": "bytes32"
        },
        {
          "indexed": true,
          "internalType": "bytes32",
          "name": "previousAdminRole",
          "type": "bytes32"
        },
        {
          "indexed": true,
          "internalType": "bytes32",
          "name": "newAdminRole",
          "type": "bytes32"
        }
      ],
      "name": "RoleAdminChanged",
      "type": "event"
    },
    {
      "anonymous": false,
      "inputs": [
        {
          "indexed": true,
          "internalType": "bytes32",
          "name": "role",
          "type": "bytes32"
        },
        {
          "indexed": true,
          "internalType": "address",
          "name": "account",
          "type": "address"
        },
        {
          "indexed": true,
          "internalType": "address",
          "name": "sender",
          "type": "address"
        }
      ],
      "name": "RoleGranted",
      "type": "event"
    },
    {
      "anonymous": false,
      "inputs": [
        {
          "indexed": true,
          "internalType": "bytes32",
          "name": "role",
          "type": "bytes32"
        },
        {
          "indexed": true,
          "internalType": "address",
          "name": "account",
          "type": "address"
        },
        {
          "indexed": true,
          "internalType": "address",
          "name": "sender",
          "type": "address"
        }
      ],
      "name": "RoleRevoked",
      "type": "event"
    },
    {
      "anonymous": false,
      "inputs": [
        {
          "indexed": false,
          "internalType": "address",
          "name": "account",
          "type": "address"
        }
      ],
      "name": "Unpaused",
      "type": "event"
    },
    {
      "anonymous": false,
      "inputs": [
        {
          "indexed": true,
          "internalType": "address",
          "name": "implementation",
          "type": "address"
        }
      ],
      "name": "Upgraded",
      "type": "event"
    },
    {
      "inputs": [],
      "name": "ADMIN_ROLE",
      "outputs": [
        {
          "internalType": "bytes32",
          "name": "",
          "type": "bytes32"
        }
      ],
      "stateMutability": "view",
      "type": "function"
    },
    {
      "inputs": [],
      "name": "DEFAULT_ADMIN_ROLE",
      "outputs": [
        {
          "internalType": "bytes32",
          "name": "",
          "type": "bytes32"
        }
      ],
      "stateMutability": "view",
      "type": "function"
    },
    {
      "inputs": [],
      "name": "UPGRADE_INTERFACE_VERSION",
      "outputs": [
        {
          "internalType": "string",
          "name": "",
          "type": "string"
        }
      ],
      "stateMutability": "view",
      "type": "function"
    },
    {
      "inputs": [
        {
          "internalType": "address",
          "name": "",
          "type": "address"
        },
        {
          "internalType": "uint256",
          "name": "",
          "type": "uint256"
        }
      ],
      "name": "activeListing",
      "outputs": [
        {
          "internalType": "bytes32",
          "name": "",
          "type": "bytes32"
        }
      ],
      "stateMutability": "view",
      "type": "function"
    },
    {
      "inputs": [
        {
          "internalType": "address",
          "name": "account",
          "type": "address"
        }
      ],
      "name": "addAdmin",
      "outputs": [],
      "stateMutability": "nonpayable",
      "type": "function"
    },
    {
      "inputs": [
        {
          "internalType": "address",
          "name": "token",
          "type": "address"
        }
      ],
      "name": "addSupportedToken",
      "outputs": [],
      "stateMutability": "nonpayable",
      "type": "function"
    },
    {
      "inputs": [
        {
          "internalType": "address",
          "name": "nftContract",
          "type": "address"
        },
        {
          "internalType": "uint256[]",
          "name": "tokenIds",
          "type": "uint256[]"
        }
      ],
      "name": "batchCancelListings",
      "outputs": [],
      "stateMutability": "nonpayable",
      "type": "function"
    },
    {
      "inputs": [
        {
          "internalType": "address",
          "name": "nftContract",
          "type": "address"
        },
        {
          "internalType": "uint256[]",
          "name": "tokenIds",
          "type": "uint256[]"
        },
        {
          "internalType": "address",
          "name": "paymentToken",
          "type": "address"
        },
        {
          "internalType": "uint256[]",
          "name": "prices",
          "type": "uint256[]"
        },
        {
          "internalType": "uint256",
          "name": "duration",
          "type": "uint256"
        }
      ],
      "name": "batchListItems",
      "outputs": [],
      "stateMutability": "nonpayable",
      "type": "function"
    },
    {
      "inputs": [
        {
          "internalType": "bytes32",
          "name": "listingId",
          "type": "bytes32"
        }
      ],
      "name": "buyItem",
      "outputs": [],
      "stateMutability": "payable",
      "type": "function"
    },
    {
      "inputs": [
        {
          "internalType": "bytes32",
          "name": "listingId",
          "type": "bytes32"
        }
      ],
      "name": "cancelListing",
      "outputs": [],
      "stateMutability": "nonpayable",
      "type": "function"
    },
    {
      "inputs": [],
      "name": "feeRecipient",
      "outputs": [
        {
          "internalType": "address",
          "name": "",
          "type": "address"
        }
      ],
      "stateMutability": "view",
      "type": "function"
    },
    {
      "inputs": [
        {
          "internalType": "uint256",
          "name": "offset",
          "type": "uint256"
        },
        {
          "internalType": "uint256",
          "name": "limit",
          "type": "uint256"
        }
      ],
      "name": "getActiveListings",
      "outputs": [
        {
          "internalType": "bytes32[]",
          "name": "",
          "type": "bytes32[]"
        }
      ],
      "stateMutability": "view",
      "type": "function"
    },
    {
      "inputs": [
        {
          "internalType": "bytes32",
          "name": "listingId",
          "type": "bytes32"
        }
      ],
      "name": "getListing",
      "outputs": [
        {
          "components": [
            {
              "internalType": "address",
              "name": "seller",
              "type": "address"
            },
            {
              "internalType": "address",
              "name": "nftContract",
              "type": "address"
            },
            {
              "internalType": "uint256",
              "name": "tokenId",
              "type": "uint256"
            },
            {
              "internalType": "address",
              "name": "paymentToken",
              "type": "address"
            },
            {
              "internalType": "uint256",
              "name": "price",
              "type": "uint256"
            },
            {
              "internalType": "uint256",
              "name": "expiresAt",
              "type": "uint256"
            },
            {
              "internalType": "bool",
              "name": "active",
              "type": "bool"
            }
          ],
          "internalType": "struct GameMarketplace.Listing",
          "name": "",
          "type": "tuple"
        }
      ],
      "stateMutability": "view",
      "type": "function"
    },
    {
      "inputs": [
        {
          "internalType": "address",
          "name": "nftContract",
          "type": "address"
        }
      ],
      "name": "getListingsByNFTContract",
      "outputs": [
        {
          "internalType": "bytes32[]",
          "name": "",
          "type": "bytes32[]"
        }
      ],
      "stateMutability": "view",
      "type": "function"
    },
    {
      "inputs": [
        {
          "internalType": "bytes32",
          "name": "role",
          "type": "bytes32"
        }
      ],
      "name": "getRoleAdmin",
      "outputs": [
        {
          "internalType": "bytes32",
          "name": "",
          "type": "bytes32"
        }
      ],
      "stateMutability": "view",
      "type": "function"
    },
    {
      "inputs": [],
      "name": "getTotalActiveListings",
      "outputs": [
        {
          "internalType": "uint256",
          "name": "",
          "type": "uint256"
        }
      ],
      "stateMutability": "view",
      "type": "function"
    },
    {
      "inputs": [
        {
          "internalType": "bytes32",
          "name": "role",
          "type": "bytes32"
        },
        {
          "internalType": "address",
          "name": "account",
          "type": "address"
        }
      ],
      "name": "grantRole",
      "outputs": [],
      "stateMutability": "nonpayable",
      "type": "function"
    },
    {
      "inputs": [
        {
          "internalType": "bytes32",
          "name": "role",
          "type": "bytes32"
        },
        {
          "internalType": "address",
          "name": "account",
          "type": "address"
        }
      ],
      "name": "hasRole",
      "outputs": [
        {
          "internalType": "bool",
          "name": "",
          "type": "bool"
        }
      ],
      "stateMutability": "view",
      "type": "function"
    },
    {
      "inputs": [
        {
          "internalType": "address",
          "name": "_feeRecipient",
          "type": "address"
        }
      ],
      "name": "initialize",
      "outputs": [],
      "stateMutability": "nonpayable",
      "type": "function"
    },
    {
      "inputs": [
        {
          "internalType": "bytes32",
          "name": "listingId",
          "type": "bytes32"
        }
      ],
      "name": "isListingValid",
      "outputs": [
        {
          "internalType": "bool",
          "name": "",
          "type": "bool"
        }
      ],
      "stateMutability": "view",
      "type": "function"
    },
    {
      "inputs": [
        {
          "internalType": "address",
          "name": "nftContract",
          "type": "address"
        },
        {
          "internalType": "uint256",
          "name": "tokenId",
          "type": "uint256"
        },
        {
          "internalType": "address",
          "name": "paymentToken",
          "type": "address"
        },
        {
          "internalType": "uint256",
          "name": "price",
          "type": "uint256"
        },
        {
          "internalType": "uint256",
          "name": "duration",
          "type": "uint256"
        }
      ],
      "name": "listItem",
      "outputs": [],
      "stateMutability": "nonpayable",
      "type": "function"
    },
    {
      "inputs": [
        {
          "internalType": "bytes32",
          "name": "",
          "type": "bytes32"
        }
      ],
      "name": "listings",
      "outputs": [
        {
          "internalType": "address",
          "name": "seller",
          "type": "address"
        },
        {
          "internalType": "address",
          "name": "nftContract",
          "type": "address"
        },
        {
          "internalType": "uint256",
          "name": "tokenId",
          "type": "uint256"
        },
        {
          "internalType": "address",
          "name": "paymentToken",
          "type": "address"
        },
        {
          "internalType": "uint256",
          "name": "price",
          "type": "uint256"
        },
        {
          "internalType": "uint256",
          "name": "expiresAt",
          "type": "uint256"
        },
        {
          "internalType": "bool",
          "name": "active",
          "type": "bool"
        }
      ],
      "stateMutability": "view",
      "type": "function"
    },
    {
      "inputs": [],
      "name": "pause",
      "outputs": [],
      "stateMutability": "nonpayable",
      "type": "function"
    },
    {
      "inputs": [],
      "name": "paused",
      "outputs": [
        {
          "internalType": "bool",
          "name": "",
          "type": "bool"
        }
      ],
      "stateMutability": "view",
      "type": "function"
    },
    {
      "inputs": [],
      "name": "platformFeeBps",
      "outputs": [
        {
          "internalType": "uint256",
          "name": "",
          "type": "uint256"
        }
      ],
      "stateMutability": "view",
      "type": "function"
    },
    {
      "inputs": [],
      "name": "proxiableUUID",
      "outputs": [
        {
          "internalType": "bytes32",
          "name": "",
          "type": "bytes32"
        }
      ],
      "stateMutability": "view",
      "type": "function"
    },
    {
      "inputs": [
        {
          "internalType": "address",
          "name": "account",
          "type": "address"
        }
      ],
      "name": "removeAdmin",
      "outputs": [],
      "stateMutability": "nonpayable",
      "type": "function"
    },
    {
      "inputs": [
        {
          "internalType": "address",
          "name": "token",
          "type": "address"
        }
      ],
      "name": "removeSupportedToken",
      "outputs": [],
      "stateMutability": "nonpayable",
      "type": "function"
    },
    {
      "inputs": [
        {
          "internalType": "bytes32",
          "name": "role",
          "type": "bytes32"
        },
        {
          "internalType": "address",
          "name": "callerConfirmation",
          "type": "address"
        }
      ],
      "name": "renounceRole",
      "outputs": [],
      "stateMutability": "nonpayable",
      "type": "function"
    },
    {
      "inputs": [
        {
          "internalType": "bytes32",
          "name": "role",
          "type": "bytes32"
        },
        {
          "internalType": "address",
          "name": "account",
          "type": "address"
        }
      ],
      "name": "revokeRole",
      "outputs": [],
      "stateMutability": "nonpayable",
      "type": "function"
    },
    {
      "inputs": [
        {
          "internalType": "address",
          "name": "",
          "type": "address"
        }
      ],
      "name": "supportedTokens",
      "outputs": [
        {
          "internalType": "bool",
          "name": "",
          "type": "bool"
        }
      ],
      "stateMutability": "view",
      "type": "function"
    },
    {
      "inputs": [
        {
          "internalType": "bytes4",
          "name": "interfaceId",
          "type": "bytes4"
        }
      ],
      "name": "supportsInterface",
      "outputs": [
        {
          "internalType": "bool",
          "name": "",
          "type": "bool"
        }
      ],
      "stateMutability": "view",
      "type": "function"
    },
    {
      "inputs": [],
      "name": "unpause",
      "outputs": [],
      "stateMutability": "nonpayable",
      "type": "function"
    },
    {
      "inputs": [
        {
          "internalType": "address",
          "name": "newRecipient",
          "type": "address"
        }
      ],
      "name": "updateFeeRecipient",
      "outputs": [],
      "stateMutability": "nonpayable",
      "type": "function"
    },
    {
      "inputs": [
        {
          "internalType": "uint256",
          "name": "newFeeBps",
          "type": "uint256"
        }
      ],
      "name": "updatePlatformFee",
      "outputs": [],
      "stateMutability": "nonpayable",
      "type": "function"
    },
    {
      "inputs": [
        {
          "internalType": "address",
          "name": "newImplementation",
          "type": "address"
        },
        {
          "internalType": "bytes",
          "name": "data",
          "type": "bytes"
        }
      ],
      "name": "upgradeToAndCall",
      "outputs": [],
      "stateMutability": "payable",
      "type": "function"
    }
  ],
  "bytecode": "0x60a06040523060805234801561001457600080fd5b506080516131c061003e60003960008181611e8001528181611ea9015261201601526131c06000f3fe60806040526004361061020f5760003560e01c806375b238fc11610118578063c128b231116100a0578063d547741f1161006f578063d547741f146107bf578063d9fc2672146107df578063e045243b14610817578063f160d36914610837578063f169bf071461085757600080fd5b8063c128b231146106b1578063c18b8db4146106d1578063c428f4fe1461077f578063c4d66de81461079f57600080fd5b80639299e552116100e75780639299e55214610609578063a217fddf14610629578063a5298c4a1461063e578063aa0b598814610653578063ad3cb1cc1461067357600080fd5b806375b238fc1461059257806376319190146105b45780638456cb59146105d457806391d14854146105e957600080fd5b8063469048401161019b5780635c975abb1161016a5780635c975abb146104dd57806368c4ac26146105025780636cf50d26146105325780636d69fcaf14610552578063704802751461057257600080fd5b806346904840146104505780634f1ef2861461048857806352d1902d1461049b57806357aad9db146104b057600080fd5b8063248a9ca3116101e2578063248a9ca3146103bb57806328a124ad146103db5780632f2ff15d146103fb57806336568abe1461041b5780633f4ba83a1461043b57600080fd5b806301ffc9a714610214578063175c0d16146102495780631785f53c1461037557806322dcd13e14610397575b600080fd5b34801561022057600080fd5b5061023461022f366004612b70565b61086a565b60405190151581526020015b60405180910390f35b34801561025557600080fd5b50610312610264366004612b9a565b6040805160e081018252600080825260208201819052918101829052606081018290526080810182905260a0810182905260c081019190915250600090815260026020818152604092839020835160e08101855281546001600160a01b03908116825260018301548116938201939093529281015493830193909352600383015416606082015260048201546080820152600582015460a082015260069091015460ff16151560c082015290565b604051610240919081516001600160a01b03908116825260208084015182169083015260408084015190830152606080840151909116908201526080808301519082015260a0828101519082015260c09182015115159181019190915260e00190565b34801561038157600080fd5b50610395610390366004612bc8565b6108a1565b005b3480156103a357600080fd5b506103ad60005481565b604051908152602001610240565b3480156103c757600080fd5b506103ad6103d6366004612b9a565b6108c8565b3480156103e757600080fd5b506102346103f6366004612b9a565b6108ea565b34801561040757600080fd5b50610395610416366004612be5565b610a0a565b34801561042757600080fd5b50610395610436366004612be5565b610a2c565b34801561044757600080fd5b50610395610a64565b34801561045c57600080fd5b50600154610470906001600160a01b031681565b6040516001600160a01b039091168152602001610240565b610395610496366004612c2b565b610aab565b3480156104a757600080fd5b506103ad610ac6565b3480156104bc57600080fd5b506104d06104cb366004612bc8565b610ae3565b6040516102409190612cef565b3480156104e957600080fd5b5060008051602061312b8339815191525460ff16610234565b34801561050e57600080fd5b5061023461051d366004612bc8565b60046020526000908152604090205460ff1681565b34801561053e57600080fd5b5061039561054d366004612d33565b610c34565b34801561055e57600080fd5b5061039561056d366004612bc8565b610c6f565b34801561057e57600080fd5b5061039561058d366004612bc8565b610cc7565b34801561059e57600080fd5b506103ad60008051602061316b83398151915281565b3480156105c057600080fd5b506103956105cf366004612bc8565b610cea565b3480156105e057600080fd5b50610395610da0565b3480156105f557600080fd5b50610234610604366004612be5565b610ddc565b34801561061557600080fd5b50610395610624366004612b9a565b610e14565b34801561063557600080fd5b506103ad600081565b34801561064a57600080fd5b506005546103ad565b34801561065f57600080fd5b5061039561066e366004612b9a565b610e40565b34801561067f57600080fd5b506106a4604051806040016040528060058152602001640352e302e360dc1b81525081565b6040516102409190612da9565b3480156106bd57600080fd5b506104d06106cc366004612ddc565b610ef0565b3480156106dd57600080fd5b5061073a6106ec366004612b9a565b600260208190526000918252604090912080546001820154928201546003830154600484015460058501546006909501546001600160a01b0394851696851695939490921692909160ff1687565b604080516001600160a01b0398891681529688166020880152860194909452949091166060840152608083015260a082019290925290151560c082015260e001610240565b34801561078b57600080fd5b5061039561079a366004612e4a565b610fde565b3480156107ab57600080fd5b506103956107ba366004612bc8565b6110ae565b3480156107cb57600080fd5b506103956107da366004612be5565b61123b565b3480156107eb57600080fd5b506103ad6107fa366004612eea565b600360209081526000928352604080842090915290825290205481565b34801561082357600080fd5b50610395610832366004612f16565b611257565b34801561084357600080fd5b50610395610852366004612bc8565b611362565b610395610865366004612b9a565b611402565b60006001600160e01b03198216637965db0b60e01b148061089b57506301ffc9a760e01b6001600160e01b03198316145b92915050565b60006108ac81611cf0565b6108c460008051602061316b8339815191528361123b565b5050565b600090815260008051602061310b833981519152602052604090206001015490565b6000818152600260208181526040808420815160e08101835281546001600160a01b039081168252600183015481169482019490945293810154918401919091526003810154909116606083015260048101546080830152600581015460a08301526006015460ff1615801560c083018190529061096c57508060a001514211155b8015610a03575080600001516001600160a01b031681602001516001600160a01b0316636352211e83604001516040518263ffffffff1660e01b81526004016109b791815260200190565b602060405180830381865afa1580156109d4573d6000803e3d6000fd5b505050506040513d601f19601f820116820180604052508101906109f89190612f6b565b6001600160a01b0316145b9392505050565b610a13826108c8565b610a1c81611cf0565b610a268383611cfa565b50505050565b6001600160a01b0381163314610a555760405163334bd91960e11b815260040160405180910390fd5b610a5f8282611d9f565b505050565b610a7c60008051602061316b83398151915233610ddc565b610aa15760405162461bcd60e51b8152600401610a9890612f88565b60405180910390fd5b610aa9611e1b565b565b610ab3611e75565b610abc82611f1a565b6108c48282611f4e565b6000610ad061200b565b506000805160206130eb83398151915290565b60606000805b600554811015610b5757836001600160a01b03166002600060058481548110610b1457610b14612fab565b600091825260208083209091015483528201929092526040019020600101546001600160a01b031603610b4f5781610b4b81612fd7565b9250505b600101610ae9565b5060008167ffffffffffffffff811115610b7357610b73612c15565b604051908082528060200260200182016040528015610b9c578160200160208202803683370190505b5090506000805b600554811015610c2a57600060058281548110610bc257610bc2612fab565b600091825260208083209091015480835260029091526040909120600101549091506001600160a01b03808916911603610c2157808484610c0281612fd7565b955081518110610c1457610c14612fab565b6020026020010181815250505b50600101610ba3565b5090949350505050565b610c3c612054565b610c44612085565b610c5185858585856120bd565b610c68600160008051602061314b83398151915255565b5050505050565b610c8760008051602061316b83398151915233610ddc565b610ca35760405162461bcd60e51b8152600401610a9890612f88565b6001600160a01b03166000908152600460205260409020805460ff19166001179055565b6000610cd281611cf0565b6108c460008051602061316b83398151915283610a0a565b610d0260008051602061316b83398151915233610ddc565b610d1e5760405162461bcd60e51b8152600401610a9890612f88565b6001600160a01b038116610d7f5760405162461bcd60e51b815260206004820152602260248201527f43616e6e6f742072656d6f7665206e617469766520746f6b656e20737570706f6044820152611c9d60f21b6064820152608401610a98565b6001600160a01b03166000908152600460205260409020805460ff19169055565b610db860008051602061316b83398151915233610ddc565b610dd45760405162461bcd60e51b8152600401610a9890612f88565b610aa9612698565b600091825260008051602061310b833981519152602090815260408084206001600160a01b0393909316845291905290205460ff1690565b610e1c612085565b610e2681336126e1565b610e3d600160008051602061314b83398151915255565b50565b610e5860008051602061316b83398151915233610ddc565b610e745760405162461bcd60e51b8152600401610a9890612f88565b6103e8811115610eb45760405162461bcd60e51b815260206004820152600b60248201526a4d6178203130252066656560a81b6044820152606401610a98565b60008190556040518181527f45610d581145924dd7090a5017e5f2b1d6f42213bb2e95707ff86846bbfcb1ca906020015b60405180910390a150565b600554606090808410610f1357505060408051600081526020810190915261089b565b6000610f1f8486612ff0565b905081811115610f2c5750805b6000610f388683613003565b67ffffffffffffffff811115610f5057610f50612c15565b604051908082528060200260200182016040528015610f79578160200160208202803683370190505b509050855b82811015610fd45760058181548110610f9957610f99612fab565b9060005260206000200154828883610fb19190613003565b81518110610fc157610fc1612fab565b6020908102919091010152600101610f7e565b5095945050505050565b610fe6612054565b610fee612085565b84821461103d5760405162461bcd60e51b815260206004820152601e60248201527f49447320616e6420707269636573206c656e677468206d69736d6174636800006044820152606401610a98565b60005b8581101561108d576110858888888481811061105e5761105e612fab565b905060200201358787878681811061107857611078612fab565b90506020020135866120bd565b600101611040565b506110a5600160008051602061314b83398151915255565b50505050505050565b60006110b86127b2565b805490915060ff600160401b820416159067ffffffffffffffff166000811580156110e05750825b905060008267ffffffffffffffff1660011480156110fd5750303b155b90508115801561110b575080155b156111295760405163f92ee8a960e01b815260040160405180910390fd5b845467ffffffffffffffff19166001178555831561115357845460ff60401b1916600160401b1785555b61115b6127db565b6111636127eb565b61116b6127eb565b6111736127eb565b60fa6000908155600180546001600160a01b0319166001600160a01b03891617815581805260046020527f17ef568e3e12ab5b9c7254a8d58478811de00f9e6eb34345acd53bf8fd09d3ec805460ff191690911790556111d39033611cfa565b506111ec60008051602061316b83398151915233611cfa565b50831561123357845460ff60401b19168555604051600181527fc7f505b2f371ae2175ee4913f4499e1f2633a7b5936321eed1cdaeb6115181d29060200160405180910390a15b505050505050565b611244826108c8565b61124d81611cf0565b610a268383611d9f565b61125f612085565b806112a35760405162461bcd60e51b8152602060048201526014602482015273139bc81d1bdad95b92591cc81c1c9bdd9a59195960621b6044820152606401610a98565b60005b8181101561134a576001600160a01b0384166000908152600360205260408120818585858181106112d9576112d9612fab565b9050602002013581526020019081526020016000205490506000801b81036113375760405162461bcd60e51b8152602060048201526011602482015270131a5cdd1a5b99c81b9bdd08199bdd5b99607a1b6044820152606401610a98565b61134181336126e1565b506001016112a6565b50610a5f600160008051602061314b83398151915255565b61137a60008051602061316b83398151915233610ddc565b6113965760405162461bcd60e51b8152600401610a9890612f88565b6001600160a01b0381166113e05760405162461bcd60e51b8152602060048201526011602482015270125b9d985b1a59081c9958da5c1a595b9d607a1b6044820152606401610a98565b600180546001600160a01b0319166001600160a01b0392909216919091179055565b61140a612054565b611412612085565b6000818152600260205260409020600681015460ff166114695760405162461bcd60e51b81526020600482015260126024820152714c697374696e67206e6f742061637469766560701b6044820152606401610a98565b80600501544211156114af5760405162461bcd60e51b815260206004820152600f60248201526e131a5cdd1a5b99c8195e1c1a5c9959608a1b6044820152606401610a98565b80546001600160a01b031633036115085760405162461bcd60e51b815260206004820152601860248201527f43616e6e6f742062757920796f7572206f776e206974656d00000000000000006044820152606401610a98565b8054600182015460028301546040516331a9108f60e11b815260048101919091526001600160a01b039283169290911690636352211e90602401602060405180830381865afa15801561155f573d6000803e3d6000fd5b505050506040513d601f19601f820116820180604052508101906115839190612f6b565b6001600160a01b0316146115d95760405162461bcd60e51b815260206004820152601d60248201527f53656c6c6572206e6f206c6f6e676572206f776e7320746865204e46540000006044820152606401610a98565b600481015460008054612710906115f09084613016565b6115fa919061302d565b60018401546040516301ffc9a760e01b815263152a902d60e11b600482015291925060009182916001600160a01b0316906301ffc9a790602401602060405180830381865afa158015611651573d6000803e3d6000fd5b505050506040513d601f19601f82011682018060405250810190611675919061304f565b156116ff576001850154600286015460405163152a902d60e11b81526001600160a01b0390921691632a55205a916116ba918890600401918252602082015260400190565b6040805180830381865afa1580156116d6573d6000803e3d6000fd5b505050506040513d601f19601f820116820180604052508101906116fa9190613071565b925090505b60008261170c8587613003565b6117169190613003565b60038701549091506001600160a01b031661188857843410156117725760405162461bcd60e51b8152602060048201526014602482015273125b9cdd59999a58da595b9d081c185e5b595b9d60621b6044820152606401610a98565b83156117b4576001546040516001600160a01b039091169085156108fc029086906000818181858888f193505050501580156117b2573d6000803e3d6000fd5b505b6000831180156117cc57506001600160a01b03821615155b15611809576040516001600160a01b0383169084156108fc029085906000818181858888f19350505050158015611807573d6000803e3d6000fd5b505b85546040516001600160a01b039091169082156108fc029083906000818181858888f19350505050158015611842573d6000803e3d6000fd5b508434111561188357336108fc6118598734613003565b6040518115909202916000818181858888f19350505050158015611881573d6000803e3d6000fd5b505b611c02565b34156118d65760405162461bcd60e51b815260206004820152601860248201527f4e6f206e617469766520746f6b656e20726571756972656400000000000000006044820152606401610a98565b60038601546040516323b872dd60e01b8152336004820152306024820152604481018790526001600160a01b039091169081906323b872dd906064016020604051808303816000875af1158015611931573d6000803e3d6000fd5b505050506040513d601f19601f82011682018060405250810190611955919061304f565b6119a15760405162461bcd60e51b815260206004820152601760248201527f5061796d656e74207472616e73666572206661696c65640000000000000000006044820152606401610a98565b8415611a6a5760015460405163a9059cbb60e01b81526001600160a01b039182166004820152602481018790529082169063a9059cbb906044016020604051808303816000875af11580156119fa573d6000803e3d6000fd5b505050506040513d601f19601f82011682018060405250810190611a1e919061304f565b611a6a5760405162461bcd60e51b815260206004820152601c60248201527f506c6174666f726d20666565207472616e73666572206661696c6564000000006044820152606401610a98565b600084118015611a8257506001600160a01b03831615155b15611b465760405163a9059cbb60e01b81526001600160a01b0384811660048301526024820186905282169063a9059cbb906044016020604051808303816000875af1158015611ad6573d6000803e3d6000fd5b505050506040513d601f19601f82011682018060405250810190611afa919061304f565b611b465760405162461bcd60e51b815260206004820152601760248201527f526f79616c7479207472616e73666572206661696c65640000000000000000006044820152606401610a98565b865460405163a9059cbb60e01b81526001600160a01b039182166004820152602481018490529082169063a9059cbb906044016020604051808303816000875af1158015611b98573d6000803e3d6000fd5b505050506040513d601f19601f82011682018060405250810190611bbc919061304f565b611c005760405162461bcd60e51b815260206004820152601560248201527414d95b1b195c881c185e5b595b9d0819985a5b1959605a1b6044820152606401610a98565b505b600186015486546002880154604051632142170760e11b81526001600160a01b03928316600482015233602482015260448101919091529116906342842e0e90606401600060405180830381600087803b158015611c5f57600080fd5b505af1158015611c73573d6000803e3d6000fd5b50505050611c80876127f3565b855460408051878152602081018790529081018590526001600160a01b0390911690339089907fda38a7a919ab0a9684c429dd79e2e021129c204df35dfcd9c0eba65ca24904f69060600160405180910390a4505050505050610e3d600160008051602061314b83398151915255565b610e3d81336128eb565b600060008051602061310b833981519152611d158484610ddc565b611d95576000848152602082815260408083206001600160a01b03871684529091529020805460ff19166001179055611d4b3390565b6001600160a01b0316836001600160a01b0316857f2f8788117e7eff1d82e926ec794901d17c78024a50270940304540a733656f0d60405160405180910390a4600191505061089b565b600091505061089b565b600060008051602061310b833981519152611dba8484610ddc565b15611d95576000848152602082815260408083206001600160a01b0387168085529252808320805460ff1916905551339287917ff6391f5c32d9c69d2a47ea670b442974b53935d1edc7fd64eb21e047a839171b9190a4600191505061089b565b611e23612924565b60008051602061312b833981519152805460ff191681557f5db9ee0a495bf2e6ff9c91a7834c1ba4fdd244a5e8aa4e537bd38aeae4b073aa335b6040516001600160a01b039091168152602001610ee5565b306001600160a01b037f0000000000000000000000000000000000000000000000000000000000000000161480611efc57507f00000000000000000000000000000000000000000000000000000000000000006001600160a01b0316611ef06000805160206130eb833981519152546001600160a01b031690565b6001600160a01b031614155b15610aa95760405163703e46dd60e11b815260040160405180910390fd5b611f3260008051602061316b83398151915233610ddc565b610e3d5760405162461bcd60e51b8152600401610a9890612f88565b816001600160a01b03166352d1902d6040518163ffffffff1660e01b8152600401602060405180830381865afa925050508015611fa8575060408051601f3d908101601f19168201909252611fa59181019061309f565b60015b611fd057604051634c9c8ce360e01b81526001600160a01b0383166004820152602401610a98565b6000805160206130eb833981519152811461200157604051632a87526960e21b815260048101829052602401610a98565b610a5f8383612954565b306001600160a01b037f00000000000000000000000000000000000000000000000000000000000000001614610aa95760405163703e46dd60e11b815260040160405180910390fd5b60008051602061312b8339815191525460ff1615610aa95760405163d93c066560e01b815260040160405180910390fd5b60008051602061314b8339815191528054600119016120b757604051633ee5aeb560e01b815260040160405180910390fd5b60029055565b600082116121015760405162461bcd60e51b815260206004820152601160248201527005072696365206d757374206265203e203607c1b6044820152606401610a98565b600081116121485760405162461bcd60e51b815260206004820152601460248201527304475726174696f6e206d757374206265203e20360641b6044820152606401610a98565b6001600160a01b03831660009081526004602052604090205460ff166121a85760405162461bcd60e51b815260206004820152601560248201527414185e5b595b9d081b9bdd081cdd5c1c1bdc9d1959605a1b6044820152606401610a98565b6040516331a9108f60e11b81526004810185905233906001600160a01b03871690636352211e90602401602060405180830381865afa1580156121ef573d6000803e3d6000fd5b505050506040513d601f19601f820116820180604052508101906122139190612f6b565b6001600160a01b0316146122555760405162461bcd60e51b81526020600482015260096024820152682737ba1037bbb732b960b91b6044820152606401610a98565b60405163e985e9c560e01b81523360048201523060248201526001600160a01b0386169063e985e9c590604401602060405180830381865afa15801561229f573d6000803e3d6000fd5b505050506040513d601f19601f820116820180604052508101906122c3919061304f565b8061233f575060405163020604bf60e21b81526004810185905230906001600160a01b0387169063081812fc90602401602060405180830381865afa158015612310573d6000803e3d6000fd5b505050506040513d601f19601f820116820180604052508101906123349190612f6b565b6001600160a01b0316145b61237a5760405162461bcd60e51b815260206004820152600c60248201526b139bdd08185c1c1c9bdd995960a21b6044820152606401610a98565b6001600160a01b03851660009081526003602090815260408083208784529091529020548015806123bd575060008181526002602052604090206006015460ff16155b6123fa5760405162461bcd60e51b815260206004820152600e60248201526d105b1c9958591e481b1a5cdd195960921b6044820152606401610a98565b6040516bffffffffffffffffffffffff1933606090811b8216602084015288901b166034820152604881018690524260688201526000906088016040516020818303038152906040528051906020012090506000834261245a9190612ff0565b90506040518060e00160405280336001600160a01b03168152602001896001600160a01b03168152602001888152602001876001600160a01b03168152602001868152602001828152602001600115158152506002600084815260200190815260200160002060008201518160000160006101000a8154816001600160a01b0302191690836001600160a01b0316021790555060208201518160010160006101000a8154816001600160a01b0302191690836001600160a01b031602179055506040820151816002015560608201518160030160006101000a8154816001600160a01b0302191690836001600160a01b031602179055506080820151816004015560a0820151816005015560c08201518160060160006101000a81548160ff02191690831515021790555090505081600360008a6001600160a01b03166001600160a01b0316815260200190815260200160002060008981526020019081526020016000208190555060058054905060066000848152602001908152602001600020819055506005829080600181540180825580915050600190039060005260206000200160009091909190915055876001600160a01b0316336001600160a01b0316837f192e2b5b1f4594bbc239ed354e6ff81c8b6adfd9e51bd58c2f4d5dd392c2fce08a8a8a8760405161267294939291909384526001600160a01b039290921660208401526040830152606082015260800190565b60405180910390a45050505050505050565b600160008051602061314b83398151915255565b6126a0612054565b60008051602061312b833981519152805460ff191660011781557f62e78cea01bee320cd4e420270b5ea74000d11b0c9f74754ebdbfc544b05a25833611e5d565b6000828152600260205260409020600681015460ff166127305760405162461bcd60e51b815260206004820152600a6024820152694e6f742061637469766560b01b6044820152606401610a98565b80546001600160a01b038381169116146127795760405162461bcd60e51b815260206004820152600a6024820152692737ba1039b2b63632b960b11b6044820152606401610a98565b612782836127f3565b60405183907f9210d6774ad7b502b3da4d2c233cb4913c6254bedbae89dfa93e0594a363975790600090a2505050565b6000807ff0c57e16840df040f15088dc2f81fe391c3923bec73e23a9662efc9c229c6a0061089b565b6127e36129aa565b610aa96129cf565b610aa96129aa565b60008181526002602081815260408084206006808201805460ff191690556001808301546001600160a01b031687526003855283872095830154875294845282862086905586865290925283205460058054929491939192909161285691613003565b8154811061286657612866612fab565b90600052602060002001549050806005838154811061288757612887612fab565b600091825260208083209091019290925582815260069091526040902082905560058054806128b8576128b86130b8565b60019003818190600052602060002001600090559055600660008581526020019081526020016000206000905550505050565b6128f58282610ddc565b6108c45760405163e2517d3f60e01b81526001600160a01b038216600482015260248101839052604401610a98565b60008051602061312b8339815191525460ff16610aa957604051638dfc202b60e01b815260040160405180910390fd5b61295d826129d7565b6040516001600160a01b038316907fbc7cd75a20ee27fd9adebab32041f755214dbc6bffa90cc0225b39da2e5c2d3b90600090a28051156129a257610a5f8282612a3c565b6108c4612ab2565b6129b2612ad1565b610aa957604051631afcd79f60e31b815260040160405180910390fd5b6126846129aa565b806001600160a01b03163b600003612a0d57604051634c9c8ce360e01b81526001600160a01b0382166004820152602401610a98565b6000805160206130eb83398151915280546001600160a01b0319166001600160a01b0392909216919091179055565b6060600080846001600160a01b031684604051612a5991906130ce565b600060405180830381855af49150503d8060008114612a94576040519150601f19603f3d011682016040523d82523d6000602084013e612a99565b606091505b5091509150612aa9858383612aeb565b95945050505050565b3415610aa95760405163b398979f60e01b815260040160405180910390fd5b6000612adb6127b2565b54600160401b900460ff16919050565b606082612b0057612afb82612b47565b610a03565b8151158015612b1757506001600160a01b0384163b155b15612b4057604051639996b31560e01b81526001600160a01b0385166004820152602401610a98565b5092915050565b805115612b575780518082602001fd5b60405163d6bda27560e01b815260040160405180910390fd5b600060208284031215612b8257600080fd5b81356001600160e01b031981168114610a0357600080fd5b600060208284031215612bac57600080fd5b5035919050565b6001600160a01b0381168114610e3d57600080fd5b600060208284031215612bda57600080fd5b8135610a0381612bb3565b60008060408385031215612bf857600080fd5b823591506020830135612c0a81612bb3565b809150509250929050565b634e487b7160e01b600052604160045260246000fd5b60008060408385031215612c3e57600080fd5b8235612c4981612bb3565b9150602083013567ffffffffffffffff80821115612c6657600080fd5b818501915085601f830112612c7a57600080fd5b813581811115612c8c57612c8c612c15565b604051601f8201601f19908116603f01168101908382118183101715612cb457612cb4612c15565b81604052828152886020848701011115612ccd57600080fd5b8260208601602083013760006020848301015280955050505050509250929050565b6020808252825182820181905260009190848201906040850190845b81811015612d2757835183529284019291840191600101612d0b565b50909695505050505050565b600080600080600060a08688031215612d4b57600080fd5b8535612d5681612bb3565b9450602086013593506040860135612d6d81612bb3565b94979396509394606081013594506080013592915050565b60005b83811015612da0578181015183820152602001612d88565b50506000910152565b6020815260008251806020840152612dc8816040850160208701612d85565b601f01601f19169190910160400192915050565b60008060408385031215612def57600080fd5b50508035926020909101359150565b60008083601f840112612e1057600080fd5b50813567ffffffffffffffff811115612e2857600080fd5b6020830191508360208260051b8501011115612e4357600080fd5b9250929050565b600080600080600080600060a0888a031215612e6557600080fd5b8735612e7081612bb3565b9650602088013567ffffffffffffffff80821115612e8d57600080fd5b612e998b838c01612dfe565b909850965060408a01359150612eae82612bb3565b90945060608901359080821115612ec457600080fd5b50612ed18a828b01612dfe565b989b979a50959894979596608090950135949350505050565b60008060408385031215612efd57600080fd5b8235612f0881612bb3565b946020939093013593505050565b600080600060408486031215612f2b57600080fd5b8335612f3681612bb3565b9250602084013567ffffffffffffffff811115612f5257600080fd5b612f5e86828701612dfe565b9497909650939450505050565b600060208284031215612f7d57600080fd5b8151610a0381612bb3565b6020808252600990820152682737ba1030b236b4b760b91b604082015260600190565b634e487b7160e01b600052603260045260246000fd5b634e487b7160e01b600052601160045260246000fd5b600060018201612fe957612fe9612fc1565b5060010190565b8082018082111561089b5761089b612fc1565b8181038181111561089b5761089b612fc1565b808202811582820484141761089b5761089b612fc1565b60008261304a57634e487b7160e01b600052601260045260246000fd5b500490565b60006020828403121561306157600080fd5b81518015158114610a0357600080fd5b6000806040838503121561308457600080fd5b825161308f81612bb3565b6020939093015192949293505050565b6000602082840312156130b157600080fd5b5051919050565b634e487b7160e01b600052603160045260246000fd5b600082516130e0818460208701612d85565b919091019291505056fe360894a13ba1a3210667c828492db98dca3e2076cc3735a920a3ca505d382bbc02dd7bc7dec4dceedda775e58dd541e08a116c6c53815c0bd028192f7b626800cd5ed15c6e187e77e9aee88184c21f4f2182ab5827cb3b7e07fbedcd63f033009b779b17422d0df92223018b32b4d1fa46e071723d6817e2486d003becc55f00a49807205ce4d355092ef5a8a18f56e8913cf4a201fbe287825b095693c21775a264697066735822122068193a7668893f5e2aeabff41a293c3202c84a19048f935a90c77b617fdd444464736f6c63430008160033",
  "linkReferences": {},
  "deployedLinkReferences": {}
}