{
  "_format": "hh-sol-artifact-1",
  "contractName": "GameMarketplaceV3",
  "sourceName": "contracts/GameMarketplaceV3.sol",
  "abi": [
    {
      "inputs": [],
      "name": "AccessControlBadConfirmation",
      "type": "error"
    },
    {
      "inputs": [
        {
          "internalType": "address",
          "name": "account",
          "type": "address"
        },
        {
          "internalType": "bytes32",
          "name": "neededRole",
          "type": "bytes32"
        }
      ],
      "name": "AccessControlUnauthorizedAccount",
      "type": "error"
    },
    {
      "inputs": [
        {
          "internalType": "address",
          "name": "target",
          "type": "address"
        }
      ],
      "name": "AddressEmptyCode",
      "type": "error"
    },
    {
      "inputs": [
        {
          "internalType": "address",
          "name": "implementation",
          "type": "address"
        }
      ],
      "name": "ERC1967InvalidImplementation",
      "type": "error"
    },
    {
      "inputs": [],
      "name": "ERC1967NonPayable",
      "type": "error"
    },
    {
      "inputs": [],
      "name": "EnforcedPause",
      "type": "error"
    },
    {
      "inputs": [],
      "name": "ExpectedPause",
      "type": "error"
    },
    {
      "inputs": [],
      "name": "FailedCall",
      "type": "error"
    },
    {
      "inputs": [],
      "name": "InvalidInitialization",
      "type": "error"
    },
    {
      "inputs": [],
      "name": "NotInitializing",
      "type": "error"
    },
    {
      "inputs": [],
      "name": "ReentrancyGuardReentrantCall",
      "type": "error"
    },
    {
      "inputs": [],
      "name": "UUPSUnauthorizedCallContext",
      "type": "error"
    },
    {
      "inputs": [
        {
          "internalType": "bytes32",
          "name": "slot",
          "type": "bytes32"
        }
      ],
      "name": "UUPSUnsupportedProxiableUUID",
      "type": "error"
    },
    {
      "anonymous": false,
      "inputs": [
        {
          "indexed": false,
          "internalType": "address",
          "name": "engine",
          "type": "address"
        }
      ],
      "name": "IncentiveEngineSet",
      "type": "event"
    },
    {
      "anonymous": false,
      "inputs": [
        {
          "indexed": true,
          "internalType": "bytes32",
          "name": "scope",
          "type": "bytes32"
        },
        {
          "indexed": true,
          "internalType": "address",
          "name": "buyer",
          "type": "address"
        },
        {
          "indexed": true,
          "internalType": "address",
          "name": "collection",
          "type": "address"
        },
        {
          "indexed": false,
          "internalType": "uint256",
          "name": "amount",
          "type": "uint256"
        }
      ],
      "name": "IncentivePoolForwarded",
      "type": "event"
    },
    {
      "anonymous": false,
      "inputs": [
        {
          "indexed": false,
          "internalType": "uint64",
          "name": "version",
          "type": "uint64"
        }
      ],
      "name": "Initialized",
      "type": "event"
    },
    {
      "anonymous": false,
      "inputs": [
        {
          "indexed": true,
          "internalType": "bytes32",
          "name": "listingId",
          "type": "bytes32"
        },
        {
          "indexed": true,
          "internalType": "address",
          "name": "seller",
          "type": "address"
        },
        {
          "indexed": true,
          "internalType": "address",
          "name": "nftContract",
          "type": "address"
        },
        {
          "indexed": false,
          "internalType": "uint256",
          "name": "tokenId",
          "type": "uint256"
        },
        {
          "indexed": false,
          "internalType": "address",
          "name": "paymentToken",
          "type": "address"
        },
        {
          "indexed": false,
          "internalType": "uint256",
          "name": "price",
          "type": "uint256"
        },
        {
          "indexed": false,
          "internalType": "uint256",
          "name": "expiresAt",
          "type": "uint256"
        }
      ],
      "name": "ItemListed",
      "type": "event"
    },
    {
      "anonymous": false,
      "inputs": [
        {
          "indexed": true,
          "internalType": "bytes32",
          "name": "listingId",
          "type": "bytes32"
        },
        {
          "indexed": true,
          "internalType": "address",
          "name": "buyer",
          "type": "address"
        },
        {
          "indexed": true,
          "internalType": "address",
          "name": "seller",
          "type": "address"
        },
        {
          "indexed": false,
          "internalType": "uint256",
          "name": "price",
          "type": "uint256"
        },
        {
          "indexed": false,
          "internalType": "uint256",
          "name": "platformFee",
          "type": "uint256"
        },
        {
          "indexed": false,
          "internalType": "uint256",
          "name": "royaltyFee",
          "type": "uint256"
        }
      ],
      "name": "ItemSold",
      "type": "event"
    },
    {
      "anonymous": false,
      "inputs": [
        {
          "indexed": true,
          "internalType": "bytes32",
          "name": "listingId",
          "type": "bytes32"
        }
      ],
      "name": "ListingCancelled",
      "type": "event"
    },
    {
      "anonymous": false,
      "inputs": [
        {
          "indexed": false,
          "internalType": "address",
          "name": "account",
          "type": "address"
        }
      ],
      "name": "Paused",
      "type": "event"
    },
    {
      "anonymous": false,
      "inputs": [
        {
          "indexed": false,
          "internalType": "uint256",
          "name": "newFeeBps",
          "type": "uint256"
        }
      ],
      "name": "PlatformFeeUpdated",
      "type": "event"
    },
    {
      "anonymous": false,
      "inputs": [
        {
          "indexed": true,
          "internalType": "address",
          "name": "collection",
          "type": "address"
        },
        {
          "indexed": false,
          "internalType": "uint16",
          "name": "bps",
          "type": "uint16"
        }
      ],
      "name": "PoolBpsSet",
      "type": "event"
    },
    {
      "anonymous": false,
      "inputs": [
        {
          "indexed": true,
          "internalType": "bytes32",
          "name": "role",
          "type": "bytes32"
        },
        {
          "indexed": true,
          "internalType": "bytes32",
          "name": "previousAdminRole",
          "type": "bytes32"
        },
        {
          "indexed": true,
          "internalType": "bytes32",
          "name": "newAdminRole",
          "type": "bytes32"
        }
      ],
      "name": "RoleAdminChanged",
      "type": "event"
    },
    {
      "anonymous": false,
      "inputs": [
        {
          "indexed": true,
          "internalType": "bytes32",
          "name": "role",
          "type": "bytes32"
        },
        {
          "indexed": true,
          "internalType": "address",
          "name": "account",
          "type": "address"
        },
        {
          "indexed": true,
          "internalType": "address",
          "name": "sender",
          "type": "address"
        }
      ],
      "name": "RoleGranted",
      "type": "event"
    },
    {
      "anonymous": false,
      "inputs": [
        {
          "indexed": true,
          "internalType": "bytes32",
          "name": "role",
          "type": "bytes32"
        },
        {
          "indexed": true,
          "internalType": "address",
          "name": "account",
          "type": "address"
        },
        {
          "indexed": true,
          "internalType": "address",
          "name": "sender",
          "type": "address"
        }
      ],
      "name": "RoleRevoked",
      "type": "event"
    },
    {
      "anonymous": false,
      "inputs": [
        {
          "indexed": false,
          "internalType": "address",
          "name": "account",
          "type": "address"
        }
      ],
      "name": "Unpaused",
      "type": "event"
    },
    {
      "anonymous": false,
      "inputs": [
        {
          "indexed": true,
          "internalType": "address",
          "name": "implementation",
          "type": "address"
        }
      ],
      "name": "Upgraded",
      "type": "event"
    },
    {
      "inputs": [],
      "name": "ADMIN_ROLE",
      "outputs": [
        {
          "internalType": "bytes32",
          "name": "",
          "type": "bytes32"
        }
      ],
      "stateMutability": "view",
      "type": "function"
    },
    {
      "inputs": [],
      "name": "DEFAULT_ADMIN_ROLE",
      "outputs": [
        {
          "internalType": "bytes32",
          "name": "",
          "type": "bytes32"
        }
      ],
      "stateMutability": "view",
      "type": "function"
    },
    {
      "inputs": [],
      "name": "UPGRADE_INTERFACE_VERSION",
      "outputs": [
        {
          "internalType": "string",
          "name": "",
          "type": "string"
        }
      ],
      "stateMutability": "view",
      "type": "function"
    },
    {
      "inputs": [
        {
          "internalType": "address",
          "name": "",
          "type": "address"
        },
        {
          "internalType": "uint256",
          "name": "",
          "type": "uint256"
        }
      ],
      "name": "activeListing",
      "outputs": [
        {
          "internalType": "bytes32",
          "name": "",
          "type": "bytes32"
        }
      ],
      "stateMutability": "view",
      "type": "function"
    },
    {
      "inputs": [
        {
          "internalType": "address",
          "name": "account",
          "type": "address"
        }
      ],
      "name": "addAdmin",
      "outputs": [],
      "stateMutability": "nonpayable",
      "type": "function"
    },
    {
      "inputs": [
        {
          "internalType": "address",
          "name": "token",
          "type": "address"
        }
      ],
      "name": "addSupportedToken",
      "outputs": [],
      "stateMutability": "nonpayable",
      "type": "function"
    },
    {
      "inputs": [
        {
          "internalType": "address",
          "name": "nftContract",
          "type": "address"
        },
        {
          "internalType": "uint256[]",
          "name": "tokenIds",
          "type": "uint256[]"
        }
      ],
      "name": "batchCancelListings",
      "outputs": [],
      "stateMutability": "nonpayable",
      "type": "function"
    },
    {
      "inputs": [
        {
          "internalType": "address",
          "name": "nftContract",
          "type": "address"
        },
        {
          "internalType": "uint256[]",
          "name": "tokenIds",
          "type": "uint256[]"
        },
        {
          "internalType": "address",
          "name": "paymentToken",
          "type": "address"
        },
        {
          "internalType": "uint256[]",
          "name": "prices",
          "type": "uint256[]"
        },
        {
          "internalType": "uint256",
          "name": "duration",
          "type": "uint256"
        }
      ],
      "name": "batchListItems",
      "outputs": [],
      "stateMutability": "nonpayable",
      "type": "function"
    },
    {
      "inputs": [
        {
          "internalType": "bytes32",
          "name": "listingId",
          "type": "bytes32"
        }
      ],
      "name": "buyItem",
      "outputs": [],
      "stateMutability": "payable",
      "type": "function"
    },
    {
      "inputs": [
        {
          "internalType": "bytes32",
          "name": "listingId",
          "type": "bytes32"
        }
      ],
      "name": "cancelAsCurrentOwnerById",
      "outputs": [],
      "stateMutability": "nonpayable",
      "type": "function"
    },
    {
      "inputs": [
        {
          "internalType": "address",
          "name": "nftContract",
          "type": "address"
        },
        {
          "internalType": "uint256",
          "name": "tokenId",
          "type": "uint256"
        }
      ],
      "name": "cancelAsCurrentOwnerByToken",
      "outputs": [],
      "stateMutability": "nonpayable",
      "type": "function"
    },
    {
      "inputs": [
        {
          "internalType": "bytes32",
          "name": "listingId",
          "type": "bytes32"
        }
      ],
      "name": "cancelListing",
      "outputs": [],
      "stateMutability": "nonpayable",
      "type": "function"
    },
    {
      "inputs": [],
      "name": "feeRecipient",
      "outputs": [
        {
          "internalType": "address",
          "name": "",
          "type": "address"
        }
      ],
      "stateMutability": "view",
      "type": "function"
    },
    {
      "inputs": [
        {
          "internalType": "uint256",
          "name": "offset",
          "type": "uint256"
        },
        {
          "internalType": "uint256",
          "name": "limit",
          "type": "uint256"
        }
      ],
      "name": "getActiveListings",
      "outputs": [
        {
          "internalType": "bytes32[]",
          "name": "",
          "type": "bytes32[]"
        }
      ],
      "stateMutability": "view",
      "type": "function"
    },
    {
      "inputs": [
        {
          "internalType": "bytes32",
          "name": "listingId",
          "type": "bytes32"
        }
      ],
      "name": "getListing",
      "outputs": [
        {
          "components": [
            {
              "internalType": "address",
              "name": "seller",
              "type": "address"
            },
            {
              "internalType": "address",
              "name": "nftContract",
              "type": "address"
            },
            {
              "internalType": "uint256",
              "name": "tokenId",
              "type": "uint256"
            },
            {
              "internalType": "address",
              "name": "paymentToken",
              "type": "address"
            },
            {
              "internalType": "uint256",
              "name": "price",
              "type": "uint256"
            },
            {
              "internalType": "uint256",
              "name": "expiresAt",
              "type": "uint256"
            },
            {
              "internalType": "bool",
              "name": "active",
              "type": "bool"
            }
          ],
          "internalType": "struct GameMarketplaceV3.Listing",
          "name": "",
          "type": "tuple"
        }
      ],
      "stateMutability": "view",
      "type": "function"
    },
    {
      "inputs": [
        {
          "internalType": "address",
          "name": "nftContract",
          "type": "address"
        }
      ],
      "name": "getListingsByNFTContract",
      "outputs": [
        {
          "internalType": "bytes32[]",
          "name": "",
          "type": "bytes32[]"
        }
      ],
      "stateMutability": "view",
      "type": "function"
    },
    {
      "inputs": [
        {
          "internalType": "bytes32",
          "name": "role",
          "type": "bytes32"
        }
      ],
      "name": "getRoleAdmin",
      "outputs": [
        {
          "internalType": "bytes32",
          "name": "",
          "type": "bytes32"
        }
      ],
      "stateMutability": "view",
      "type": "function"
    },
    {
      "inputs": [],
      "name": "getTotalActiveListings",
      "outputs": [
        {
          "internalType": "uint256",
          "name": "",
          "type": "uint256"
        }
      ],
      "stateMutability": "view",
      "type": "function"
    },
    {
      "inputs": [
        {
          "internalType": "bytes32",
          "name": "role",
          "type": "bytes32"
        },
        {
          "internalType": "address",
          "name": "account",
          "type": "address"
        }
      ],
      "name": "grantRole",
      "outputs": [],
      "stateMutability": "nonpayable",
      "type": "function"
    },
    {
      "inputs": [
        {
          "internalType": "bytes32",
          "name": "role",
          "type": "bytes32"
        },
        {
          "internalType": "address",
          "name": "account",
          "type": "address"
        }
      ],
      "name": "hasRole",
      "outputs": [
        {
          "internalType": "bool",
          "name": "",
          "type": "bool"
        }
      ],
      "stateMutability": "view",
      "type": "function"
    },
    {
      "inputs": [],
      "name": "incentiveEngine",
      "outputs": [
        {
          "internalType": "address",
          "name": "",
          "type": "address"
        }
      ],
      "stateMutability": "view",
      "type": "function"
    },
    {
      "inputs": [
        {
          "internalType": "address",
          "name": "_feeRecipient",
          "type": "address"
        }
      ],
      "name": "initialize",
      "outputs": [],
      "stateMutability": "nonpayable",
      "type": "function"
    },
    {
      "inputs": [
        {
          "internalType": "bytes32",
          "name": "listingId",
          "type": "bytes32"
        }
      ],
      "name": "isListingValid",
      "outputs": [
        {
          "internalType": "bool",
          "name": "",
          "type": "bool"
        }
      ],
      "stateMutability": "view",
      "type": "function"
    },
    {
      "inputs": [
        {
          "internalType": "address",
          "name": "nftContract",
          "type": "address"
        },
        {
          "internalType": "uint256",
          "name": "tokenId",
          "type": "uint256"
        },
        {
          "internalType": "address",
          "name": "paymentToken",
          "type": "address"
        },
        {
          "internalType": "uint256",
          "name": "price",
          "type": "uint256"
        },
        {
          "internalType": "uint256",
          "name": "duration",
          "type": "uint256"
        }
      ],
      "name": "listItem",
      "outputs": [],
      "stateMutability": "nonpayable",
      "type": "function"
    },
    {
      "inputs": [
        {
          "internalType": "bytes32",
          "name": "",
          "type": "bytes32"
        }
      ],
      "name": "listings",
      "outputs": [
        {
          "internalType": "address",
          "name": "seller",
          "type": "address"
        },
        {
          "internalType": "address",
          "name": "nftContract",
          "type": "address"
        },
        {
          "internalType": "uint256",
          "name": "tokenId",
          "type": "uint256"
        },
        {
          "internalType": "address",
          "name": "paymentToken",
          "type": "address"
        },
        {
          "internalType": "uint256",
          "name": "price",
          "type": "uint256"
        },
        {
          "internalType": "uint256",
          "name": "expiresAt",
          "type": "uint256"
        },
        {
          "internalType": "bool",
          "name": "active",
          "type": "bool"
        }
      ],
      "stateMutability": "view",
      "type": "function"
    },
    {
      "inputs": [],
      "name": "pause",
      "outputs": [],
      "stateMutability": "nonpayable",
      "type": "function"
    },
    {
      "inputs": [],
      "name": "paused",
      "outputs": [
        {
          "internalType": "bool",
          "name": "",
          "type": "bool"
        }
      ],
      "stateMutability": "view",
      "type": "function"
    },
    {
      "inputs": [],
      "name": "platformFeeBps",
      "outputs": [
        {
          "internalType": "uint256",
          "name": "",
          "type": "uint256"
        }
      ],
      "stateMutability": "view",
      "type": "function"
    },
    {
      "inputs": [
        {
          "internalType": "address",
          "name": "",
          "type": "address"
        }
      ],
      "name": "poolBps",
      "outputs": [
        {
          "internalType": "uint16",
          "name": "",
          "type": "uint16"
        }
      ],
      "stateMutability": "view",
      "type": "function"
    },
    {
      "inputs": [],
      "name": "proxiableUUID",
      "outputs": [
        {
          "internalType": "bytes32",
          "name": "",
          "type": "bytes32"
        }
      ],
      "stateMutability": "view",
      "type": "function"
    },
    {
      "inputs": [
        {
          "internalType": "address",
          "name": "account",
          "type": "address"
        }
      ],
      "name": "removeAdmin",
      "outputs": [],
      "stateMutability": "nonpayable",
      "type": "function"
    },
    {
      "inputs": [
        {
          "internalType": "address",
          "name": "token",
          "type": "address"
        }
      ],
      "name": "removeSupportedToken",
      "outputs": [],
      "stateMutability": "nonpayable",
      "type": "function"
    },
    {
      "inputs": [
        {
          "internalType": "bytes32",
          "name": "role",
          "type": "bytes32"
        },
        {
          "internalType": "address",
          "name": "callerConfirmation",
          "type": "address"
        }
      ],
      "name": "renounceRole",
      "outputs": [],
      "stateMutability": "nonpayable",
      "type": "function"
    },
    {
      "inputs": [
        {
          "internalType": "bytes32",
          "name": "role",
          "type": "bytes32"
        },
        {
          "internalType": "address",
          "name": "account",
          "type": "address"
        }
      ],
      "name": "revokeRole",
      "outputs": [],
      "stateMutability": "nonpayable",
      "type": "function"
    },
    {
      "inputs": [
        {
          "internalType": "address",
          "name": "_engine",
          "type": "address"
        }
      ],
      "name": "setIncentiveEngine",
      "outputs": [],
      "stateMutability": "nonpayable",
      "type": "function"
    },
    {
      "inputs": [
        {
          "internalType": "address",
          "name": "collection",
          "type": "address"
        },
        {
          "internalType": "uint16",
          "name": "bps",
          "type": "uint16"
        }
      ],
      "name": "setPoolBps",
      "outputs": [],
      "stateMutability": "nonpayable",
      "type": "function"
    },
    {
      "inputs": [
        {
          "internalType": "address",
          "name": "",
          "type": "address"
        }
      ],
      "name": "supportedTokens",
      "outputs": [
        {
          "internalType": "bool",
          "name": "",
          "type": "bool"
        }
      ],
      "stateMutability": "view",
      "type": "function"
    },
    {
      "inputs": [
        {
          "internalType": "bytes4",
          "name": "interfaceId",
          "type": "bytes4"
        }
      ],
      "name": "supportsInterface",
      "outputs": [
        {
          "internalType": "bool",
          "name": "",
          "type": "bool"
        }
      ],
      "stateMutability": "view",
      "type": "function"
    },
    {
      "inputs": [],
      "name": "unpause",
      "outputs": [],
      "stateMutability": "nonpayable",
      "type": "function"
    },
    {
      "inputs": [
        {
          "internalType": "address",
          "name": "newRecipient",
          "type": "address"
        }
      ],
      "name": "updateFeeRecipient",
      "outputs": [],
      "stateMutability": "nonpayable",
      "type": "function"
    },
    {
      "inputs": [
        {
          "internalType": "uint256",
          "name": "newFeeBps",
          "type": "uint256"
        }
      ],
      "name": "updatePlatformFee",
      "outputs": [],
      "stateMutability": "nonpayable",
      "type": "function"
    },
    {
      "inputs": [
        {
          "internalType": "address",
          "name": "newImplementation",
          "type": "address"
        },
        {
          "internalType": "bytes",
          "name": "data",
          "type": "bytes"
        }
      ],
      "name": "upgradeToAndCall",
      "outputs": [],
      "stateMutability": "payable",
      "type": "function"
    },
    {
      "inputs": [],
      "name": "version",
      "outputs": [
        {
          "internalType": "string",
          "name": "",
          "type": "string"
        }
      ],
      "stateMutability": "pure",
      "type": "function"
    }
  ],
  "bytecode": "0x60a0806040523461002a573060805261352a90816100308239608051818181611bab0152611c900152f35b600080fdfe608080604052600436101561001357600080fd5b600090813560e01c90816301ffc9a7146125d05750806306b4da07146124f8578063175c0d16146124055780631785f53c146123a85780631c71a03d1461227e57806322dcd13e14612261578063248a9ca31461222757806328a124ad146120f45780632f2ff15d146120a95780632fa7455b14611fb957806336568abe14611f715780633f4ba83a14611ec45780634690484014611e9b5780634f1ef28614611c1557806352d1902d14611b9857806354fd4d5014611b0a57806357aad9db14611a205780635c975abb146119f05780635d7e6068146119b257806368c4ac26146119735780636cf50d261461192c5780636d69fcaf146118b3578063704802751461185657806375b238fc1461182d57806376319190146117615780638456cb59146116c457806391d148541461166e5780639299e5521461163357806399abc8d1146114c55780639b3a17891461149c578063a217fddf14611480578063a5298c4a14611462578063aa0b5988146113a3578063ad3cb1cc1461133f578063c128b23114611298578063c18b8db41461121a578063c428f4fe1461110b578063c4d66de814610f6a578063d547741f14610f1b578063d9fc267214610ed8578063e045243b14610dea578063f160d36914610d355763f169bf07146101fa57600080fd5b6020366003190112610d325761020e612e46565b610216612a1a565b600435815260026020526040812060ff60068201541615610cf85760058101544211610cc15780546001600160a01b031690338214610c7c5760018060a01b036001820154166002820154926040516331a9108f60e11b8152846004820152602081602481865afa908115610bd3578691610c42575b506001600160a01b031603610bfd576004820154916127106102af865485612964565b049385928691604051906301ffc9a760e01b825263152a902d60e11b91826004820152602081602481875afa908115610a8f578a91610bde575b50610b57575b505086526008602052604086205461ffff1680610b43575085905b6103218261031c8661031c8a8a612947565b612947565b60038401546001600160a01b031680610673575085341061063757879182868980158015610602575b505090918115908115806105f0575b6105b3575b505050508015908115610579575b50505080151580610565575b6104aa575b50823411610479575b60018101548154600283015487926001600160a01b03908116921690823b1561047557604051632142170760e11b81526001600160a01b0392909216600483015233602483015260448201529082908290606490829084905af1801561046a57610452575b50506103f8600435612a4a565b60018060a01b03905416926040519283526020830152604082015233907fda38a7a919ab0a9684c429dd79e2e021129c204df35dfcd9c0eba65ca24904f6606060043592a460016000805160206134b58339815191525580f35b61045b9061269d565b6104665784386103eb565b8480fd5b6040513d84823e3d90fd5b8380fd5b848080806104878734612947565b8181156104a1575b3390f1610386576040513d86823e3d90fd5b506108fc61048f565b600182015460075483546001600160a01b039283169392899281169116813b1561056157839160648492604051948593849263066b914360e11b84528a600485015233602485015260448401525af1801561046a57610549575b505060018301546040519182526001600160a01b03169133917fbcb83a4e2cf6affde8ebc2c53f63f25544200a4cd7f82b6c063da57163e3541690602090a43861037d565b6105529061269d565b61055d578638610504565b8680fd5b8280fd5b506007546001600160a01b03161515610378565b82809291819260018060a01b038854169083906105aa575bf11561059f5785388061036c565b6040513d87823e3d90fd5b506108fc610591565b83928392839283916105e6575b6001600160a01b031690f1156105d9578185388061035e565b50604051903d90823e3d90fd5b6108fc91506105c0565b506001600160a01b0381161515610359565b6001548493508392839290916001600160a01b031690839061062e575bf11561046a578286893861034a565b506108fc61061f565b60405162461bcd60e51b8152602060048201526014602482015273125b9cdd59999a58da595b9d081c185e5b595b9d60621b6044820152606490fd5b929134610afe576040516323b872dd60e01b8152336004820152306024820152604481018890526020816064818d895af1908115610a8f578a91610adf575b5015610a9a578590886109dc575b811515806109ca575b61091a575b505080610876575b5080151580610862575b6106ec575b5050610386565b600183015460075460405163095ea7b360e01b81526001600160a01b03918216600482015260248101849052911692602090829060449082908c905af19081156107f2578891610833575b50156107fd57600754600184015484546001600160a01b03928316928a929181169116833b156105615760849083604051958694859363ab82294960e01b8552600485015233602485015260448401528760648401525af180156107f2576107df575b5060018301546040519182526001600160a01b03169133917fbcb83a4e2cf6affde8ebc2c53f63f25544200a4cd7f82b6c063da57163e3541690602090a438806106e5565b6107eb9097919761269d565b953861079a565b6040513d8a823e3d90fd5b60405162461bcd60e51b815260206004820152600e60248201526d105c1c1c9bdd994819985a5b195960921b6044820152606490fd5b610855915060203d60201161085b575b61084d81836126b0565b810190612977565b38610737565b503d610843565b506007546001600160a01b031615156106e0565b835460405163a9059cbb60e01b81526001600160a01b03909116600482015260248101919091526020816044818b875af19081156107f25788916108fb575b50156108c157386106d6565b60405162461bcd60e51b815260206004820152601260248201527114d95b1b195c881e19995c8819985a5b195960721b6044820152606490fd5b610914915060203d60201161085b5761084d81836126b0565b386108b5565b60405163a9059cbb60e01b81526001600160a01b0391909116600482015260248101919091526020816044818c885af19081156109bf5789916109a0575b50156109655784386106ce565b60405162461bcd60e51b8152602060048201526013602482015272149bde585b1d1e481e19995c8819985a5b1959606a1b6044820152606490fd5b6109b9915060203d60201161085b5761084d81836126b0565b38610958565b6040513d8b823e3d90fd5b506001600160a01b03811615156106c9565b60015460405163a9059cbb60e01b81526001600160a01b039091166004820152602481018a90529091506020816044818d895af1908115610a8f578a91610a70575b5015610a2b5785906106c0565b60405162461bcd60e51b815260206004820152601860248201527f506c6174666f726d206665652078666572206661696c656400000000000000006044820152606490fd5b610a89915060203d60201161085b5761084d81836126b0565b38610a1e565b6040513d8c823e3d90fd5b60405162461bcd60e51b815260206004820152601760248201527f5061796d656e74207472616e73666572206661696c65640000000000000000006044820152606490fd5b610af8915060203d60201161085b5761084d81836126b0565b386106b2565b60405162461bcd60e51b815260206004820152601860248201527f4e6f206e617469766520746f6b656e20726571756972656400000000000000006044820152606490fd5b610b506127109186612964565b049061030a565b91925093506040519384526004840152836024840152604083604481845afa8015610bd35786938791610b8f575b50929038806102ef565b9350506040833d604011610bcb575b81610bab604093836126b0565b81010312610bc7576020610bbe84612819565b93015138610b85565b8580fd5b3d9150610b9e565b6040513d88823e3d90fd5b610bf7915060203d60201161085b5761084d81836126b0565b386102e9565b60405162461bcd60e51b815260206004820152601d60248201527f53656c6c6572206e6f206c6f6e676572206f776e7320746865204e46540000006044820152606490fd5b90506020813d602011610c74575b81610c5d602093836126b0565b81010312610bc757610c6e90612819565b3861028c565b3d9150610c50565b60405162461bcd60e51b815260206004820152601860248201527f43616e6e6f742062757920796f7572206f776e206974656d00000000000000006044820152606490fd5b60405162461bcd60e51b815260206004820152600f60248201526e131a5cdd1a5b99c8195e1c1a5c9959608a1b6044820152606490fd5b60405162461bcd60e51b81526020600482015260126024820152714c697374696e67206e6f742061637469766560701b6044820152606490fd5b80fd5b5034610d32576020366003190112610d3257610d4f612625565b6000805160206134d5833981519152825260008051602061347583398151915260205260408220338352602052610d8c60ff6040842054166127a1565b6001600160a01b03168015610db1576001600160601b0360a01b600154161760015580f35b60405162461bcd60e51b8152602060048201526011602482015270125b9d985b1a59081c9958da5c1a595b9d607a1b6044820152606490fd5b5034610d32576040366003190112610d3257610e04612625565b6024356001600160401b03811161056157610e23903690600401612771565b610e2b612a1a565b8015610e9c576001600160a01b0390921691835b818110610e5c578460016000805160206134b58339815191525580f35b6001908486526020600381526040872090610e78838688612954565b35885252610e966040872054610e8f8115156127d9565b339061330d565b01610e3f565b60405162461bcd60e51b8152602060048201526014602482015273139bc81d1bdad95b92591cc81c1c9bdd9a59195960621b6044820152606490fd5b5034610d32576040366003190112610d32576020906040906001600160a01b03610f00612625565b16815260038352818120602435825283522054604051908152f35b5034610d32576040366003190112610d3257610f66600435610f3b612640565b90808452600080516020613475833981519152602052610f6160016040862001546129e7565b612dc3565b5080f35b5034610d32576020366003190112610d3257610f84612625565b7ff0c57e16840df040f15088dc2f81fe391c3923bec73e23a9662efc9c229c6a0080549160ff8360401c1615906001600160401b03841693841580611104575b600180961490816110fa575b1590816110f1575b506110df5767ffffffffffffffff19811685178455826110c0575b50610ffc6133d0565b6110046133d0565b836000805160206134b58339815191525561101d6133d0565b6110256133d0565b61102d6133d0565b60fa855583546001600160a01b0319166001600160a01b0391909116178355838052600460205260408420805460ff19168417905561106b33612bf4565b5061107533612b44565b5061107e578280f35b805468ff0000000000000000191690556040519081527fc7f505b2f371ae2175ee4913f4499e1f2633a7b5936321eed1cdaeb6115181d290602090a138808280f35b68ffffffffffffffffff19166801000000000000000117835538610ff3565b60405163f92ee8a960e01b8152600490fd5b90501538610fd8565b303b159150610fd0565b5082610fc4565b5034610d325760a0366003190112610d3257611125612625565b6001600160401b03919060243583811161056157611147903690600401612771565b9091611151612656565b946064359081116104665761116a903690600401612771565b959060843593611178612e46565b611180612a1a565b8781036111d557865b8181106111a6578760016000805160206134b58339815191525580f35b806111cf878b876111c7856111bf6001988f8b90612954565b35938a612954565b35918a612e71565b01611189565b60405162461bcd60e51b815260206004820152601e60248201527f49447320616e6420707269636573206c656e677468206d69736d6174636800006044820152606490fd5b5034610d32576020366003190112610d3257604060e091600435815260026020522060018060a01b038082541691816001820154169160028201549060038301541660048301549160ff600660058601549501541694604051968752602087015260408601526060850152608084015260a0830152151560c0820152f35b5034610d32576040366003190112610d32576005546004358181111561133457506112da81805b6112cb6024358361293a565b9080821161132c575b50612947565b906112e4826128f4565b925b8281106112ff57604051806112fb8682612735565b0390f35b8061131461130f6001938561293a565b61286b565b90549060031b1c6113258287612926565b52016112e6565b9050386112d4565b6112da9080926112bf565b5034610d325780600319360112610d3257604051604081018181106001600160401b0382111761138f576112fb925060405260058152640352e302e360dc1b6020820152604051918291826126ec565b634e487b7160e01b83526041600452602483fd5b5034610d32576020366003190112610d32576004356000805160206134d58339815191528252600080516020613475833981519152602052604082203383526020526113f560ff6040842054166127a1565b6103e8811161142f576020817f45610d581145924dd7090a5017e5f2b1d6f42213bb2e95707ff86846bbfcb1ca928455604051908152a180f35b60405162461bcd60e51b815260206004820152600b60248201526a4d6178203130252066656560a81b6044820152606490fd5b5034610d325780600319360112610d32576020600554604051908152f35b5034610d325780600319360112610d3257602090604051908152f35b5034610d325780600319360112610d32576007546040516001600160a01b039091168152602090f35b5034610d32576040366003190112610d32576114df612625565b6024356114ea612a1a565b6040516331a9108f60e11b8152600481018290526001600160a01b0392831692602091908282602481885afa908115610bd35786916115fb575b611531925016331461282d565b8284526003815260408420828552815260408420549283156115c25783855260028252604085206006015460ff16156115a95750505061157081612a4a565b7f9210d6774ad7b502b3da4d2c233cb4913c6254bedbae89dfa93e0594a36397578280a260016000805160206134b58339815191525580f35b8452600381526040842091845252816040812055611570565b60405162461bcd60e51b815260048101839052601160248201527027379030b1ba34bb32903837b4b73a32b960791b6044820152606490fd5b90508282813d831161162c575b61161281836126b0565b81010312610bc75761162661153192612819565b90611524565b503d611608565b5034610d32576020366003190112610d325761164d612a1a565b6116593360043561330d565b60016000805160206134b58339815191525580f35b5034610d32576040366003190112610d325760ff604060209261168f612640565b600435825260008051602061347583398151915285528282206001600160a01b03909116825284522054604051911615158152f35b5034610d325780600319360112610d32576000805160206134d583398151915281526000805160206134758339815191526020526040812033825260205261171260ff6040832054166127a1565b61171a612e46565b600080516020613495833981519152600160ff198254161790557f62e78cea01bee320cd4e420270b5ea74000d11b0c9f74754ebdbfc544b05a2586020604051338152a180f35b5034610d32576020366003190112610d325761177b612625565b6000805160206134d58339815191528252600080516020613475833981519152602052604082203383526020526117b860ff6040842054166127a1565b6001600160a01b031680156117dd578152600460205260408120805460ff1916905580f35b60405162461bcd60e51b815260206004820152602260248201527f43616e6e6f742072656d6f7665206e617469766520746f6b656e20737570706f6044820152611c9d60f21b6064820152608490fd5b5034610d325780600319360112610d325760206040516000805160206134d58339815191528152f35b5034610d32576020366003190112610d3257610f66611873612625565b61187b61298f565b6000805160206134d583398151915283526000805160206134758339815191526020526118ae60016040852001546129e7565b612b44565b5034610d32576020366003190112610d32576118cd612625565b6000805160206134d583398151915282526000805160206134758339815191526020526040822033835260205261190a60ff6040842054166127a1565b6001600160a01b03168152600460205260408120805460ff1916600117905580f35b5034610d325760a0366003190112610d3257611659611949612625565b611951612656565b9061195a612e46565b611962612a1a565b608435916064359160243590612e71565b5034610d32576020366003190112610d325760209060ff906040906001600160a01b0361199e612625565b168152600484522054166040519015158152f35b5034610d32576020366003190112610d325760209061ffff906040906001600160a01b036119de612625565b16815260088452205416604051908152f35b5034610d325780600319360112610d3257602060ff60008051602061349583398151915254166040519015158152f35b5034610d32576020906020600319360112610d3257611a3d612625565b6005546001600160a01b039390929091841681805b858110611ac75750611a63906128f4565b9482805b868110611a7c57604051806112fb8a82612735565b80611a8860019261286b565b90549060031b1c808452600288528585846040872001541614611aad575b5001611a67565b611ac0611ab9886128b8565b978b612926565b5238611aa6565b611ad08161286b565b90549060031b1c845260028552828760016040872001541614611af6575b600101611a52565b90611b026001916128b8565b919050611aee565b5034610d325780600319360112610d3257604051606081018181106001600160401b0382111761138f576112fb9250604052603781527f47616d654d61726b6574706c6163652056332028726562617365202b20696e6360208201527f656e7469766520706f6f6c20666f7277617264696e67290000000000000000006040820152604051918291826126ec565b5034610d325780600319360112610d32577f00000000000000000000000000000000000000000000000000000000000000006001600160a01b03163003611c035760206040517f360894a13ba1a3210667c828492db98dca3e2076cc3735a920a3ca505d382bbc8152f35b60405163703e46dd60e11b8152600490fd5b506040366003190112610d3257611c2a612625565b60249182356001600160401b038111611e975736602382011215611e97578060040135611c56816126d1565b93611c6460405195866126b0565b8185526020918286019336888383010111610bc757818692898693018737870101526001600160a01b037f00000000000000000000000000000000000000000000000000000000000000008116308114908115611e69575b50611c03576000805160206134d583398151915285526000805160206134758339815191528352604085203386528352611cfc60ff6040872054166127a1565b8116946040516352d1902d60e01b815283816004818a5afa869181611e3a575b50611d3957604051634c9c8ce360e01b8152600481018890528890fd5b8690887f360894a13ba1a3210667c828492db98dca3e2076cc3735a920a3ca505d382bbc91828103611e255750843b15611e0f575080546001600160a01b031916821790556040518692917fbc7cd75a20ee27fd9adebab32041f755214dbc6bffa90cc0225b39da2e5c2d3b8480a2815115611df15750610f669482915190845af4903d15611de8573d611dcc816126d1565b90611dda60405192836126b0565b81528581943d92013e613411565b60609250613411565b94505050505034611e00575080f35b63b398979f60e01b8152600490fd5b604051634c9c8ce360e01b815260048101849052fd5b60405190632a87526960e21b82526004820152fd5b9091508481813d8311611e62575b611e5281836126b0565b8101031261055d57519038611d1c565b503d611e48565b9050817f360894a13ba1a3210667c828492db98dca3e2076cc3735a920a3ca505d382bbc5416141538611cbc565b5080fd5b5034610d325780600319360112610d32576001546040516001600160a01b039091168152602090f35b5034610d325780600319360112610d32576000805160206134d5833981519152815260008051602061347583398151915260205260408120338252602052611f1260ff6040832054166127a1565b600080516020613495833981519152805460ff811615611f5f5760ff191690557f5db9ee0a495bf2e6ff9c91a7834c1ba4fdd244a5e8aa4e537bd38aeae4b073aa6020604051338152a180f35b604051638dfc202b60e01b8152600490fd5b5034610d32576040366003190112610d3257611f8b612640565b336001600160a01b03821603611fa757610f6690600435612dc3565b60405163334bd91960e11b8152600490fd5b5034610d32576040366003190112610d3257611fd3612625565b6024359061ffff8216809203610561576000805160206134d583398151915283526000805160206134758339815191526020526040832033845260205261202060ff6040852054166127a1565b6127108211612079576001600160a01b0316808352600860209081526040808520805461ffff1916851790555192835290917f94837d7e85b9a9cf58d3647202ff87dc07d754bcdba6b356cc8d7093cb3e92c09190a280f35b60405162461bcd60e51b81526020600482015260086024820152676270733e3130302560c01b6044820152606490fd5b5034610d32576040366003190112610d3257610f666004356120c9612640565b908084526000805160206134758339815191526020526120ef60016040862001546129e7565b612c94565b5034610d325760209081600319360112610d325760043581526002825260408120906040516121228161266c565b60018060a01b03908184541681528160018501541680868301528560028601548060408501528460038801541660608501526004870154608085015260ff60066005890154988960a08801520154161515968760c08601528761221c575b5086612192575b506040518615158152f35b909192939495506024604051809481936331a9108f60e11b835260048301525afa9384156122105780946121d5575b505081905116911614388080808581612187565b909193508482813d8311612209575b6121ee81836126b0565b81010312610d3257506122018291612819565b9290386121c1565b503d6121e4565b604051903d90823e3d90fd5b421115965038612180565b5034610d32576020366003190112610d32576001604060209260043581526000805160206134758339815191528452200154604051908152f35b5034610d325780600319360112610d325760209054604051908152f35b5034610d3257602080600319360112611e97576004359061229d612a1a565b818352600281526040832060018101546001600160a01b039291908316906122c68215156127d9565b60028101546040516331a9108f60e11b81526004810182905290948482602481875afa9081156107f257889161236c575b612304925016331461282d565b8186526003835260408620848752835284604087205403612337576006015460ff16156115a95750505061157081612a4a565b60405162461bcd60e51b815260048101849052600d60248201526c29ba30b632903837b4b73a32b960991b6044820152606490fd5b90508482813d83116123a1575b61238381836126b0565b8101031261239d5761239761230492612819565b906122f7565b8780fd5b503d612379565b5034610d32576020366003190112610d3257610f666123c5612625565b6123cd61298f565b6000805160206134d5833981519152835260008051602061347583398151915260205261240060016040852001546129e7565b612d1b565b5034610d32576020366003190112610d325760408160e09260c0835161242a8161266c565b82815282602082015282858201528260608201528260808201528260a0820152015260043581526002602052206040516124638161266c565b60018060a01b03918281541692838352806001830154169060208401918252600283015460408501908152816003850154169060608601918252826004860154946080880195865260c060ff600660058a01549960a08c019a8b520154169801971515885260405198895251166020880152516040870152511660608501525160808401525160a083015251151560c0820152f35b5034610d32576020366003190112610d3257612512612625565b6000805160206134d583398151915282526000805160206134758339815191526020526040822033835260205261254f60ff6040842054166127a1565b6001600160a01b031680156125a0576020817f4659bda312a6a682f252b3281a8f120398e53fcdd4dce9eaa48d27a826eb8ed5926001600160601b0360a01b6007541617600755604051908152a180f35b60405162461bcd60e51b81526020600482015260086024820152670656e67696e653d360c41b6044820152606490fd5b905034611e97576020366003190112611e975760043563ffffffff60e01b81168091036105615760209250637965db0b60e01b8114908115612614575b5015158152f35b6301ffc9a760e01b1490503861260d565b600435906001600160a01b038216820361263b57565b600080fd5b602435906001600160a01b038216820361263b57565b604435906001600160a01b038216820361263b57565b60e081019081106001600160401b0382111761268757604052565b634e487b7160e01b600052604160045260246000fd5b6001600160401b03811161268757604052565b90601f801991011681019081106001600160401b0382111761268757604052565b6001600160401b03811161268757601f01601f191660200190565b6020808252825181830181905290939260005b82811061272157505060409293506000838284010152601f8019910116010190565b8181018601518482016040015285016126ff565b602090602060408183019282815285518094520193019160005b82811061275d575050505090565b83518552938101939281019260010161274f565b9181601f8401121561263b578235916001600160401b03831161263b576020808501948460051b01011161263b57565b156127a857565b60405162461bcd60e51b81526020600482015260096024820152682737ba1030b236b4b760b91b6044820152606490fd5b156127e057565b60405162461bcd60e51b8152602060048201526011602482015270131a5cdd1a5b99c81b9bdd08199bdd5b99607a1b6044820152606490fd5b51906001600160a01b038216820361263b57565b1561283457565b60405162461bcd60e51b815260206004820152600f60248201526e2737ba103a37b5b2b71037bbb732b960891b6044820152606490fd5b6005548110156128a25760056000527f036b6384b5eca791c62761152d0c79bb0604c104a5fb6f4eb0703f3154bb3db00190600090565b634e487b7160e01b600052603260045260246000fd5b60001981146128c75760010190565b634e487b7160e01b600052601160045260246000fd5b6001600160401b0381116126875760051b60200190565b906128fe826128dd565b61290b60405191826126b0565b828152809261291c601f19916128dd565b0190602036910137565b80518210156128a25760209160051b010190565b919082018092116128c757565b919082039182116128c757565b91908110156128a25760051b0190565b818102929181159184041417156128c757565b9081602091031261263b5751801515810361263b5790565b3360009081527fb7db2dd08fcb62d0c9e08c51941cae53c267786a0b75803fb7960902fc8ef97d602052604081205460ff16156129c95750565b6044906040519063e2517d3f60e01b82523360048301526024820152fd5b8060005260008051602061347583398151915260205260406000203360005260205260ff60406000205416156129c95750565b6000805160206134b58339815191526002815414612a385760029055565b604051633ee5aeb560e01b8152600490fd5b6000908082526020600281526040918284206006810160ff19815416905560018060a01b03600182015416855260038352600284862091015485528252838381205580845260068252828420546005549060001991828101908111612b3057612ab29061286b565b90549060031b1c80612add612ac68461286b565b819391549060031b91821b91600019901b19161790565b9055865260068452848620556005548015612b1c57908060069493920190612b048261286b565b909182549160031b1b19169055600555845252812055565b634e487b7160e01b86526031600452602486fd5b634e487b7160e01b87526011600452602487fd5b6001600160a01b031660008181527fb16e88c42fd4e48df2dd6a2eabd6bc9aec654ec170056b470819f8892cc6431c60205260408120549091906000805160206134d5833981519152906000805160206134758339815191529060ff16612bee578184526020526040832082845260205260408320600160ff198254161790557f2f8788117e7eff1d82e926ec794901d17c78024a50270940304540a733656f0d339380a4600190565b50505090565b6001600160a01b031660008181527fb7db2dd08fcb62d0c9e08c51941cae53c267786a0b75803fb7960902fc8ef97d60205260408120549091906000805160206134758339815191529060ff16612c8f578280526020526040822081835260205260408220600160ff1982541617905533917f2f8788117e7eff1d82e926ec794901d17c78024a50270940304540a733656f0d8180a4600190565b505090565b9060009180835260008051602061347583398151915280602052604084209260018060a01b03169283855260205260ff60408520541615600014612bee578184526020526040832082845260205260408320600160ff198254161790557f2f8788117e7eff1d82e926ec794901d17c78024a50270940304540a733656f0d339380a4600190565b6001600160a01b031660008181527fb16e88c42fd4e48df2dd6a2eabd6bc9aec654ec170056b470819f8892cc6431c60205260408120549091906000805160206134d5833981519152906000805160206134758339815191529060ff1615612bee57818452602052604083208284526020526040832060ff1981541690557ff6391f5c32d9c69d2a47ea670b442974b53935d1edc7fd64eb21e047a839171b339380a4600190565b9060009180835260008051602061347583398151915280602052604084209260018060a01b03169283855260205260ff604085205416600014612bee57818452602052604083208284526020526040832060ff1981541690557ff6391f5c32d9c69d2a47ea670b442974b53935d1edc7fd64eb21e047a839171b339380a4600190565b60ff6000805160206134958339815191525416612e5f57565b60405163d93c066560e01b8152600490fd5b94939291909180156132d45783156132985760018060a01b0380921693600094808652600460209080825260409360ff858a2054161561325e5784516331a9108f60e11b81528281018990528b8816996024929091858185818f5afa9081156131d4578391613229575b5089339116036131fb57865163e985e9c560e01b81523385820152308482015285816044818f5afa9081156131d45783916131de575b50801561316d575b1561313c578a8252600385528682208a83528552868220548015908115613124575b50156130f15760a09c87519d8e878101923360601b84526001600160601b03199060601b1660348201528c604882015242606882015260688152019d8e6001600160401b038282109111176130de579a898d9e9f8a93839f9e8b9286525190209d8e954290612fa99161293a565b9d8e9481875197612fb98961266c565b3389528d8901948552808901928352606089019586526080890196875260a089019788528d60c08a019a60018c528c52600290528a20975116926001600160601b0360a01b9384895416178855826001890191511684825416179055516002870155600386019251169082541617905551868301555160058201556006019051151560ff198254169060ff161790558a8152600384528581208a82528452888682205560055492898252600685528387832055680100000000000000008410156130ce57505050613094612ac68260018a940160055561286b565b9055825196875286015284015260608301527f192e2b5b1f4594bbc239ed354e6ff81c8b6adfd9e51bd58c2f4d5dd392c2fce060803393a4565b634e487b7160e01b825260419052fd5b5050634e487b7160e01b82525060418352fd5b865162461bcd60e51b8152808501869052600e818501526d105b1c9958591e481b1a5cdd195960921b6044820152606490fd5b835250600285528682206006015460ff161538612f3b565b865162461bcd60e51b8152808501869052600c818501526b139bdd08185c1c1c9bdd995960a21b6044820152606490fd5b50865163020604bf60e21b81528481018b9052858185818f5afa9081156131d457839161319f575b5089163014612f19565b90508581813d83116131cd575b6131b681836126b0565b81010312610561576131c790612819565b38613195565b503d6131ac565b88513d85823e3d90fd5b6131f59150863d881161085b5761084d81836126b0565b38612f11565b865162461bcd60e51b8152808501869052600981850152682737ba1037bbb732b960b91b6044820152606490fd5b90508581813d8311613257575b61324081836126b0565b810103126105615761325190612819565b38612edb565b503d613236565b5060649184519162461bcd60e51b8352820152601560248201527414185e5b595b9d081b9bdd081cdd5c1c1bdc9d1959605a1b6044820152fd5b60405162461bcd60e51b815260206004820152601460248201527304475726174696f6e206d757374206265203e20360641b6044820152606490fd5b60405162461bcd60e51b815260206004820152601160248201527005072696365206d757374206265203e203607c1b6044820152606490fd5b90816000526002602052604060002060ff6006820154161561339e57546001600160a01b0390811691160361336c5761334581612a4a565b7f9210d6774ad7b502b3da4d2c233cb4913c6254bedbae89dfa93e0594a3639757600080a2565b60405162461bcd60e51b815260206004820152600a6024820152692737ba1039b2b63632b960b11b6044820152606490fd5b60405162461bcd60e51b815260206004820152600a6024820152694e6f742061637469766560b01b6044820152606490fd5b60ff7ff0c57e16840df040f15088dc2f81fe391c3923bec73e23a9662efc9c229c6a005460401c16156133ff57565b604051631afcd79f60e31b8152600490fd5b90613438575080511561342657805190602001fd5b60405163d6bda27560e01b8152600490fd5b8151158061346b575b613449575090565b604051639996b31560e01b81526001600160a01b039091166004820152602490fd5b50803b1561344156fe02dd7bc7dec4dceedda775e58dd541e08a116c6c53815c0bd028192f7b626800cd5ed15c6e187e77e9aee88184c21f4f2182ab5827cb3b7e07fbedcd63f033009b779b17422d0df92223018b32b4d1fa46e071723d6817e2486d003becc55f00a49807205ce4d355092ef5a8a18f56e8913cf4a201fbe287825b095693c21775a2646970667358221220f3d7df266cd2202492c8208a3516850f1f79b7ed4d32ba401575459bb451400a64736f6c63430008160033",
  "linkReferences": {},
  "deployedLinkReferences": {}
}