{
  "_format": "hh-sol-artifact-1",
  "contractName": "GameMarketplaceV3",
  "sourceName": "contracts/GameMarketplaceV3.sol",
  "abi": [
    {
      "inputs": [],
      "name": "AccessControlBadConfirmation",
      "type": "error"
    },
    {
      "inputs": [
        {
          "internalType": "address",
          "name": "account",
          "type": "address"
        },
        {
          "internalType": "bytes32",
          "name": "neededRole",
          "type": "bytes32"
        }
      ],
      "name": "AccessControlUnauthorizedAccount",
      "type": "error"
    },
    {
      "inputs": [
        {
          "internalType": "address",
          "name": "target",
          "type": "address"
        }
      ],
      "name": "AddressEmptyCode",
      "type": "error"
    },
    {
      "inputs": [
        {
          "internalType": "address",
          "name": "implementation",
          "type": "address"
        }
      ],
      "name": "ERC1967InvalidImplementation",
      "type": "error"
    },
    {
      "inputs": [],
      "name": "ERC1967NonPayable",
      "type": "error"
    },
    {
      "inputs": [],
      "name": "EnforcedPause",
      "type": "error"
    },
    {
      "inputs": [],
      "name": "ExpectedPause",
      "type": "error"
    },
    {
      "inputs": [],
      "name": "FailedCall",
      "type": "error"
    },
    {
      "inputs": [],
      "name": "InvalidInitialization",
      "type": "error"
    },
    {
      "inputs": [],
      "name": "NotInitializing",
      "type": "error"
    },
    {
      "inputs": [],
      "name": "ReentrancyGuardReentrantCall",
      "type": "error"
    },
    {
      "inputs": [],
      "name": "UUPSUnauthorizedCallContext",
      "type": "error"
    },
    {
      "inputs": [
        {
          "internalType": "bytes32",
          "name": "slot",
          "type": "bytes32"
        }
      ],
      "name": "UUPSUnsupportedProxiableUUID",
      "type": "error"
    },
    {
      "anonymous": false,
      "inputs": [
        {
          "indexed": false,
          "internalType": "address",
          "name": "engine",
          "type": "address"
        }
      ],
      "name": "IncentiveEngineSet",
      "type": "event"
    },
    {
      "anonymous": false,
      "inputs": [
        {
          "indexed": true,
          "internalType": "bytes32",
          "name": "scope",
          "type": "bytes32"
        },
        {
          "indexed": true,
          "internalType": "address",
          "name": "buyer",
          "type": "address"
        },
        {
          "indexed": true,
          "internalType": "address",
          "name": "seller",
          "type": "address"
        },
        {
          "indexed": false,
          "internalType": "address",
          "name": "collection",
          "type": "address"
        },
        {
          "indexed": false,
          "internalType": "uint256",
          "name": "amount",
          "type": "uint256"
        }
      ],
      "name": "IncentivePoolForwarded",
      "type": "event"
    },
    {
      "anonymous": false,
      "inputs": [
        {
          "indexed": false,
          "internalType": "uint64",
          "name": "version",
          "type": "uint64"
        }
      ],
      "name": "Initialized",
      "type": "event"
    },
    {
      "anonymous": false,
      "inputs": [
        {
          "indexed": true,
          "internalType": "bytes32",
          "name": "listingId",
          "type": "bytes32"
        },
        {
          "indexed": true,
          "internalType": "address",
          "name": "seller",
          "type": "address"
        },
        {
          "indexed": true,
          "internalType": "address",
          "name": "nftContract",
          "type": "address"
        },
        {
          "indexed": false,
          "internalType": "uint256",
          "name": "tokenId",
          "type": "uint256"
        },
        {
          "indexed": false,
          "internalType": "address",
          "name": "paymentToken",
          "type": "address"
        },
        {
          "indexed": false,
          "internalType": "uint256",
          "name": "price",
          "type": "uint256"
        },
        {
          "indexed": false,
          "internalType": "uint256",
          "name": "expiresAt",
          "type": "uint256"
        }
      ],
      "name": "ItemListed",
      "type": "event"
    },
    {
      "anonymous": false,
      "inputs": [
        {
          "indexed": true,
          "internalType": "bytes32",
          "name": "listingId",
          "type": "bytes32"
        },
        {
          "indexed": true,
          "internalType": "address",
          "name": "buyer",
          "type": "address"
        },
        {
          "indexed": true,
          "internalType": "address",
          "name": "seller",
          "type": "address"
        },
        {
          "indexed": false,
          "internalType": "uint256",
          "name": "price",
          "type": "uint256"
        },
        {
          "indexed": false,
          "internalType": "uint256",
          "name": "platformFee",
          "type": "uint256"
        },
        {
          "indexed": false,
          "internalType": "uint256",
          "name": "royaltyFee",
          "type": "uint256"
        }
      ],
      "name": "ItemSold",
      "type": "event"
    },
    {
      "anonymous": false,
      "inputs": [
        {
          "indexed": true,
          "internalType": "bytes32",
          "name": "listingId",
          "type": "bytes32"
        }
      ],
      "name": "ListingCancelled",
      "type": "event"
    },
    {
      "anonymous": false,
      "inputs": [
        {
          "indexed": false,
          "internalType": "address",
          "name": "account",
          "type": "address"
        }
      ],
      "name": "Paused",
      "type": "event"
    },
    {
      "anonymous": false,
      "inputs": [
        {
          "indexed": false,
          "internalType": "uint256",
          "name": "newFeeBps",
          "type": "uint256"
        }
      ],
      "name": "PlatformFeeUpdated",
      "type": "event"
    },
    {
      "anonymous": false,
      "inputs": [
        {
          "indexed": true,
          "internalType": "address",
          "name": "collection",
          "type": "address"
        },
        {
          "indexed": false,
          "internalType": "uint16",
          "name": "bps",
          "type": "uint16"
        }
      ],
      "name": "PoolBpsSet",
      "type": "event"
    },
    {
      "anonymous": false,
      "inputs": [
        {
          "indexed": true,
          "internalType": "bytes32",
          "name": "role",
          "type": "bytes32"
        },
        {
          "indexed": true,
          "internalType": "bytes32",
          "name": "previousAdminRole",
          "type": "bytes32"
        },
        {
          "indexed": true,
          "internalType": "bytes32",
          "name": "newAdminRole",
          "type": "bytes32"
        }
      ],
      "name": "RoleAdminChanged",
      "type": "event"
    },
    {
      "anonymous": false,
      "inputs": [
        {
          "indexed": true,
          "internalType": "bytes32",
          "name": "role",
          "type": "bytes32"
        },
        {
          "indexed": true,
          "internalType": "address",
          "name": "account",
          "type": "address"
        },
        {
          "indexed": true,
          "internalType": "address",
          "name": "sender",
          "type": "address"
        }
      ],
      "name": "RoleGranted",
      "type": "event"
    },
    {
      "anonymous": false,
      "inputs": [
        {
          "indexed": true,
          "internalType": "bytes32",
          "name": "role",
          "type": "bytes32"
        },
        {
          "indexed": true,
          "internalType": "address",
          "name": "account",
          "type": "address"
        },
        {
          "indexed": true,
          "internalType": "address",
          "name": "sender",
          "type": "address"
        }
      ],
      "name": "RoleRevoked",
      "type": "event"
    },
    {
      "anonymous": false,
      "inputs": [
        {
          "indexed": false,
          "internalType": "address",
          "name": "account",
          "type": "address"
        }
      ],
      "name": "Unpaused",
      "type": "event"
    },
    {
      "anonymous": false,
      "inputs": [
        {
          "indexed": true,
          "internalType": "address",
          "name": "implementation",
          "type": "address"
        }
      ],
      "name": "Upgraded",
      "type": "event"
    },
    {
      "inputs": [],
      "name": "ADMIN_ROLE",
      "outputs": [
        {
          "internalType": "bytes32",
          "name": "",
          "type": "bytes32"
        }
      ],
      "stateMutability": "view",
      "type": "function"
    },
    {
      "inputs": [],
      "name": "DEFAULT_ADMIN_ROLE",
      "outputs": [
        {
          "internalType": "bytes32",
          "name": "",
          "type": "bytes32"
        }
      ],
      "stateMutability": "view",
      "type": "function"
    },
    {
      "inputs": [],
      "name": "UPGRADE_INTERFACE_VERSION",
      "outputs": [
        {
          "internalType": "string",
          "name": "",
          "type": "string"
        }
      ],
      "stateMutability": "view",
      "type": "function"
    },
    {
      "inputs": [
        {
          "internalType": "address",
          "name": "",
          "type": "address"
        },
        {
          "internalType": "uint256",
          "name": "",
          "type": "uint256"
        }
      ],
      "name": "activeListing",
      "outputs": [
        {
          "internalType": "bytes32",
          "name": "",
          "type": "bytes32"
        }
      ],
      "stateMutability": "view",
      "type": "function"
    },
    {
      "inputs": [
        {
          "internalType": "address",
          "name": "account",
          "type": "address"
        }
      ],
      "name": "addAdmin",
      "outputs": [],
      "stateMutability": "nonpayable",
      "type": "function"
    },
    {
      "inputs": [
        {
          "internalType": "address",
          "name": "token",
          "type": "address"
        }
      ],
      "name": "addSupportedToken",
      "outputs": [],
      "stateMutability": "nonpayable",
      "type": "function"
    },
    {
      "inputs": [
        {
          "internalType": "address",
          "name": "nftContract",
          "type": "address"
        },
        {
          "internalType": "uint256[]",
          "name": "tokenIds",
          "type": "uint256[]"
        }
      ],
      "name": "batchCancelListings",
      "outputs": [],
      "stateMutability": "nonpayable",
      "type": "function"
    },
    {
      "inputs": [
        {
          "internalType": "address",
          "name": "nftContract",
          "type": "address"
        },
        {
          "internalType": "uint256[]",
          "name": "tokenIds",
          "type": "uint256[]"
        },
        {
          "internalType": "address",
          "name": "paymentToken",
          "type": "address"
        },
        {
          "internalType": "uint256[]",
          "name": "prices",
          "type": "uint256[]"
        },
        {
          "internalType": "uint256",
          "name": "duration",
          "type": "uint256"
        }
      ],
      "name": "batchListItems",
      "outputs": [],
      "stateMutability": "nonpayable",
      "type": "function"
    },
    {
      "inputs": [
        {
          "internalType": "bytes32",
          "name": "listingId",
          "type": "bytes32"
        }
      ],
      "name": "buyItem",
      "outputs": [],
      "stateMutability": "payable",
      "type": "function"
    },
    {
      "inputs": [
        {
          "internalType": "bytes32",
          "name": "listingId",
          "type": "bytes32"
        }
      ],
      "name": "cancelAsCurrentOwnerById",
      "outputs": [],
      "stateMutability": "nonpayable",
      "type": "function"
    },
    {
      "inputs": [
        {
          "internalType": "address",
          "name": "nftContract",
          "type": "address"
        },
        {
          "internalType": "uint256",
          "name": "tokenId",
          "type": "uint256"
        }
      ],
      "name": "cancelAsCurrentOwnerByToken",
      "outputs": [],
      "stateMutability": "nonpayable",
      "type": "function"
    },
    {
      "inputs": [
        {
          "internalType": "bytes32",
          "name": "listingId",
          "type": "bytes32"
        }
      ],
      "name": "cancelListing",
      "outputs": [],
      "stateMutability": "nonpayable",
      "type": "function"
    },
    {
      "inputs": [],
      "name": "feeRecipient",
      "outputs": [
        {
          "internalType": "address",
          "name": "",
          "type": "address"
        }
      ],
      "stateMutability": "view",
      "type": "function"
    },
    {
      "inputs": [
        {
          "internalType": "uint256",
          "name": "offset",
          "type": "uint256"
        },
        {
          "internalType": "uint256",
          "name": "limit",
          "type": "uint256"
        }
      ],
      "name": "getActiveListings",
      "outputs": [
        {
          "internalType": "bytes32[]",
          "name": "",
          "type": "bytes32[]"
        }
      ],
      "stateMutability": "view",
      "type": "function"
    },
    {
      "inputs": [
        {
          "internalType": "bytes32",
          "name": "listingId",
          "type": "bytes32"
        }
      ],
      "name": "getListing",
      "outputs": [
        {
          "components": [
            {
              "internalType": "address",
              "name": "seller",
              "type": "address"
            },
            {
              "internalType": "address",
              "name": "nftContract",
              "type": "address"
            },
            {
              "internalType": "uint256",
              "name": "tokenId",
              "type": "uint256"
            },
            {
              "internalType": "address",
              "name": "paymentToken",
              "type": "address"
            },
            {
              "internalType": "uint256",
              "name": "price",
              "type": "uint256"
            },
            {
              "internalType": "uint256",
              "name": "expiresAt",
              "type": "uint256"
            },
            {
              "internalType": "bool",
              "name": "active",
              "type": "bool"
            }
          ],
          "internalType": "struct GameMarketplaceV3.Listing",
          "name": "",
          "type": "tuple"
        }
      ],
      "stateMutability": "view",
      "type": "function"
    },
    {
      "inputs": [
        {
          "internalType": "address",
          "name": "nftContract",
          "type": "address"
        }
      ],
      "name": "getListingsByNFTContract",
      "outputs": [
        {
          "internalType": "bytes32[]",
          "name": "",
          "type": "bytes32[]"
        }
      ],
      "stateMutability": "view",
      "type": "function"
    },
    {
      "inputs": [
        {
          "internalType": "bytes32",
          "name": "role",
          "type": "bytes32"
        }
      ],
      "name": "getRoleAdmin",
      "outputs": [
        {
          "internalType": "bytes32",
          "name": "",
          "type": "bytes32"
        }
      ],
      "stateMutability": "view",
      "type": "function"
    },
    {
      "inputs": [],
      "name": "getTotalActiveListings",
      "outputs": [
        {
          "internalType": "uint256",
          "name": "",
          "type": "uint256"
        }
      ],
      "stateMutability": "view",
      "type": "function"
    },
    {
      "inputs": [
        {
          "internalType": "bytes32",
          "name": "role",
          "type": "bytes32"
        },
        {
          "internalType": "address",
          "name": "account",
          "type": "address"
        }
      ],
      "name": "grantRole",
      "outputs": [],
      "stateMutability": "nonpayable",
      "type": "function"
    },
    {
      "inputs": [
        {
          "internalType": "bytes32",
          "name": "role",
          "type": "bytes32"
        },
        {
          "internalType": "address",
          "name": "account",
          "type": "address"
        }
      ],
      "name": "hasRole",
      "outputs": [
        {
          "internalType": "bool",
          "name": "",
          "type": "bool"
        }
      ],
      "stateMutability": "view",
      "type": "function"
    },
    {
      "inputs": [],
      "name": "incentiveEngine",
      "outputs": [
        {
          "internalType": "address",
          "name": "",
          "type": "address"
        }
      ],
      "stateMutability": "view",
      "type": "function"
    },
    {
      "inputs": [
        {
          "internalType": "address",
          "name": "_feeRecipient",
          "type": "address"
        }
      ],
      "name": "initialize",
      "outputs": [],
      "stateMutability": "nonpayable",
      "type": "function"
    },
    {
      "inputs": [
        {
          "internalType": "bytes32",
          "name": "listingId",
          "type": "bytes32"
        }
      ],
      "name": "isListingValid",
      "outputs": [
        {
          "internalType": "bool",
          "name": "",
          "type": "bool"
        }
      ],
      "stateMutability": "view",
      "type": "function"
    },
    {
      "inputs": [
        {
          "internalType": "address",
          "name": "nftContract",
          "type": "address"
        },
        {
          "internalType": "uint256",
          "name": "tokenId",
          "type": "uint256"
        },
        {
          "internalType": "address",
          "name": "paymentToken",
          "type": "address"
        },
        {
          "internalType": "uint256",
          "name": "price",
          "type": "uint256"
        },
        {
          "internalType": "uint256",
          "name": "duration",
          "type": "uint256"
        }
      ],
      "name": "listItem",
      "outputs": [],
      "stateMutability": "nonpayable",
      "type": "function"
    },
    {
      "inputs": [
        {
          "internalType": "bytes32",
          "name": "",
          "type": "bytes32"
        }
      ],
      "name": "listings",
      "outputs": [
        {
          "internalType": "address",
          "name": "seller",
          "type": "address"
        },
        {
          "internalType": "address",
          "name": "nftContract",
          "type": "address"
        },
        {
          "internalType": "uint256",
          "name": "tokenId",
          "type": "uint256"
        },
        {
          "internalType": "address",
          "name": "paymentToken",
          "type": "address"
        },
        {
          "internalType": "uint256",
          "name": "price",
          "type": "uint256"
        },
        {
          "internalType": "uint256",
          "name": "expiresAt",
          "type": "uint256"
        },
        {
          "internalType": "bool",
          "name": "active",
          "type": "bool"
        }
      ],
      "stateMutability": "view",
      "type": "function"
    },
    {
      "inputs": [],
      "name": "pause",
      "outputs": [],
      "stateMutability": "nonpayable",
      "type": "function"
    },
    {
      "inputs": [],
      "name": "paused",
      "outputs": [
        {
          "internalType": "bool",
          "name": "",
          "type": "bool"
        }
      ],
      "stateMutability": "view",
      "type": "function"
    },
    {
      "inputs": [],
      "name": "platformFeeBps",
      "outputs": [
        {
          "internalType": "uint256",
          "name": "",
          "type": "uint256"
        }
      ],
      "stateMutability": "view",
      "type": "function"
    },
    {
      "inputs": [
        {
          "internalType": "address",
          "name": "",
          "type": "address"
        }
      ],
      "name": "poolBps",
      "outputs": [
        {
          "internalType": "uint16",
          "name": "",
          "type": "uint16"
        }
      ],
      "stateMutability": "view",
      "type": "function"
    },
    {
      "inputs": [],
      "name": "proxiableUUID",
      "outputs": [
        {
          "internalType": "bytes32",
          "name": "",
          "type": "bytes32"
        }
      ],
      "stateMutability": "view",
      "type": "function"
    },
    {
      "inputs": [
        {
          "internalType": "address",
          "name": "account",
          "type": "address"
        }
      ],
      "name": "removeAdmin",
      "outputs": [],
      "stateMutability": "nonpayable",
      "type": "function"
    },
    {
      "inputs": [
        {
          "internalType": "address",
          "name": "token",
          "type": "address"
        }
      ],
      "name": "removeSupportedToken",
      "outputs": [],
      "stateMutability": "nonpayable",
      "type": "function"
    },
    {
      "inputs": [
        {
          "internalType": "bytes32",
          "name": "role",
          "type": "bytes32"
        },
        {
          "internalType": "address",
          "name": "callerConfirmation",
          "type": "address"
        }
      ],
      "name": "renounceRole",
      "outputs": [],
      "stateMutability": "nonpayable",
      "type": "function"
    },
    {
      "inputs": [
        {
          "internalType": "bytes32",
          "name": "role",
          "type": "bytes32"
        },
        {
          "internalType": "address",
          "name": "account",
          "type": "address"
        }
      ],
      "name": "revokeRole",
      "outputs": [],
      "stateMutability": "nonpayable",
      "type": "function"
    },
    {
      "inputs": [
        {
          "internalType": "address",
          "name": "_engine",
          "type": "address"
        }
      ],
      "name": "setIncentiveEngine",
      "outputs": [],
      "stateMutability": "nonpayable",
      "type": "function"
    },
    {
      "inputs": [
        {
          "internalType": "address",
          "name": "collection",
          "type": "address"
        },
        {
          "internalType": "uint16",
          "name": "bps",
          "type": "uint16"
        }
      ],
      "name": "setPoolBps",
      "outputs": [],
      "stateMutability": "nonpayable",
      "type": "function"
    },
    {
      "inputs": [
        {
          "internalType": "address",
          "name": "",
          "type": "address"
        }
      ],
      "name": "supportedTokens",
      "outputs": [
        {
          "internalType": "bool",
          "name": "",
          "type": "bool"
        }
      ],
      "stateMutability": "view",
      "type": "function"
    },
    {
      "inputs": [
        {
          "internalType": "bytes4",
          "name": "interfaceId",
          "type": "bytes4"
        }
      ],
      "name": "supportsInterface",
      "outputs": [
        {
          "internalType": "bool",
          "name": "",
          "type": "bool"
        }
      ],
      "stateMutability": "view",
      "type": "function"
    },
    {
      "inputs": [],
      "name": "unpause",
      "outputs": [],
      "stateMutability": "nonpayable",
      "type": "function"
    },
    {
      "inputs": [
        {
          "internalType": "address",
          "name": "newRecipient",
          "type": "address"
        }
      ],
      "name": "updateFeeRecipient",
      "outputs": [],
      "stateMutability": "nonpayable",
      "type": "function"
    },
    {
      "inputs": [
        {
          "internalType": "uint256",
          "name": "newFeeBps",
          "type": "uint256"
        }
      ],
      "name": "updatePlatformFee",
      "outputs": [],
      "stateMutability": "nonpayable",
      "type": "function"
    },
    {
      "inputs": [
        {
          "internalType": "address",
          "name": "newImplementation",
          "type": "address"
        },
        {
          "internalType": "bytes",
          "name": "data",
          "type": "bytes"
        }
      ],
      "name": "upgradeToAndCall",
      "outputs": [],
      "stateMutability": "payable",
      "type": "function"
    },
    {
      "inputs": [],
      "name": "version",
      "outputs": [
        {
          "internalType": "string",
          "name": "",
          "type": "string"
        }
      ],
      "stateMutability": "pure",
      "type": "function"
    }
  ],
  "bytecode": "0x60a0806040523461002a573060805261354490816100308239608051818181611bc50152611caa0152f35b600080fdfe608080604052600436101561001357600080fd5b600090813560e01c90816301ffc9a7146125ea5750806306b4da0714612512578063175c0d161461241f5780631785f53c146123c25780631c71a03d1461229857806322dcd13e1461227b578063248a9ca31461224157806328a124ad1461210e5780632f2ff15d146120c35780632fa7455b14611fd357806336568abe14611f8b5780633f4ba83a14611ede5780634690484014611eb55780634f1ef28614611c2f57806352d1902d14611bb257806354fd4d5014611b2457806357aad9db14611a3a5780635c975abb14611a0a5780635d7e6068146119cc57806368c4ac261461198d5780636cf50d26146119465780636d69fcaf146118cd578063704802751461187057806375b238fc14611847578063763191901461177b5780638456cb59146116de57806391d14854146116885780639299e5521461164d57806399abc8d1146114df5780639b3a1789146114b6578063a217fddf1461149a578063a5298c4a1461147c578063aa0b5988146113bd578063ad3cb1cc14611359578063c128b231146112b2578063c18b8db414611234578063c428f4fe14611125578063c4d66de814610f84578063d547741f14610f35578063d9fc267214610ef2578063e045243b14610e04578063f160d36914610d4f5763f169bf07146101fa57600080fd5b6020366003190112610d4c5761020e612e60565b610216612a34565b600435815260026020526040812060ff60068201541615610d125760058101544211610cdb5780546001600160a01b031690338214610c965760018060a01b036001820154166002820154926040516331a9108f60e11b8152846004820152602081602481865afa908115610bed578691610c5c575b506001600160a01b031603610c17576004820154916127106102af86548561297e565b049385928691604051906301ffc9a760e01b825263152a902d60e11b91826004820152602081602481875afa908115610aa9578a91610bf8575b50610b71575b505086526008602052604086205461ffff1680610b5d575085905b6103218261031c8661031c8a8a612961565b612961565b60038401546001600160a01b03168061068057508534106106445787918286898015801561060f575b505090918115908115806105fd575b6105c0575b505050508015908115610586575b50505080151580610572575b6104aa575b50823411610479575b60018101548154600283015487926001600160a01b03908116921690823b1561047557604051632142170760e11b81526001600160a01b0392909216600483015233602483015260448201529082908290606490829084905af1801561046a57610452575b50506103f8600435612a64565b60018060a01b03905416926040519283526020830152604082015233907fda38a7a919ab0a9684c429dd79e2e021129c204df35dfcd9c0eba65ca24904f6606060043592a460016000805160206134cf8339815191525580f35b61045b906126b7565b6104665784386103eb565b8480fd5b6040513d84823e3d90fd5b8380fd5b848080806104878734612961565b8181156104a1575b3390f1610386576040513d86823e3d90fd5b506108fc61048f565b600182015460075483546001600160a01b039283169392899281169116813b1561056e57839160648492604051948593849263066b914360e11b84528a600485015233602485015260448401525af1801561046a57610556575b505082546001840154604080516001600160a01b0392831681526020810194909452911692339290917f5b1b20ef92da11e2945eca34ff84da51a81bdc9a159d220b9fdb4bacc12e112391a43861037d565b61055f906126b7565b61056a578638610504565b8680fd5b8280fd5b506007546001600160a01b03161515610378565b82809291819260018060a01b038854169083906105b7575bf1156105ac5785388061036c565b6040513d87823e3d90fd5b506108fc61059e565b83928392839283916105f3575b6001600160a01b031690f1156105e6578185388061035e565b50604051903d90823e3d90fd5b6108fc91506105cd565b506001600160a01b0381161515610359565b6001548493508392839290916001600160a01b031690839061063b575bf11561046a578286893861034a565b506108fc61062c565b60405162461bcd60e51b8152602060048201526014602482015273125b9cdd59999a58da595b9d081c185e5b595b9d60621b6044820152606490fd5b929134610b18576040516323b872dd60e01b8152336004820152306024820152604481018890526020816064818d895af1908115610aa9578a91610af9575b5015610ab4578590886109f6575b811515806109e4575b610934575b505080610890575b508015158061087c575b6106f9575b5050610386565b600183015460075460405163095ea7b360e01b81526001600160a01b03918216600482015260248101849052911692602090829060449082908c905af190811561080c57889161084d575b501561081757600754600184015484546001600160a01b03928316928a929181169116833b1561056e5760849083604051958694859363ab82294960e01b8552600485015233602485015260448401528760648401525af1801561080c576107f9575b5082546001840154604080516001600160a01b0392831681526020810194909452911692339290917f5b1b20ef92da11e2945eca34ff84da51a81bdc9a159d220b9fdb4bacc12e112391a438806106f2565b610805909791976126b7565b95386107a7565b6040513d8a823e3d90fd5b60405162461bcd60e51b815260206004820152600e60248201526d105c1c1c9bdd994819985a5b195960921b6044820152606490fd5b61086f915060203d602011610875575b61086781836126ca565b810190612991565b38610744565b503d61085d565b506007546001600160a01b031615156106ed565b835460405163a9059cbb60e01b81526001600160a01b03909116600482015260248101919091526020816044818b875af190811561080c578891610915575b50156108db57386106e3565b60405162461bcd60e51b815260206004820152601260248201527114d95b1b195c881e19995c8819985a5b195960721b6044820152606490fd5b61092e915060203d6020116108755761086781836126ca565b386108cf565b60405163a9059cbb60e01b81526001600160a01b0391909116600482015260248101919091526020816044818c885af19081156109d95789916109ba575b501561097f5784386106db565b60405162461bcd60e51b8152602060048201526013602482015272149bde585b1d1e481e19995c8819985a5b1959606a1b6044820152606490fd5b6109d3915060203d6020116108755761086781836126ca565b38610972565b6040513d8b823e3d90fd5b506001600160a01b03811615156106d6565b60015460405163a9059cbb60e01b81526001600160a01b039091166004820152602481018a90529091506020816044818d895af1908115610aa9578a91610a8a575b5015610a455785906106cd565b60405162461bcd60e51b815260206004820152601860248201527f506c6174666f726d206665652078666572206661696c656400000000000000006044820152606490fd5b610aa3915060203d6020116108755761086781836126ca565b38610a38565b6040513d8c823e3d90fd5b60405162461bcd60e51b815260206004820152601760248201527f5061796d656e74207472616e73666572206661696c65640000000000000000006044820152606490fd5b610b12915060203d6020116108755761086781836126ca565b386106bf565b60405162461bcd60e51b815260206004820152601860248201527f4e6f206e617469766520746f6b656e20726571756972656400000000000000006044820152606490fd5b610b6a612710918661297e565b049061030a565b91925093506040519384526004840152836024840152604083604481845afa8015610bed5786938791610ba9575b50929038806102ef565b9350506040833d604011610be5575b81610bc5604093836126ca565b81010312610be1576020610bd884612833565b93015138610b9f565b8580fd5b3d9150610bb8565b6040513d88823e3d90fd5b610c11915060203d6020116108755761086781836126ca565b386102e9565b60405162461bcd60e51b815260206004820152601d60248201527f53656c6c6572206e6f206c6f6e676572206f776e7320746865204e46540000006044820152606490fd5b90506020813d602011610c8e575b81610c77602093836126ca565b81010312610be157610c8890612833565b3861028c565b3d9150610c6a565b60405162461bcd60e51b815260206004820152601860248201527f43616e6e6f742062757920796f7572206f776e206974656d00000000000000006044820152606490fd5b60405162461bcd60e51b815260206004820152600f60248201526e131a5cdd1a5b99c8195e1c1a5c9959608a1b6044820152606490fd5b60405162461bcd60e51b81526020600482015260126024820152714c697374696e67206e6f742061637469766560701b6044820152606490fd5b80fd5b5034610d4c576020366003190112610d4c57610d6961263f565b6000805160206134ef833981519152825260008051602061348f83398151915260205260408220338352602052610da660ff6040842054166127bb565b6001600160a01b03168015610dcb576001600160601b0360a01b600154161760015580f35b60405162461bcd60e51b8152602060048201526011602482015270125b9d985b1a59081c9958da5c1a595b9d607a1b6044820152606490fd5b5034610d4c576040366003190112610d4c57610e1e61263f565b6024356001600160401b03811161056e57610e3d90369060040161278b565b610e45612a34565b8015610eb6576001600160a01b0390921691835b818110610e76578460016000805160206134cf8339815191525580f35b6001908486526020600381526040872090610e9283868861296e565b35885252610eb06040872054610ea98115156127f3565b3390613327565b01610e59565b60405162461bcd60e51b8152602060048201526014602482015273139bc81d1bdad95b92591cc81c1c9bdd9a59195960621b6044820152606490fd5b5034610d4c576040366003190112610d4c576020906040906001600160a01b03610f1a61263f565b16815260038352818120602435825283522054604051908152f35b5034610d4c576040366003190112610d4c57610f80600435610f5561265a565b9080845260008051602061348f833981519152602052610f7b6001604086200154612a01565b612ddd565b5080f35b5034610d4c576020366003190112610d4c57610f9e61263f565b7ff0c57e16840df040f15088dc2f81fe391c3923bec73e23a9662efc9c229c6a0080549160ff8360401c1615906001600160401b0384169384158061111e575b60018096149081611114575b15908161110b575b506110f95767ffffffffffffffff19811685178455826110da575b506110166133ea565b61101e6133ea565b836000805160206134cf833981519152556110376133ea565b61103f6133ea565b6110476133ea565b60fa855583546001600160a01b0319166001600160a01b0391909116178355838052600460205260408420805460ff19168417905561108533612c0e565b5061108f33612b5e565b50611098578280f35b805468ff0000000000000000191690556040519081527fc7f505b2f371ae2175ee4913f4499e1f2633a7b5936321eed1cdaeb6115181d290602090a138808280f35b68ffffffffffffffffff1916680100000000000000011783553861100d565b60405163f92ee8a960e01b8152600490fd5b90501538610ff2565b303b159150610fea565b5082610fde565b5034610d4c5760a0366003190112610d4c5761113f61263f565b6001600160401b03919060243583811161056e5761116190369060040161278b565b909161116b612670565b946064359081116104665761118490369060040161278b565b959060843593611192612e60565b61119a612a34565b8781036111ef57865b8181106111c0578760016000805160206134cf8339815191525580f35b806111e9878b876111e1856111d96001988f8b9061296e565b35938a61296e565b35918a612e8b565b016111a3565b60405162461bcd60e51b815260206004820152601e60248201527f49447320616e6420707269636573206c656e677468206d69736d6174636800006044820152606490fd5b5034610d4c576020366003190112610d4c57604060e091600435815260026020522060018060a01b038082541691816001820154169160028201549060038301541660048301549160ff600660058601549501541694604051968752602087015260408601526060850152608084015260a0830152151560c0820152f35b5034610d4c576040366003190112610d4c576005546004358181111561134e57506112f481805b6112e560243583612954565b90808211611346575b50612961565b906112fe8261290e565b925b8281106113195760405180611315868261274f565b0390f35b8061132e61132960019385612954565b612885565b90549060031b1c61133f8287612940565b5201611300565b9050386112ee565b6112f49080926112d9565b5034610d4c5780600319360112610d4c57604051604081018181106001600160401b038211176113a957611315925060405260058152640352e302e360dc1b602082015260405191829182612706565b634e487b7160e01b83526041600452602483fd5b5034610d4c576020366003190112610d4c576004356000805160206134ef833981519152825260008051602061348f8339815191526020526040822033835260205261140f60ff6040842054166127bb565b6103e88111611449576020817f45610d581145924dd7090a5017e5f2b1d6f42213bb2e95707ff86846bbfcb1ca928455604051908152a180f35b60405162461bcd60e51b815260206004820152600b60248201526a4d6178203130252066656560a81b6044820152606490fd5b5034610d4c5780600319360112610d4c576020600554604051908152f35b5034610d4c5780600319360112610d4c57602090604051908152f35b5034610d4c5780600319360112610d4c576007546040516001600160a01b039091168152602090f35b5034610d4c576040366003190112610d4c576114f961263f565b602435611504612a34565b6040516331a9108f60e11b8152600481018290526001600160a01b0392831692602091908282602481885afa908115610bed578691611615575b61154b9250163314612847565b8284526003815260408420828552815260408420549283156115dc5783855260028252604085206006015460ff16156115c35750505061158a81612a64565b7f9210d6774ad7b502b3da4d2c233cb4913c6254bedbae89dfa93e0594a36397578280a260016000805160206134cf8339815191525580f35b845260038152604084209184525281604081205561158a565b60405162461bcd60e51b815260048101839052601160248201527027379030b1ba34bb32903837b4b73a32b960791b6044820152606490fd5b90508282813d8311611646575b61162c81836126ca565b81010312610be15761164061154b92612833565b9061153e565b503d611622565b5034610d4c576020366003190112610d4c57611667612a34565b61167333600435613327565b60016000805160206134cf8339815191525580f35b5034610d4c576040366003190112610d4c5760ff60406020926116a961265a565b600435825260008051602061348f83398151915285528282206001600160a01b03909116825284522054604051911615158152f35b5034610d4c5780600319360112610d4c576000805160206134ef833981519152815260008051602061348f8339815191526020526040812033825260205261172c60ff6040832054166127bb565b611734612e60565b6000805160206134af833981519152600160ff198254161790557f62e78cea01bee320cd4e420270b5ea74000d11b0c9f74754ebdbfc544b05a2586020604051338152a180f35b5034610d4c576020366003190112610d4c5761179561263f565b6000805160206134ef833981519152825260008051602061348f833981519152602052604082203383526020526117d260ff6040842054166127bb565b6001600160a01b031680156117f7578152600460205260408120805460ff1916905580f35b60405162461bcd60e51b815260206004820152602260248201527f43616e6e6f742072656d6f7665206e617469766520746f6b656e20737570706f6044820152611c9d60f21b6064820152608490fd5b5034610d4c5780600319360112610d4c5760206040516000805160206134ef8339815191528152f35b5034610d4c576020366003190112610d4c57610f8061188d61263f565b6118956129a9565b6000805160206134ef833981519152835260008051602061348f8339815191526020526118c86001604085200154612a01565b612b5e565b5034610d4c576020366003190112610d4c576118e761263f565b6000805160206134ef833981519152825260008051602061348f8339815191526020526040822033835260205261192460ff6040842054166127bb565b6001600160a01b03168152600460205260408120805460ff1916600117905580f35b5034610d4c5760a0366003190112610d4c5761167361196361263f565b61196b612670565b90611974612e60565b61197c612a34565b608435916064359160243590612e8b565b5034610d4c576020366003190112610d4c5760209060ff906040906001600160a01b036119b861263f565b168152600484522054166040519015158152f35b5034610d4c576020366003190112610d4c5760209061ffff906040906001600160a01b036119f861263f565b16815260088452205416604051908152f35b5034610d4c5780600319360112610d4c57602060ff6000805160206134af83398151915254166040519015158152f35b5034610d4c576020906020600319360112610d4c57611a5761263f565b6005546001600160a01b039390929091841681805b858110611ae15750611a7d9061290e565b9482805b868110611a9657604051806113158a8261274f565b80611aa2600192612885565b90549060031b1c808452600288528585846040872001541614611ac7575b5001611a81565b611ada611ad3886128d2565b978b612940565b5238611ac0565b611aea81612885565b90549060031b1c845260028552828760016040872001541614611b10575b600101611a6c565b90611b1c6001916128d2565b919050611b08565b5034610d4c5780600319360112610d4c57604051606081018181106001600160401b038211176113a9576113159250604052603781527f47616d654d61726b6574706c6163652056332028726562617365202b20696e6360208201527f656e7469766520706f6f6c20666f7277617264696e6729000000000000000000604082015260405191829182612706565b5034610d4c5780600319360112610d4c577f00000000000000000000000000000000000000000000000000000000000000006001600160a01b03163003611c1d5760206040517f360894a13ba1a3210667c828492db98dca3e2076cc3735a920a3ca505d382bbc8152f35b60405163703e46dd60e11b8152600490fd5b506040366003190112610d4c57611c4461263f565b60249182356001600160401b038111611eb15736602382011215611eb1578060040135611c70816126eb565b93611c7e60405195866126ca565b8185526020918286019336888383010111610be157818692898693018737870101526001600160a01b037f00000000000000000000000000000000000000000000000000000000000000008116308114908115611e83575b50611c1d576000805160206134ef833981519152855260008051602061348f8339815191528352604085203386528352611d1660ff6040872054166127bb565b8116946040516352d1902d60e01b815283816004818a5afa869181611e54575b50611d5357604051634c9c8ce360e01b8152600481018890528890fd5b8690887f360894a13ba1a3210667c828492db98dca3e2076cc3735a920a3ca505d382bbc91828103611e3f5750843b15611e29575080546001600160a01b031916821790556040518692917fbc7cd75a20ee27fd9adebab32041f755214dbc6bffa90cc0225b39da2e5c2d3b8480a2815115611e0b5750610f809482915190845af4903d15611e02573d611de6816126eb565b90611df460405192836126ca565b81528581943d92013e61342b565b6060925061342b565b94505050505034611e1a575080f35b63b398979f60e01b8152600490fd5b604051634c9c8ce360e01b815260048101849052fd5b60405190632a87526960e21b82526004820152fd5b9091508481813d8311611e7c575b611e6c81836126ca565b8101031261056a57519038611d36565b503d611e62565b9050817f360894a13ba1a3210667c828492db98dca3e2076cc3735a920a3ca505d382bbc5416141538611cd6565b5080fd5b5034610d4c5780600319360112610d4c576001546040516001600160a01b039091168152602090f35b5034610d4c5780600319360112610d4c576000805160206134ef833981519152815260008051602061348f83398151915260205260408120338252602052611f2c60ff6040832054166127bb565b6000805160206134af833981519152805460ff811615611f795760ff191690557f5db9ee0a495bf2e6ff9c91a7834c1ba4fdd244a5e8aa4e537bd38aeae4b073aa6020604051338152a180f35b604051638dfc202b60e01b8152600490fd5b5034610d4c576040366003190112610d4c57611fa561265a565b336001600160a01b03821603611fc157610f8090600435612ddd565b60405163334bd91960e11b8152600490fd5b5034610d4c576040366003190112610d4c57611fed61263f565b6024359061ffff821680920361056e576000805160206134ef833981519152835260008051602061348f8339815191526020526040832033845260205261203a60ff6040852054166127bb565b6127108211612093576001600160a01b0316808352600860209081526040808520805461ffff1916851790555192835290917f94837d7e85b9a9cf58d3647202ff87dc07d754bcdba6b356cc8d7093cb3e92c09190a280f35b60405162461bcd60e51b81526020600482015260086024820152676270733e3130302560c01b6044820152606490fd5b5034610d4c576040366003190112610d4c57610f806004356120e361265a565b9080845260008051602061348f8339815191526020526121096001604086200154612a01565b612cae565b5034610d4c5760209081600319360112610d4c57600435815260028252604081209060405161213c81612686565b60018060a01b03908184541681528160018501541680868301528560028601548060408501528460038801541660608501526004870154608085015260ff60066005890154988960a08801520154161515968760c086015287612236575b50866121ac575b506040518615158152f35b909192939495506024604051809481936331a9108f60e11b835260048301525afa93841561222a5780946121ef575b5050819051169116143880808085816121a1565b909193508482813d8311612223575b61220881836126ca565b81010312610d4c575061221b8291612833565b9290386121db565b503d6121fe565b604051903d90823e3d90fd5b42111596503861219a565b5034610d4c576020366003190112610d4c5760016040602092600435815260008051602061348f8339815191528452200154604051908152f35b5034610d4c5780600319360112610d4c5760209054604051908152f35b5034610d4c57602080600319360112611eb157600435906122b7612a34565b818352600281526040832060018101546001600160a01b039291908316906122e08215156127f3565b60028101546040516331a9108f60e11b81526004810182905290948482602481875afa90811561080c578891612386575b61231e9250163314612847565b8186526003835260408620848752835284604087205403612351576006015460ff16156115c35750505061158a81612a64565b60405162461bcd60e51b815260048101849052600d60248201526c29ba30b632903837b4b73a32b960991b6044820152606490fd5b90508482813d83116123bb575b61239d81836126ca565b810103126123b7576123b161231e92612833565b90612311565b8780fd5b503d612393565b5034610d4c576020366003190112610d4c57610f806123df61263f565b6123e76129a9565b6000805160206134ef833981519152835260008051602061348f83398151915260205261241a6001604085200154612a01565b612d35565b5034610d4c576020366003190112610d4c5760408160e09260c0835161244481612686565b82815282602082015282858201528260608201528260808201528260a08201520152600435815260026020522060405161247d81612686565b60018060a01b03918281541692838352806001830154169060208401918252600283015460408501908152816003850154169060608601918252826004860154946080880195865260c060ff600660058a01549960a08c019a8b520154169801971515885260405198895251166020880152516040870152511660608501525160808401525160a083015251151560c0820152f35b5034610d4c576020366003190112610d4c5761252c61263f565b6000805160206134ef833981519152825260008051602061348f8339815191526020526040822033835260205261256960ff6040842054166127bb565b6001600160a01b031680156125ba576020817f4659bda312a6a682f252b3281a8f120398e53fcdd4dce9eaa48d27a826eb8ed5926001600160601b0360a01b6007541617600755604051908152a180f35b60405162461bcd60e51b81526020600482015260086024820152670656e67696e653d360c41b6044820152606490fd5b905034611eb1576020366003190112611eb15760043563ffffffff60e01b811680910361056e5760209250637965db0b60e01b811490811561262e575b5015158152f35b6301ffc9a760e01b14905038612627565b600435906001600160a01b038216820361265557565b600080fd5b602435906001600160a01b038216820361265557565b604435906001600160a01b038216820361265557565b60e081019081106001600160401b038211176126a157604052565b634e487b7160e01b600052604160045260246000fd5b6001600160401b0381116126a157604052565b90601f801991011681019081106001600160401b038211176126a157604052565b6001600160401b0381116126a157601f01601f191660200190565b6020808252825181830181905290939260005b82811061273b57505060409293506000838284010152601f8019910116010190565b818101860151848201604001528501612719565b602090602060408183019282815285518094520193019160005b828110612777575050505090565b835185529381019392810192600101612769565b9181601f84011215612655578235916001600160401b038311612655576020808501948460051b01011161265557565b156127c257565b60405162461bcd60e51b81526020600482015260096024820152682737ba1030b236b4b760b91b6044820152606490fd5b156127fa57565b60405162461bcd60e51b8152602060048201526011602482015270131a5cdd1a5b99c81b9bdd08199bdd5b99607a1b6044820152606490fd5b51906001600160a01b038216820361265557565b1561284e57565b60405162461bcd60e51b815260206004820152600f60248201526e2737ba103a37b5b2b71037bbb732b960891b6044820152606490fd5b6005548110156128bc5760056000527f036b6384b5eca791c62761152d0c79bb0604c104a5fb6f4eb0703f3154bb3db00190600090565b634e487b7160e01b600052603260045260246000fd5b60001981146128e15760010190565b634e487b7160e01b600052601160045260246000fd5b6001600160401b0381116126a15760051b60200190565b90612918826128f7565b61292560405191826126ca565b8281528092612936601f19916128f7565b0190602036910137565b80518210156128bc5760209160051b010190565b919082018092116128e157565b919082039182116128e157565b91908110156128bc5760051b0190565b818102929181159184041417156128e157565b90816020910312612655575180151581036126555790565b3360009081527fb7db2dd08fcb62d0c9e08c51941cae53c267786a0b75803fb7960902fc8ef97d602052604081205460ff16156129e35750565b6044906040519063e2517d3f60e01b82523360048301526024820152fd5b8060005260008051602061348f83398151915260205260406000203360005260205260ff60406000205416156129e35750565b6000805160206134cf8339815191526002815414612a525760029055565b604051633ee5aeb560e01b8152600490fd5b6000908082526020600281526040918284206006810160ff19815416905560018060a01b03600182015416855260038352600284862091015485528252838381205580845260068252828420546005549060001991828101908111612b4a57612acc90612885565b90549060031b1c80612af7612ae084612885565b819391549060031b91821b91600019901b19161790565b9055865260068452848620556005548015612b3657908060069493920190612b1e82612885565b909182549160031b1b19169055600555845252812055565b634e487b7160e01b86526031600452602486fd5b634e487b7160e01b87526011600452602487fd5b6001600160a01b031660008181527fb16e88c42fd4e48df2dd6a2eabd6bc9aec654ec170056b470819f8892cc6431c60205260408120549091906000805160206134ef8339815191529060008051602061348f8339815191529060ff16612c08578184526020526040832082845260205260408320600160ff198254161790557f2f8788117e7eff1d82e926ec794901d17c78024a50270940304540a733656f0d339380a4600190565b50505090565b6001600160a01b031660008181527fb7db2dd08fcb62d0c9e08c51941cae53c267786a0b75803fb7960902fc8ef97d602052604081205490919060008051602061348f8339815191529060ff16612ca9578280526020526040822081835260205260408220600160ff1982541617905533917f2f8788117e7eff1d82e926ec794901d17c78024a50270940304540a733656f0d8180a4600190565b505090565b9060009180835260008051602061348f83398151915280602052604084209260018060a01b03169283855260205260ff60408520541615600014612c08578184526020526040832082845260205260408320600160ff198254161790557f2f8788117e7eff1d82e926ec794901d17c78024a50270940304540a733656f0d339380a4600190565b6001600160a01b031660008181527fb16e88c42fd4e48df2dd6a2eabd6bc9aec654ec170056b470819f8892cc6431c60205260408120549091906000805160206134ef8339815191529060008051602061348f8339815191529060ff1615612c0857818452602052604083208284526020526040832060ff1981541690557ff6391f5c32d9c69d2a47ea670b442974b53935d1edc7fd64eb21e047a839171b339380a4600190565b9060009180835260008051602061348f83398151915280602052604084209260018060a01b03169283855260205260ff604085205416600014612c0857818452602052604083208284526020526040832060ff1981541690557ff6391f5c32d9c69d2a47ea670b442974b53935d1edc7fd64eb21e047a839171b339380a4600190565b60ff6000805160206134af8339815191525416612e7957565b60405163d93c066560e01b8152600490fd5b94939291909180156132ee5783156132b25760018060a01b0380921693600094808652600460209080825260409360ff858a205416156132785784516331a9108f60e11b81528281018990528b8816996024929091858185818f5afa9081156131ee578391613243575b50893391160361321557865163e985e9c560e01b81523385820152308482015285816044818f5afa9081156131ee5783916131f8575b508015613187575b15613156578a8252600385528682208a8352855286822054801590811561313e575b501561310b5760a09c87519d8e878101923360601b84526001600160601b03199060601b1660348201528c604882015242606882015260688152019d8e6001600160401b038282109111176130f8579a898d9e9f8a93839f9e8b9286525190209d8e954290612fc391612954565b9d8e9481875197612fd389612686565b3389528d8901948552808901928352606089019586526080890196875260a089019788528d60c08a019a60018c528c52600290528a20975116926001600160601b0360a01b9384895416178855826001890191511684825416179055516002870155600386019251169082541617905551868301555160058201556006019051151560ff198254169060ff161790558a8152600384528581208a82528452888682205560055492898252600685528387832055680100000000000000008410156130e8575050506130ae612ae08260018a9401600555612885565b9055825196875286015284015260608301527f192e2b5b1f4594bbc239ed354e6ff81c8b6adfd9e51bd58c2f4d5dd392c2fce060803393a4565b634e487b7160e01b825260419052fd5b5050634e487b7160e01b82525060418352fd5b865162461bcd60e51b8152808501869052600e818501526d105b1c9958591e481b1a5cdd195960921b6044820152606490fd5b835250600285528682206006015460ff161538612f55565b865162461bcd60e51b8152808501869052600c818501526b139bdd08185c1c1c9bdd995960a21b6044820152606490fd5b50865163020604bf60e21b81528481018b9052858185818f5afa9081156131ee5783916131b9575b5089163014612f33565b90508581813d83116131e7575b6131d081836126ca565b8101031261056e576131e190612833565b386131af565b503d6131c6565b88513d85823e3d90fd5b61320f9150863d88116108755761086781836126ca565b38612f2b565b865162461bcd60e51b8152808501869052600981850152682737ba1037bbb732b960b91b6044820152606490fd5b90508581813d8311613271575b61325a81836126ca565b8101031261056e5761326b90612833565b38612ef5565b503d613250565b5060649184519162461bcd60e51b8352820152601560248201527414185e5b595b9d081b9bdd081cdd5c1c1bdc9d1959605a1b6044820152fd5b60405162461bcd60e51b815260206004820152601460248201527304475726174696f6e206d757374206265203e20360641b6044820152606490fd5b60405162461bcd60e51b815260206004820152601160248201527005072696365206d757374206265203e203607c1b6044820152606490fd5b90816000526002602052604060002060ff600682015416156133b857546001600160a01b039081169116036133865761335f81612a64565b7f9210d6774ad7b502b3da4d2c233cb4913c6254bedbae89dfa93e0594a3639757600080a2565b60405162461bcd60e51b815260206004820152600a6024820152692737ba1039b2b63632b960b11b6044820152606490fd5b60405162461bcd60e51b815260206004820152600a6024820152694e6f742061637469766560b01b6044820152606490fd5b60ff7ff0c57e16840df040f15088dc2f81fe391c3923bec73e23a9662efc9c229c6a005460401c161561341957565b604051631afcd79f60e31b8152600490fd5b90613452575080511561344057805190602001fd5b60405163d6bda27560e01b8152600490fd5b81511580613485575b613463575090565b604051639996b31560e01b81526001600160a01b039091166004820152602490fd5b50803b1561345b56fe02dd7bc7dec4dceedda775e58dd541e08a116c6c53815c0bd028192f7b626800cd5ed15c6e187e77e9aee88184c21f4f2182ab5827cb3b7e07fbedcd63f033009b779b17422d0df92223018b32b4d1fa46e071723d6817e2486d003becc55f00a49807205ce4d355092ef5a8a18f56e8913cf4a201fbe287825b095693c21775a264697066735822122020908b989445fc1da9cf76df190d786de92a96f3a46fc0a401e6b685d291f52164736f6c63430008160033",
  "linkReferences": {},
  "deployedLinkReferences": {}
}