{
  "_format": "hh-sol-artifact-1",
  "contractName": "GameMarketplaceV2",
  "sourceName": "contracts/GameMarketplaceV2.sol",
  "abi": [
    {
      "inputs": [],
      "name": "AccessControlBadConfirmation",
      "type": "error"
    },
    {
      "inputs": [
        {
          "internalType": "address",
          "name": "account",
          "type": "address"
        },
        {
          "internalType": "bytes32",
          "name": "neededRole",
          "type": "bytes32"
        }
      ],
      "name": "AccessControlUnauthorizedAccount",
      "type": "error"
    },
    {
      "inputs": [
        {
          "internalType": "address",
          "name": "target",
          "type": "address"
        }
      ],
      "name": "AddressEmptyCode",
      "type": "error"
    },
    {
      "inputs": [
        {
          "internalType": "address",
          "name": "implementation",
          "type": "address"
        }
      ],
      "name": "ERC1967InvalidImplementation",
      "type": "error"
    },
    {
      "inputs": [],
      "name": "ERC1967NonPayable",
      "type": "error"
    },
    {
      "inputs": [],
      "name": "EnforcedPause",
      "type": "error"
    },
    {
      "inputs": [],
      "name": "ExpectedPause",
      "type": "error"
    },
    {
      "inputs": [],
      "name": "FailedCall",
      "type": "error"
    },
    {
      "inputs": [],
      "name": "InvalidInitialization",
      "type": "error"
    },
    {
      "inputs": [],
      "name": "NotInitializing",
      "type": "error"
    },
    {
      "inputs": [],
      "name": "ReentrancyGuardReentrantCall",
      "type": "error"
    },
    {
      "inputs": [],
      "name": "UUPSUnauthorizedCallContext",
      "type": "error"
    },
    {
      "inputs": [
        {
          "internalType": "bytes32",
          "name": "slot",
          "type": "bytes32"
        }
      ],
      "name": "UUPSUnsupportedProxiableUUID",
      "type": "error"
    },
    {
      "anonymous": false,
      "inputs": [
        {
          "indexed": false,
          "internalType": "uint64",
          "name": "version",
          "type": "uint64"
        }
      ],
      "name": "Initialized",
      "type": "event"
    },
    {
      "anonymous": false,
      "inputs": [
        {
          "indexed": true,
          "internalType": "bytes32",
          "name": "listingId",
          "type": "bytes32"
        },
        {
          "indexed": true,
          "internalType": "address",
          "name": "seller",
          "type": "address"
        },
        {
          "indexed": true,
          "internalType": "address",
          "name": "nftContract",
          "type": "address"
        },
        {
          "indexed": false,
          "internalType": "uint256",
          "name": "tokenId",
          "type": "uint256"
        },
        {
          "indexed": false,
          "internalType": "address",
          "name": "paymentToken",
          "type": "address"
        },
        {
          "indexed": false,
          "internalType": "uint256",
          "name": "price",
          "type": "uint256"
        },
        {
          "indexed": false,
          "internalType": "uint256",
          "name": "expiresAt",
          "type": "uint256"
        }
      ],
      "name": "ItemListed",
      "type": "event"
    },
    {
      "anonymous": false,
      "inputs": [
        {
          "indexed": true,
          "internalType": "bytes32",
          "name": "listingId",
          "type": "bytes32"
        },
        {
          "indexed": true,
          "internalType": "address",
          "name": "buyer",
          "type": "address"
        },
        {
          "indexed": true,
          "internalType": "address",
          "name": "seller",
          "type": "address"
        },
        {
          "indexed": false,
          "internalType": "uint256",
          "name": "price",
          "type": "uint256"
        },
        {
          "indexed": false,
          "internalType": "uint256",
          "name": "platformFee",
          "type": "uint256"
        },
        {
          "indexed": false,
          "internalType": "uint256",
          "name": "royaltyFee",
          "type": "uint256"
        }
      ],
      "name": "ItemSold",
      "type": "event"
    },
    {
      "anonymous": false,
      "inputs": [
        {
          "indexed": true,
          "internalType": "bytes32",
          "name": "listingId",
          "type": "bytes32"
        }
      ],
      "name": "ListingCancelled",
      "type": "event"
    },
    {
      "anonymous": false,
      "inputs": [
        {
          "indexed": false,
          "internalType": "address",
          "name": "account",
          "type": "address"
        }
      ],
      "name": "Paused",
      "type": "event"
    },
    {
      "anonymous": false,
      "inputs": [
        {
          "indexed": false,
          "internalType": "uint256",
          "name": "newFeeBps",
          "type": "uint256"
        }
      ],
      "name": "PlatformFeeUpdated",
      "type": "event"
    },
    {
      "anonymous": false,
      "inputs": [
        {
          "indexed": true,
          "internalType": "bytes32",
          "name": "role",
          "type": "bytes32"
        },
        {
          "indexed": true,
          "internalType": "bytes32",
          "name": "previousAdminRole",
          "type": "bytes32"
        },
        {
          "indexed": true,
          "internalType": "bytes32",
          "name": "newAdminRole",
          "type": "bytes32"
        }
      ],
      "name": "RoleAdminChanged",
      "type": "event"
    },
    {
      "anonymous": false,
      "inputs": [
        {
          "indexed": true,
          "internalType": "bytes32",
          "name": "role",
          "type": "bytes32"
        },
        {
          "indexed": true,
          "internalType": "address",
          "name": "account",
          "type": "address"
        },
        {
          "indexed": true,
          "internalType": "address",
          "name": "sender",
          "type": "address"
        }
      ],
      "name": "RoleGranted",
      "type": "event"
    },
    {
      "anonymous": false,
      "inputs": [
        {
          "indexed": true,
          "internalType": "bytes32",
          "name": "role",
          "type": "bytes32"
        },
        {
          "indexed": true,
          "internalType": "address",
          "name": "account",
          "type": "address"
        },
        {
          "indexed": true,
          "internalType": "address",
          "name": "sender",
          "type": "address"
        }
      ],
      "name": "RoleRevoked",
      "type": "event"
    },
    {
      "anonymous": false,
      "inputs": [
        {
          "indexed": false,
          "internalType": "address",
          "name": "account",
          "type": "address"
        }
      ],
      "name": "Unpaused",
      "type": "event"
    },
    {
      "anonymous": false,
      "inputs": [
        {
          "indexed": true,
          "internalType": "address",
          "name": "implementation",
          "type": "address"
        }
      ],
      "name": "Upgraded",
      "type": "event"
    },
    {
      "inputs": [],
      "name": "ADMIN_ROLE",
      "outputs": [
        {
          "internalType": "bytes32",
          "name": "",
          "type": "bytes32"
        }
      ],
      "stateMutability": "view",
      "type": "function"
    },
    {
      "inputs": [],
      "name": "DEFAULT_ADMIN_ROLE",
      "outputs": [
        {
          "internalType": "bytes32",
          "name": "",
          "type": "bytes32"
        }
      ],
      "stateMutability": "view",
      "type": "function"
    },
    {
      "inputs": [],
      "name": "UPGRADE_INTERFACE_VERSION",
      "outputs": [
        {
          "internalType": "string",
          "name": "",
          "type": "string"
        }
      ],
      "stateMutability": "view",
      "type": "function"
    },
    {
      "inputs": [
        {
          "internalType": "address",
          "name": "",
          "type": "address"
        },
        {
          "internalType": "uint256",
          "name": "",
          "type": "uint256"
        }
      ],
      "name": "activeListing",
      "outputs": [
        {
          "internalType": "bytes32",
          "name": "",
          "type": "bytes32"
        }
      ],
      "stateMutability": "view",
      "type": "function"
    },
    {
      "inputs": [
        {
          "internalType": "address",
          "name": "account",
          "type": "address"
        }
      ],
      "name": "addAdmin",
      "outputs": [],
      "stateMutability": "nonpayable",
      "type": "function"
    },
    {
      "inputs": [
        {
          "internalType": "address",
          "name": "token",
          "type": "address"
        }
      ],
      "name": "addSupportedToken",
      "outputs": [],
      "stateMutability": "nonpayable",
      "type": "function"
    },
    {
      "inputs": [
        {
          "internalType": "address",
          "name": "nftContract",
          "type": "address"
        },
        {
          "internalType": "uint256[]",
          "name": "tokenIds",
          "type": "uint256[]"
        }
      ],
      "name": "batchCancelListings",
      "outputs": [],
      "stateMutability": "nonpayable",
      "type": "function"
    },
    {
      "inputs": [
        {
          "internalType": "address",
          "name": "nftContract",
          "type": "address"
        },
        {
          "internalType": "uint256[]",
          "name": "tokenIds",
          "type": "uint256[]"
        },
        {
          "internalType": "address",
          "name": "paymentToken",
          "type": "address"
        },
        {
          "internalType": "uint256[]",
          "name": "prices",
          "type": "uint256[]"
        },
        {
          "internalType": "uint256",
          "name": "duration",
          "type": "uint256"
        }
      ],
      "name": "batchListItems",
      "outputs": [],
      "stateMutability": "nonpayable",
      "type": "function"
    },
    {
      "inputs": [
        {
          "internalType": "bytes32",
          "name": "listingId",
          "type": "bytes32"
        }
      ],
      "name": "buyItem",
      "outputs": [],
      "stateMutability": "payable",
      "type": "function"
    },
    {
      "inputs": [
        {
          "internalType": "bytes32",
          "name": "listingId",
          "type": "bytes32"
        }
      ],
      "name": "cancelAsCurrentOwnerById",
      "outputs": [],
      "stateMutability": "nonpayable",
      "type": "function"
    },
    {
      "inputs": [
        {
          "internalType": "address",
          "name": "nftContract",
          "type": "address"
        },
        {
          "internalType": "uint256",
          "name": "tokenId",
          "type": "uint256"
        }
      ],
      "name": "cancelAsCurrentOwnerByToken",
      "outputs": [],
      "stateMutability": "nonpayable",
      "type": "function"
    },
    {
      "inputs": [
        {
          "internalType": "bytes32",
          "name": "listingId",
          "type": "bytes32"
        }
      ],
      "name": "cancelListing",
      "outputs": [],
      "stateMutability": "nonpayable",
      "type": "function"
    },
    {
      "inputs": [],
      "name": "feeRecipient",
      "outputs": [
        {
          "internalType": "address",
          "name": "",
          "type": "address"
        }
      ],
      "stateMutability": "view",
      "type": "function"
    },
    {
      "inputs": [
        {
          "internalType": "uint256",
          "name": "offset",
          "type": "uint256"
        },
        {
          "internalType": "uint256",
          "name": "limit",
          "type": "uint256"
        }
      ],
      "name": "getActiveListings",
      "outputs": [
        {
          "internalType": "bytes32[]",
          "name": "",
          "type": "bytes32[]"
        }
      ],
      "stateMutability": "view",
      "type": "function"
    },
    {
      "inputs": [
        {
          "internalType": "bytes32",
          "name": "listingId",
          "type": "bytes32"
        }
      ],
      "name": "getListing",
      "outputs": [
        {
          "components": [
            {
              "internalType": "address",
              "name": "seller",
              "type": "address"
            },
            {
              "internalType": "address",
              "name": "nftContract",
              "type": "address"
            },
            {
              "internalType": "uint256",
              "name": "tokenId",
              "type": "uint256"
            },
            {
              "internalType": "address",
              "name": "paymentToken",
              "type": "address"
            },
            {
              "internalType": "uint256",
              "name": "price",
              "type": "uint256"
            },
            {
              "internalType": "uint256",
              "name": "expiresAt",
              "type": "uint256"
            },
            {
              "internalType": "bool",
              "name": "active",
              "type": "bool"
            }
          ],
          "internalType": "struct GameMarketplace.Listing",
          "name": "",
          "type": "tuple"
        }
      ],
      "stateMutability": "view",
      "type": "function"
    },
    {
      "inputs": [
        {
          "internalType": "address",
          "name": "nftContract",
          "type": "address"
        }
      ],
      "name": "getListingsByNFTContract",
      "outputs": [
        {
          "internalType": "bytes32[]",
          "name": "",
          "type": "bytes32[]"
        }
      ],
      "stateMutability": "view",
      "type": "function"
    },
    {
      "inputs": [
        {
          "internalType": "bytes32",
          "name": "role",
          "type": "bytes32"
        }
      ],
      "name": "getRoleAdmin",
      "outputs": [
        {
          "internalType": "bytes32",
          "name": "",
          "type": "bytes32"
        }
      ],
      "stateMutability": "view",
      "type": "function"
    },
    {
      "inputs": [],
      "name": "getTotalActiveListings",
      "outputs": [
        {
          "internalType": "uint256",
          "name": "",
          "type": "uint256"
        }
      ],
      "stateMutability": "view",
      "type": "function"
    },
    {
      "inputs": [
        {
          "internalType": "bytes32",
          "name": "role",
          "type": "bytes32"
        },
        {
          "internalType": "address",
          "name": "account",
          "type": "address"
        }
      ],
      "name": "grantRole",
      "outputs": [],
      "stateMutability": "nonpayable",
      "type": "function"
    },
    {
      "inputs": [
        {
          "internalType": "bytes32",
          "name": "role",
          "type": "bytes32"
        },
        {
          "internalType": "address",
          "name": "account",
          "type": "address"
        }
      ],
      "name": "hasRole",
      "outputs": [
        {
          "internalType": "bool",
          "name": "",
          "type": "bool"
        }
      ],
      "stateMutability": "view",
      "type": "function"
    },
    {
      "inputs": [
        {
          "internalType": "address",
          "name": "_feeRecipient",
          "type": "address"
        }
      ],
      "name": "initialize",
      "outputs": [],
      "stateMutability": "nonpayable",
      "type": "function"
    },
    {
      "inputs": [
        {
          "internalType": "bytes32",
          "name": "listingId",
          "type": "bytes32"
        }
      ],
      "name": "isListingValid",
      "outputs": [
        {
          "internalType": "bool",
          "name": "",
          "type": "bool"
        }
      ],
      "stateMutability": "view",
      "type": "function"
    },
    {
      "inputs": [
        {
          "internalType": "address",
          "name": "nftContract",
          "type": "address"
        },
        {
          "internalType": "uint256",
          "name": "tokenId",
          "type": "uint256"
        },
        {
          "internalType": "address",
          "name": "paymentToken",
          "type": "address"
        },
        {
          "internalType": "uint256",
          "name": "price",
          "type": "uint256"
        },
        {
          "internalType": "uint256",
          "name": "duration",
          "type": "uint256"
        }
      ],
      "name": "listItem",
      "outputs": [],
      "stateMutability": "nonpayable",
      "type": "function"
    },
    {
      "inputs": [
        {
          "internalType": "bytes32",
          "name": "",
          "type": "bytes32"
        }
      ],
      "name": "listings",
      "outputs": [
        {
          "internalType": "address",
          "name": "seller",
          "type": "address"
        },
        {
          "internalType": "address",
          "name": "nftContract",
          "type": "address"
        },
        {
          "internalType": "uint256",
          "name": "tokenId",
          "type": "uint256"
        },
        {
          "internalType": "address",
          "name": "paymentToken",
          "type": "address"
        },
        {
          "internalType": "uint256",
          "name": "price",
          "type": "uint256"
        },
        {
          "internalType": "uint256",
          "name": "expiresAt",
          "type": "uint256"
        },
        {
          "internalType": "bool",
          "name": "active",
          "type": "bool"
        }
      ],
      "stateMutability": "view",
      "type": "function"
    },
    {
      "inputs": [],
      "name": "pause",
      "outputs": [],
      "stateMutability": "nonpayable",
      "type": "function"
    },
    {
      "inputs": [],
      "name": "paused",
      "outputs": [
        {
          "internalType": "bool",
          "name": "",
          "type": "bool"
        }
      ],
      "stateMutability": "view",
      "type": "function"
    },
    {
      "inputs": [],
      "name": "platformFeeBps",
      "outputs": [
        {
          "internalType": "uint256",
          "name": "",
          "type": "uint256"
        }
      ],
      "stateMutability": "view",
      "type": "function"
    },
    {
      "inputs": [],
      "name": "proxiableUUID",
      "outputs": [
        {
          "internalType": "bytes32",
          "name": "",
          "type": "bytes32"
        }
      ],
      "stateMutability": "view",
      "type": "function"
    },
    {
      "inputs": [
        {
          "internalType": "address",
          "name": "account",
          "type": "address"
        }
      ],
      "name": "removeAdmin",
      "outputs": [],
      "stateMutability": "nonpayable",
      "type": "function"
    },
    {
      "inputs": [
        {
          "internalType": "address",
          "name": "token",
          "type": "address"
        }
      ],
      "name": "removeSupportedToken",
      "outputs": [],
      "stateMutability": "nonpayable",
      "type": "function"
    },
    {
      "inputs": [
        {
          "internalType": "bytes32",
          "name": "role",
          "type": "bytes32"
        },
        {
          "internalType": "address",
          "name": "callerConfirmation",
          "type": "address"
        }
      ],
      "name": "renounceRole",
      "outputs": [],
      "stateMutability": "nonpayable",
      "type": "function"
    },
    {
      "inputs": [
        {
          "internalType": "bytes32",
          "name": "role",
          "type": "bytes32"
        },
        {
          "internalType": "address",
          "name": "account",
          "type": "address"
        }
      ],
      "name": "revokeRole",
      "outputs": [],
      "stateMutability": "nonpayable",
      "type": "function"
    },
    {
      "inputs": [
        {
          "internalType": "address",
          "name": "",
          "type": "address"
        }
      ],
      "name": "supportedTokens",
      "outputs": [
        {
          "internalType": "bool",
          "name": "",
          "type": "bool"
        }
      ],
      "stateMutability": "view",
      "type": "function"
    },
    {
      "inputs": [
        {
          "internalType": "bytes4",
          "name": "interfaceId",
          "type": "bytes4"
        }
      ],
      "name": "supportsInterface",
      "outputs": [
        {
          "internalType": "bool",
          "name": "",
          "type": "bool"
        }
      ],
      "stateMutability": "view",
      "type": "function"
    },
    {
      "inputs": [],
      "name": "unpause",
      "outputs": [],
      "stateMutability": "nonpayable",
      "type": "function"
    },
    {
      "inputs": [
        {
          "internalType": "address",
          "name": "newRecipient",
          "type": "address"
        }
      ],
      "name": "updateFeeRecipient",
      "outputs": [],
      "stateMutability": "nonpayable",
      "type": "function"
    },
    {
      "inputs": [
        {
          "internalType": "uint256",
          "name": "newFeeBps",
          "type": "uint256"
        }
      ],
      "name": "updatePlatformFee",
      "outputs": [],
      "stateMutability": "nonpayable",
      "type": "function"
    },
    {
      "inputs": [
        {
          "internalType": "address",
          "name": "newImplementation",
          "type": "address"
        },
        {
          "internalType": "bytes",
          "name": "data",
          "type": "bytes"
        }
      ],
      "name": "upgradeToAndCall",
      "outputs": [],
      "stateMutability": "payable",
      "type": "function"
    },
    {
      "inputs": [],
      "name": "version",
      "outputs": [
        {
          "internalType": "string",
          "name": "",
          "type": "string"
        }
      ],
      "stateMutability": "pure",
      "type": "function"
    }
  ],
  "bytecode": "0x60a06040523060805234801561001457600080fd5b5060805161365361003e6000396000818161241e0152818161244701526125b401526136536000f3fe6080604052600436106102305760003560e01c8063704802751161012e578063ad3cb1cc116100ab578063d547741f1161006f578063d547741f14610835578063d9fc267214610855578063e045243b1461088d578063f160d369146108ad578063f169bf07146108cd57600080fd5b8063ad3cb1cc146106f6578063c128b23114610727578063c18b8db414610747578063c428f4fe146107f5578063c4d66de81461081557600080fd5b80639299e552116100f25780639299e5521461066c57806399abc8d11461068c578063a217fddf146106ac578063a5298c4a146106c1578063aa0b5988146106d657600080fd5b806370480275146105d557806375b238fc146105f557806376319190146106175780638456cb591461063757806391d148541461064c57600080fd5b80633f4ba83a116101bc57806357aad9db1161018057806357aad9db146105135780635c975abb1461054057806368c4ac26146105655780636cf50d26146105955780636d69fcaf146105b557600080fd5b80633f4ba83a1461047c57806346904840146104915780634f1ef286146104c957806352d1902d146104dc57806354fd4d50146104f157600080fd5b806322dcd13e1161020357806322dcd13e146103d8578063248a9ca3146103fc57806328a124ad1461041c5780632f2ff15d1461043c57806336568abe1461045c57600080fd5b806301ffc9a714610235578063175c0d161461026a5780631785f53c146103965780631c71a03d146103b8575b600080fd5b34801561024157600080fd5b50610255610250366004612fca565b6108e0565b60405190151581526020015b60405180910390f35b34801561027657600080fd5b50610333610285366004612ff4565b6040805160e081018252600080825260208201819052918101829052606081018290526080810182905260a0810182905260c081019190915250600090815260026020818152604092839020835160e08101855281546001600160a01b03908116825260018301548116938201939093529281015493830193909352600383015416606082015260048201546080820152600582015460a082015260069091015460ff16151560c082015290565b604051610261919081516001600160a01b03908116825260208084015182169083015260408084015190830152606080840151909116908201526080808301519082015260a0828101519082015260c09182015115159181019190915260e00190565b3480156103a257600080fd5b506103b66103b1366004613022565b610917565b005b3480156103c457600080fd5b506103b66103d3366004612ff4565b61093e565b3480156103e457600080fd5b506103ee60005481565b604051908152602001610261565b34801561040857600080fd5b506103ee610417366004612ff4565b610b5c565b34801561042857600080fd5b50610255610437366004612ff4565b610b7e565b34801561044857600080fd5b506103b661045736600461303f565b610c9e565b34801561046857600080fd5b506103b661047736600461303f565b610cc0565b34801561048857600080fd5b506103b6610cf8565b34801561049d57600080fd5b506001546104b1906001600160a01b031681565b6040516001600160a01b039091168152602001610261565b6103b66104d7366004613085565b610d36565b3480156104e857600080fd5b506103ee610d51565b3480156104fd57600080fd5b50610506610d6e565b604051610261919061316d565b34801561051f57600080fd5b5061053361052e366004613022565b610d8e565b60405161026191906131a0565b34801561054c57600080fd5b506000805160206135be8339815191525460ff16610255565b34801561057157600080fd5b50610255610580366004613022565b60046020526000908152604090205460ff1681565b3480156105a157600080fd5b506103b66105b03660046131e4565b610edf565b3480156105c157600080fd5b506103b66105d0366004613022565b610f1a565b3480156105e157600080fd5b506103b66105f0366004613022565b610f72565b34801561060157600080fd5b506103ee6000805160206135fe83398151915281565b34801561062357600080fd5b506103b6610632366004613022565b610f95565b34801561064357600080fd5b506103b661104b565b34801561065857600080fd5b5061025561066736600461303f565b611087565b34801561067857600080fd5b506103b6610687366004612ff4565b6110bf565b34801561069857600080fd5b506103b66106a7366004613236565b6110e8565b3480156106b857600080fd5b506103ee600081565b3480156106cd57600080fd5b506005546103ee565b3480156106e257600080fd5b506103b66106f1366004612ff4565b61129a565b34801561070257600080fd5b50610506604051806040016040528060058152602001640352e302e360dc1b81525081565b34801561073357600080fd5b50610533610742366004613262565b61134a565b34801561075357600080fd5b506107b0610762366004612ff4565b600260208190526000918252604090912080546001820154928201546003830154600484015460058501546006909501546001600160a01b0394851696851695939490921692909160ff1687565b604080516001600160a01b0398891681529688166020880152860194909452949091166060840152608083015260a082019290925290151560c082015260e001610261565b34801561080157600080fd5b506103b66108103660046132d0565b611438565b34801561082157600080fd5b506103b6610830366004613022565b611508565b34801561084157600080fd5b506103b661085036600461303f565b611695565b34801561086157600080fd5b506103ee610870366004613236565b600360209081526000928352604080842090915290825290205481565b34801561089957600080fd5b506103b66108a8366004613370565b6116b1565b3480156108b957600080fd5b506103b66108c8366004613022565b6117bc565b6103b66108db366004612ff4565b61185c565b60006001600160e01b03198216637965db0b60e01b148061091157506301ffc9a760e01b6001600160e01b03198316145b92915050565b60006109228161214a565b61093a6000805160206135fe83398151915283611695565b5050565b610946612154565b600081815260026020526040902060018101546001600160a01b03166109a75760405162461bcd60e51b8152602060048201526011602482015270131a5cdd1a5b99c81b9bdd08199bdd5b99607a1b60448201526064015b60405180910390fd5b600181015460028201546040516331a9108f60e11b8152600481019190915233916001600160a01b031690636352211e90602401602060405180830381865afa1580156109f8573d6000803e3d6000fd5b505050506040513d601f19601f82011682018060405250810190610a1c91906133c5565b6001600160a01b031614610a645760405162461bcd60e51b815260206004820152600f60248201526e2737ba103a37b5b2b71037bbb732b960891b604482015260640161099e565b60018101546001600160a01b03166000908152600360209081526040808320600285015484529091529020548214610ace5760405162461bcd60e51b815260206004820152600d60248201526c29ba30b632903837b4b73a32b960991b604482015260640161099e565b600681015460ff1615610ae957610ae48261218c565b610b16565b60018101546001600160a01b03166000908152600360209081526040808320600285015484529091528120555b60405182907f9210d6774ad7b502b3da4d2c233cb4913c6254bedbae89dfa93e0594a363975790600090a250610b5960016000805160206135de83398151915255565b50565b600090815260008051602061359e833981519152602052604090206001015490565b6000818152600260208181526040808420815160e08101835281546001600160a01b039081168252600183015481169482019490945293810154918401919091526003810154909116606083015260048101546080830152600581015460a08301526006015460ff1615801560c0830181905290610c0057508060a001514211155b8015610c97575080600001516001600160a01b031681602001516001600160a01b0316636352211e83604001516040518263ffffffff1660e01b8152600401610c4b91815260200190565b602060405180830381865afa158015610c68573d6000803e3d6000fd5b505050506040513d601f19601f82011682018060405250810190610c8c91906133c5565b6001600160a01b0316145b9392505050565b610ca782610b5c565b610cb08161214a565b610cba8383612298565b50505050565b6001600160a01b0381163314610ce95760405163334bd91960e11b815260040160405180910390fd5b610cf3828261233d565b505050565b610d106000805160206135fe83398151915233611087565b610d2c5760405162461bcd60e51b815260040161099e906133e2565b610d346123b9565b565b610d3e612413565b610d47826124b8565b61093a82826124ec565b6000610d5b6125a9565b5060008051602061357e83398151915290565b606060405180606001604052806039815260200161354560399139905090565b60606000805b600554811015610e0257836001600160a01b03166002600060058481548110610dbf57610dbf613405565b600091825260208083209091015483528201929092526040019020600101546001600160a01b031603610dfa5781610df681613431565b9250505b600101610d94565b5060008167ffffffffffffffff811115610e1e57610e1e61306f565b604051908082528060200260200182016040528015610e47578160200160208202803683370190505b5090506000805b600554811015610ed557600060058281548110610e6d57610e6d613405565b600091825260208083209091015480835260029091526040909120600101549091506001600160a01b03808916911603610ecc57808484610ead81613431565b955081518110610ebf57610ebf613405565b6020026020010181815250505b50600101610e4e565b5090949350505050565b610ee76125f2565b610eef612154565b610efc8585858585612623565b610f1360016000805160206135de83398151915255565b5050505050565b610f326000805160206135fe83398151915233611087565b610f4e5760405162461bcd60e51b815260040161099e906133e2565b6001600160a01b03166000908152600460205260409020805460ff19166001179055565b6000610f7d8161214a565b61093a6000805160206135fe83398151915283610c9e565b610fad6000805160206135fe83398151915233611087565b610fc95760405162461bcd60e51b815260040161099e906133e2565b6001600160a01b03811661102a5760405162461bcd60e51b815260206004820152602260248201527f43616e6e6f742072656d6f7665206e617469766520746f6b656e20737570706f6044820152611c9d60f21b606482015260840161099e565b6001600160a01b03166000908152600460205260409020805460ff19169055565b6110636000805160206135fe83398151915233611087565b61107f5760405162461bcd60e51b815260040161099e906133e2565b610d34612bea565b600091825260008051602061359e833981519152602090815260408084206001600160a01b0393909316845291905290205460ff1690565b6110c7612154565b6110d18133612c33565b610b5960016000805160206135de83398151915255565b6110f0612154565b6040516331a9108f60e11b81526004810182905233906001600160a01b03841690636352211e90602401602060405180830381865afa158015611137573d6000803e3d6000fd5b505050506040513d601f19601f8201168201806040525081019061115b91906133c5565b6001600160a01b0316146111a35760405162461bcd60e51b815260206004820152600f60248201526e2737ba103a37b5b2b71037bbb732b960891b604482015260640161099e565b6001600160a01b0382166000908152600360209081526040808320848452909152902054806112085760405162461bcd60e51b815260206004820152601160248201527027379030b1ba34bb32903837b4b73a32b960791b604482015260640161099e565b6000818152600260205260409020600681015460ff16156112315761122c8261218c565b611256565b6001600160a01b03841660009081526003602090815260408083208684529091528120555b60405182907f9210d6774ad7b502b3da4d2c233cb4913c6254bedbae89dfa93e0594a363975790600090a2505061093a60016000805160206135de83398151915255565b6112b26000805160206135fe83398151915233611087565b6112ce5760405162461bcd60e51b815260040161099e906133e2565b6103e881111561130e5760405162461bcd60e51b815260206004820152600b60248201526a4d6178203130252066656560a81b604482015260640161099e565b60008190556040518181527f45610d581145924dd7090a5017e5f2b1d6f42213bb2e95707ff86846bbfcb1ca906020015b60405180910390a150565b60055460609080841061136d575050604080516000815260208101909152610911565b6000611379848661344a565b9050818111156113865750805b6000611392868361345d565b67ffffffffffffffff8111156113aa576113aa61306f565b6040519080825280602002602001820160405280156113d3578160200160208202803683370190505b509050855b8281101561142e57600581815481106113f3576113f3613405565b906000526020600020015482888361140b919061345d565b8151811061141b5761141b613405565b60209081029190910101526001016113d8565b5095945050505050565b6114406125f2565b611448612154565b8482146114975760405162461bcd60e51b815260206004820152601e60248201527f49447320616e6420707269636573206c656e677468206d69736d617463680000604482015260640161099e565b60005b858110156114e7576114df888888848181106114b8576114b8613405565b90506020020135878787868181106114d2576114d2613405565b9050602002013586612623565b60010161149a565b506114ff60016000805160206135de83398151915255565b50505050505050565b6000611512612d04565b805490915060ff600160401b820416159067ffffffffffffffff1660008115801561153a5750825b905060008267ffffffffffffffff1660011480156115575750303b155b905081158015611565575080155b156115835760405163f92ee8a960e01b815260040160405180910390fd5b845467ffffffffffffffff1916600117855583156115ad57845460ff60401b1916600160401b1785555b6115b5612d2d565b6115bd612d3d565b6115c5612d3d565b6115cd612d3d565b60fa6000908155600180546001600160a01b0319166001600160a01b03891617815581805260046020527f17ef568e3e12ab5b9c7254a8d58478811de00f9e6eb34345acd53bf8fd09d3ec805460ff1916909117905561162d9033612298565b506116466000805160206135fe83398151915233612298565b50831561168d57845460ff60401b19168555604051600181527fc7f505b2f371ae2175ee4913f4499e1f2633a7b5936321eed1cdaeb6115181d29060200160405180910390a15b505050505050565b61169e82610b5c565b6116a78161214a565b610cba838361233d565b6116b9612154565b806116fd5760405162461bcd60e51b8152602060048201526014602482015273139bc81d1bdad95b92591cc81c1c9bdd9a59195960621b604482015260640161099e565b60005b818110156117a4576001600160a01b03841660009081526003602052604081208185858581811061173357611733613405565b9050602002013581526020019081526020016000205490506000801b81036117915760405162461bcd60e51b8152602060048201526011602482015270131a5cdd1a5b99c81b9bdd08199bdd5b99607a1b604482015260640161099e565b61179b8133612c33565b50600101611700565b50610cf360016000805160206135de83398151915255565b6117d46000805160206135fe83398151915233611087565b6117f05760405162461bcd60e51b815260040161099e906133e2565b6001600160a01b03811661183a5760405162461bcd60e51b8152602060048201526011602482015270125b9d985b1a59081c9958da5c1a595b9d607a1b604482015260640161099e565b600180546001600160a01b0319166001600160a01b0392909216919091179055565b6118646125f2565b61186c612154565b6000818152600260205260409020600681015460ff166118c35760405162461bcd60e51b81526020600482015260126024820152714c697374696e67206e6f742061637469766560701b604482015260640161099e565b80600501544211156119095760405162461bcd60e51b815260206004820152600f60248201526e131a5cdd1a5b99c8195e1c1a5c9959608a1b604482015260640161099e565b80546001600160a01b031633036119625760405162461bcd60e51b815260206004820152601860248201527f43616e6e6f742062757920796f7572206f776e206974656d0000000000000000604482015260640161099e565b8054600182015460028301546040516331a9108f60e11b815260048101919091526001600160a01b039283169290911690636352211e90602401602060405180830381865afa1580156119b9573d6000803e3d6000fd5b505050506040513d601f19601f820116820180604052508101906119dd91906133c5565b6001600160a01b031614611a335760405162461bcd60e51b815260206004820152601d60248201527f53656c6c6572206e6f206c6f6e676572206f776e7320746865204e4654000000604482015260640161099e565b60048101546000805461271090611a4a9084613470565b611a549190613487565b60018401546040516301ffc9a760e01b815263152a902d60e11b600482015291925060009182916001600160a01b0316906301ffc9a790602401602060405180830381865afa158015611aab573d6000803e3d6000fd5b505050506040513d601f19601f82011682018060405250810190611acf91906134a9565b15611b59576001850154600286015460405163152a902d60e11b81526001600160a01b0390921691632a55205a91611b14918890600401918252602082015260400190565b6040805180830381865afa158015611b30573d6000803e3d6000fd5b505050506040513d601f19601f82011682018060405250810190611b5491906134cb565b925090505b600082611b66858761345d565b611b70919061345d565b60038701549091506001600160a01b0316611ce25784341015611bcc5760405162461bcd60e51b8152602060048201526014602482015273125b9cdd59999a58da595b9d081c185e5b595b9d60621b604482015260640161099e565b8315611c0e576001546040516001600160a01b039091169085156108fc029086906000818181858888f19350505050158015611c0c573d6000803e3d6000fd5b505b600083118015611c2657506001600160a01b03821615155b15611c63576040516001600160a01b0383169084156108fc029085906000818181858888f19350505050158015611c61573d6000803e3d6000fd5b505b85546040516001600160a01b039091169082156108fc029083906000818181858888f19350505050158015611c9c573d6000803e3d6000fd5b5084341115611cdd57336108fc611cb3873461345d565b6040518115909202916000818181858888f19350505050158015611cdb573d6000803e3d6000fd5b505b61205c565b3415611d305760405162461bcd60e51b815260206004820152601860248201527f4e6f206e617469766520746f6b656e2072657175697265640000000000000000604482015260640161099e565b60038601546040516323b872dd60e01b8152336004820152306024820152604481018790526001600160a01b039091169081906323b872dd906064016020604051808303816000875af1158015611d8b573d6000803e3d6000fd5b505050506040513d601f19601f82011682018060405250810190611daf91906134a9565b611dfb5760405162461bcd60e51b815260206004820152601760248201527f5061796d656e74207472616e73666572206661696c6564000000000000000000604482015260640161099e565b8415611ec45760015460405163a9059cbb60e01b81526001600160a01b039182166004820152602481018790529082169063a9059cbb906044016020604051808303816000875af1158015611e54573d6000803e3d6000fd5b505050506040513d601f19601f82011682018060405250810190611e7891906134a9565b611ec45760405162461bcd60e51b815260206004820152601c60248201527f506c6174666f726d20666565207472616e73666572206661696c656400000000604482015260640161099e565b600084118015611edc57506001600160a01b03831615155b15611fa05760405163a9059cbb60e01b81526001600160a01b0384811660048301526024820186905282169063a9059cbb906044016020604051808303816000875af1158015611f30573d6000803e3d6000fd5b505050506040513d601f19601f82011682018060405250810190611f5491906134a9565b611fa05760405162461bcd60e51b815260206004820152601760248201527f526f79616c7479207472616e73666572206661696c6564000000000000000000604482015260640161099e565b865460405163a9059cbb60e01b81526001600160a01b039182166004820152602481018490529082169063a9059cbb906044016020604051808303816000875af1158015611ff2573d6000803e3d6000fd5b505050506040513d601f19601f8201168201806040525081019061201691906134a9565b61205a5760405162461bcd60e51b815260206004820152601560248201527414d95b1b195c881c185e5b595b9d0819985a5b1959605a1b604482015260640161099e565b505b600186015486546002880154604051632142170760e11b81526001600160a01b03928316600482015233602482015260448101919091529116906342842e0e90606401600060405180830381600087803b1580156120b957600080fd5b505af11580156120cd573d6000803e3d6000fd5b505050506120da8761218c565b855460408051878152602081018790529081018590526001600160a01b0390911690339089907fda38a7a919ab0a9684c429dd79e2e021129c204df35dfcd9c0eba65ca24904f69060600160405180910390a4505050505050610b5960016000805160206135de83398151915255565b610b598133612d45565b6000805160206135de83398151915280546001190161218657604051633ee5aeb560e01b815260040160405180910390fd5b60029055565b60008181526002602081815260408084206006808201805460ff191690556001808301546001600160a01b03168752600385528387209583015487529484528286208690558686529092528320546005805492949193919290916121ef9161345d565b815481106121ff576121ff613405565b90600052602060002001549050806005838154811061222057612220613405565b60009182526020808320909101929092558281526006909152604090208290556005805480612251576122516134f9565b60019003818190600052602060002001600090559055600660008581526020019081526020016000206000905550505050565b60016000805160206135de83398151915255565b600060008051602061359e8339815191526122b38484611087565b612333576000848152602082815260408083206001600160a01b03871684529091529020805460ff191660011790556122e93390565b6001600160a01b0316836001600160a01b0316857f2f8788117e7eff1d82e926ec794901d17c78024a50270940304540a733656f0d60405160405180910390a46001915050610911565b6000915050610911565b600060008051602061359e8339815191526123588484611087565b15612333576000848152602082815260408083206001600160a01b0387168085529252808320805460ff1916905551339287917ff6391f5c32d9c69d2a47ea670b442974b53935d1edc7fd64eb21e047a839171b9190a46001915050610911565b6123c1612d7e565b6000805160206135be833981519152805460ff191681557f5db9ee0a495bf2e6ff9c91a7834c1ba4fdd244a5e8aa4e537bd38aeae4b073aa335b6040516001600160a01b03909116815260200161133f565b306001600160a01b037f000000000000000000000000000000000000000000000000000000000000000016148061249a57507f00000000000000000000000000000000000000000000000000000000000000006001600160a01b031661248e60008051602061357e833981519152546001600160a01b031690565b6001600160a01b031614155b15610d345760405163703e46dd60e11b815260040160405180910390fd5b6124d06000805160206135fe83398151915233611087565b610b595760405162461bcd60e51b815260040161099e906133e2565b816001600160a01b03166352d1902d6040518163ffffffff1660e01b8152600401602060405180830381865afa925050508015612546575060408051601f3d908101601f191682019092526125439181019061350f565b60015b61256e57604051634c9c8ce360e01b81526001600160a01b038316600482015260240161099e565b60008051602061357e833981519152811461259f57604051632a87526960e21b81526004810182905260240161099e565b610cf38383612dae565b306001600160a01b037f00000000000000000000000000000000000000000000000000000000000000001614610d345760405163703e46dd60e11b815260040160405180910390fd5b6000805160206135be8339815191525460ff1615610d345760405163d93c066560e01b815260040160405180910390fd5b600082116126675760405162461bcd60e51b815260206004820152601160248201527005072696365206d757374206265203e203607c1b604482015260640161099e565b600081116126ae5760405162461bcd60e51b815260206004820152601460248201527304475726174696f6e206d757374206265203e20360641b604482015260640161099e565b6001600160a01b03831660009081526004602052604090205460ff1661270e5760405162461bcd60e51b815260206004820152601560248201527414185e5b595b9d081b9bdd081cdd5c1c1bdc9d1959605a1b604482015260640161099e565b6040516331a9108f60e11b81526004810185905233906001600160a01b03871690636352211e90602401602060405180830381865afa158015612755573d6000803e3d6000fd5b505050506040513d601f19601f8201168201806040525081019061277991906133c5565b6001600160a01b0316146127bb5760405162461bcd60e51b81526020600482015260096024820152682737ba1037bbb732b960b91b604482015260640161099e565b60405163e985e9c560e01b81523360048201523060248201526001600160a01b0386169063e985e9c590604401602060405180830381865afa158015612805573d6000803e3d6000fd5b505050506040513d601f19601f8201168201806040525081019061282991906134a9565b806128a5575060405163020604bf60e21b81526004810185905230906001600160a01b0387169063081812fc90602401602060405180830381865afa158015612876573d6000803e3d6000fd5b505050506040513d601f19601f8201168201806040525081019061289a91906133c5565b6001600160a01b0316145b6128e05760405162461bcd60e51b815260206004820152600c60248201526b139bdd08185c1c1c9bdd995960a21b604482015260640161099e565b6001600160a01b0385166000908152600360209081526040808320878452909152902054801580612923575060008181526002602052604090206006015460ff16155b6129605760405162461bcd60e51b815260206004820152600e60248201526d105b1c9958591e481b1a5cdd195960921b604482015260640161099e565b6040516bffffffffffffffffffffffff1933606090811b8216602084015288901b16603482015260488101869052426068820152600090608801604051602081830303815290604052805190602001209050600083426129c0919061344a565b90506040518060e00160405280336001600160a01b03168152602001896001600160a01b03168152602001888152602001876001600160a01b03168152602001868152602001828152602001600115158152506002600084815260200190815260200160002060008201518160000160006101000a8154816001600160a01b0302191690836001600160a01b0316021790555060208201518160010160006101000a8154816001600160a01b0302191690836001600160a01b031602179055506040820151816002015560608201518160030160006101000a8154816001600160a01b0302191690836001600160a01b031602179055506080820151816004015560a0820151816005015560c08201518160060160006101000a81548160ff02191690831515021790555090505081600360008a6001600160a01b03166001600160a01b0316815260200190815260200160002060008981526020019081526020016000208190555060058054905060066000848152602001908152602001600020819055506005829080600181540180825580915050600190039060005260206000200160009091909190915055876001600160a01b0316336001600160a01b0316837f192e2b5b1f4594bbc239ed354e6ff81c8b6adfd9e51bd58c2f4d5dd392c2fce08a8a8a87604051612bd894939291909384526001600160a01b039290921660208401526040830152606082015260800190565b60405180910390a45050505050505050565b612bf26125f2565b6000805160206135be833981519152805460ff191660011781557f62e78cea01bee320cd4e420270b5ea74000d11b0c9f74754ebdbfc544b05a258336123fb565b6000828152600260205260409020600681015460ff16612c825760405162461bcd60e51b815260206004820152600a6024820152694e6f742061637469766560b01b604482015260640161099e565b80546001600160a01b03838116911614612ccb5760405162461bcd60e51b815260206004820152600a6024820152692737ba1039b2b63632b960b11b604482015260640161099e565b612cd48361218c565b60405183907f9210d6774ad7b502b3da4d2c233cb4913c6254bedbae89dfa93e0594a363975790600090a2505050565b6000807ff0c57e16840df040f15088dc2f81fe391c3923bec73e23a9662efc9c229c6a00610911565b612d35612e04565b610d34612e29565b610d34612e04565b612d4f8282611087565b61093a5760405163e2517d3f60e01b81526001600160a01b03821660048201526024810183905260440161099e565b6000805160206135be8339815191525460ff16610d3457604051638dfc202b60e01b815260040160405180910390fd5b612db782612e31565b6040516001600160a01b038316907fbc7cd75a20ee27fd9adebab32041f755214dbc6bffa90cc0225b39da2e5c2d3b90600090a2805115612dfc57610cf38282612e96565b61093a612f0c565b612e0c612f2b565b610d3457604051631afcd79f60e31b815260040160405180910390fd5b612284612e04565b806001600160a01b03163b600003612e6757604051634c9c8ce360e01b81526001600160a01b038216600482015260240161099e565b60008051602061357e83398151915280546001600160a01b0319166001600160a01b0392909216919091179055565b6060600080846001600160a01b031684604051612eb39190613528565b600060405180830381855af49150503d8060008114612eee576040519150601f19603f3d011682016040523d82523d6000602084013e612ef3565b606091505b5091509150612f03858383612f45565b95945050505050565b3415610d345760405163b398979f60e01b815260040160405180910390fd5b6000612f35612d04565b54600160401b900460ff16919050565b606082612f5a57612f5582612fa1565b610c97565b8151158015612f7157506001600160a01b0384163b155b15612f9a57604051639996b31560e01b81526001600160a01b038516600482015260240161099e565b5092915050565b805115612fb15780518082602001fd5b60405163d6bda27560e01b815260040160405180910390fd5b600060208284031215612fdc57600080fd5b81356001600160e01b031981168114610c9757600080fd5b60006020828403121561300657600080fd5b5035919050565b6001600160a01b0381168114610b5957600080fd5b60006020828403121561303457600080fd5b8135610c978161300d565b6000806040838503121561305257600080fd5b8235915060208301356130648161300d565b809150509250929050565b634e487b7160e01b600052604160045260246000fd5b6000806040838503121561309857600080fd5b82356130a38161300d565b9150602083013567ffffffffffffffff808211156130c057600080fd5b818501915085601f8301126130d457600080fd5b8135818111156130e6576130e661306f565b604051601f8201601f19908116603f0116810190838211818310171561310e5761310e61306f565b8160405282815288602084870101111561312757600080fd5b8260208601602083013760006020848301015280955050505050509250929050565b60005b8381101561316457818101518382015260200161314c565b50506000910152565b602081526000825180602084015261318c816040850160208701613149565b601f01601f19169190910160400192915050565b6020808252825182820181905260009190848201906040850190845b818110156131d8578351835292840192918401916001016131bc565b50909695505050505050565b600080600080600060a086880312156131fc57600080fd5b85356132078161300d565b945060208601359350604086013561321e8161300d565b94979396509394606081013594506080013592915050565b6000806040838503121561324957600080fd5b82356132548161300d565b946020939093013593505050565b6000806040838503121561327557600080fd5b50508035926020909101359150565b60008083601f84011261329657600080fd5b50813567ffffffffffffffff8111156132ae57600080fd5b6020830191508360208260051b85010111156132c957600080fd5b9250929050565b600080600080600080600060a0888a0312156132eb57600080fd5b87356132f68161300d565b9650602088013567ffffffffffffffff8082111561331357600080fd5b61331f8b838c01613284565b909850965060408a013591506133348261300d565b9094506060890135908082111561334a57600080fd5b506133578a828b01613284565b989b979a50959894979596608090950135949350505050565b60008060006040848603121561338557600080fd5b83356133908161300d565b9250602084013567ffffffffffffffff8111156133ac57600080fd5b6133b886828701613284565b9497909650939450505050565b6000602082840312156133d757600080fd5b8151610c978161300d565b6020808252600990820152682737ba1030b236b4b760b91b604082015260600190565b634e487b7160e01b600052603260045260246000fd5b634e487b7160e01b600052601160045260246000fd5b6000600182016134435761344361341b565b5060010190565b808201808211156109115761091161341b565b818103818111156109115761091161341b565b80820281158282048414176109115761091161341b565b6000826134a457634e487b7160e01b600052601260045260246000fd5b500490565b6000602082840312156134bb57600080fd5b81518015158114610c9757600080fd5b600080604083850312156134de57600080fd5b82516134e98161300d565b6020939093015192949293505050565b634e487b7160e01b600052603160045260246000fd5b60006020828403121561352157600080fd5b5051919050565b6000825161353a818460208701613149565b919091019291505056fe47616d654d61726b6574706c61636520563220286d616e75616c20756e6c6973742062792063757272656e7420746f6b656e206f776e657229360894a13ba1a3210667c828492db98dca3e2076cc3735a920a3ca505d382bbc02dd7bc7dec4dceedda775e58dd541e08a116c6c53815c0bd028192f7b626800cd5ed15c6e187e77e9aee88184c21f4f2182ab5827cb3b7e07fbedcd63f033009b779b17422d0df92223018b32b4d1fa46e071723d6817e2486d003becc55f00a49807205ce4d355092ef5a8a18f56e8913cf4a201fbe287825b095693c21775a2646970667358221220f7ad4fc7078d999ac82c9434e0e83e5b98410273f8d23f8f82d37ae432f915c864736f6c63430008160033",
  "linkReferences": {},
  "deployedLinkReferences": {}
}