{
  "_format": "hh-sol-artifact-1",
  "contractName": "IncentiveEngine",
  "sourceName": "contracts/IncentiveEngine.sol",
  "abi": [
    {
      "inputs": [],
      "name": "AccessControlBadConfirmation",
      "type": "error"
    },
    {
      "inputs": [
        {
          "internalType": "address",
          "name": "account",
          "type": "address"
        },
        {
          "internalType": "bytes32",
          "name": "neededRole",
          "type": "bytes32"
        }
      ],
      "name": "AccessControlUnauthorizedAccount",
      "type": "error"
    },
    {
      "inputs": [
        {
          "internalType": "address",
          "name": "target",
          "type": "address"
        }
      ],
      "name": "AddressEmptyCode",
      "type": "error"
    },
    {
      "inputs": [
        {
          "internalType": "address",
          "name": "implementation",
          "type": "address"
        }
      ],
      "name": "ERC1967InvalidImplementation",
      "type": "error"
    },
    {
      "inputs": [],
      "name": "ERC1967NonPayable",
      "type": "error"
    },
    {
      "inputs": [],
      "name": "FailedCall",
      "type": "error"
    },
    {
      "inputs": [],
      "name": "InvalidInitialization",
      "type": "error"
    },
    {
      "inputs": [],
      "name": "NotInitializing",
      "type": "error"
    },
    {
      "inputs": [],
      "name": "ReentrancyGuardReentrantCall",
      "type": "error"
    },
    {
      "inputs": [],
      "name": "UUPSUnauthorizedCallContext",
      "type": "error"
    },
    {
      "inputs": [
        {
          "internalType": "bytes32",
          "name": "slot",
          "type": "bytes32"
        }
      ],
      "name": "UUPSUnsupportedProxiableUUID",
      "type": "error"
    },
    {
      "anonymous": false,
      "inputs": [
        {
          "indexed": true,
          "internalType": "address",
          "name": "user",
          "type": "address"
        },
        {
          "indexed": true,
          "internalType": "address",
          "name": "token",
          "type": "address"
        },
        {
          "indexed": false,
          "internalType": "uint256",
          "name": "amount",
          "type": "uint256"
        }
      ],
      "name": "Claimed",
      "type": "event"
    },
    {
      "anonymous": false,
      "inputs": [
        {
          "indexed": true,
          "internalType": "address",
          "name": "user",
          "type": "address"
        },
        {
          "indexed": true,
          "internalType": "address",
          "name": "token",
          "type": "address"
        },
        {
          "indexed": true,
          "internalType": "address",
          "name": "to",
          "type": "address"
        },
        {
          "indexed": false,
          "internalType": "uint256",
          "name": "amount",
          "type": "uint256"
        }
      ],
      "name": "ClaimedTo",
      "type": "event"
    },
    {
      "anonymous": false,
      "inputs": [
        {
          "indexed": false,
          "internalType": "uint64",
          "name": "version",
          "type": "uint64"
        }
      ],
      "name": "Initialized",
      "type": "event"
    },
    {
      "anonymous": false,
      "inputs": [
        {
          "indexed": true,
          "internalType": "address",
          "name": "user",
          "type": "address"
        },
        {
          "indexed": true,
          "internalType": "address",
          "name": "newPayout",
          "type": "address"
        }
      ],
      "name": "PayoutAddressSet",
      "type": "event"
    },
    {
      "anonymous": false,
      "inputs": [
        {
          "indexed": true,
          "internalType": "bytes32",
          "name": "scope",
          "type": "bytes32"
        },
        {
          "indexed": true,
          "internalType": "address",
          "name": "buyer",
          "type": "address"
        },
        {
          "indexed": false,
          "internalType": "address",
          "name": "l1",
          "type": "address"
        },
        {
          "indexed": false,
          "internalType": "address",
          "name": "l2",
          "type": "address"
        },
        {
          "indexed": false,
          "internalType": "address",
          "name": "token",
          "type": "address"
        },
        {
          "indexed": false,
          "internalType": "uint256",
          "name": "pool",
          "type": "uint256"
        },
        {
          "indexed": false,
          "internalType": "uint256",
          "name": "toBuyer",
          "type": "uint256"
        },
        {
          "indexed": false,
          "internalType": "uint256",
          "name": "toL1",
          "type": "uint256"
        },
        {
          "indexed": false,
          "internalType": "uint256",
          "name": "toL2",
          "type": "uint256"
        },
        {
          "indexed": false,
          "internalType": "uint256",
          "name": "toTreasury",
          "type": "uint256"
        }
      ],
      "name": "PoolSettled",
      "type": "event"
    },
    {
      "anonymous": false,
      "inputs": [
        {
          "indexed": true,
          "internalType": "address",
          "name": "registry",
          "type": "address"
        }
      ],
      "name": "RegistrySet",
      "type": "event"
    },
    {
      "anonymous": false,
      "inputs": [
        {
          "indexed": true,
          "internalType": "bytes32",
          "name": "role",
          "type": "bytes32"
        },
        {
          "indexed": true,
          "internalType": "bytes32",
          "name": "previousAdminRole",
          "type": "bytes32"
        },
        {
          "indexed": true,
          "internalType": "bytes32",
          "name": "newAdminRole",
          "type": "bytes32"
        }
      ],
      "name": "RoleAdminChanged",
      "type": "event"
    },
    {
      "anonymous": false,
      "inputs": [
        {
          "indexed": true,
          "internalType": "bytes32",
          "name": "role",
          "type": "bytes32"
        },
        {
          "indexed": true,
          "internalType": "address",
          "name": "account",
          "type": "address"
        },
        {
          "indexed": true,
          "internalType": "address",
          "name": "sender",
          "type": "address"
        }
      ],
      "name": "RoleGranted",
      "type": "event"
    },
    {
      "anonymous": false,
      "inputs": [
        {
          "indexed": true,
          "internalType": "bytes32",
          "name": "role",
          "type": "bytes32"
        },
        {
          "indexed": true,
          "internalType": "address",
          "name": "account",
          "type": "address"
        },
        {
          "indexed": true,
          "internalType": "address",
          "name": "sender",
          "type": "address"
        }
      ],
      "name": "RoleRevoked",
      "type": "event"
    },
    {
      "anonymous": false,
      "inputs": [
        {
          "indexed": true,
          "internalType": "bytes32",
          "name": "scope",
          "type": "bytes32"
        },
        {
          "indexed": false,
          "internalType": "uint16",
          "name": "buyerCashbackBps",
          "type": "uint16"
        },
        {
          "indexed": false,
          "internalType": "uint16",
          "name": "l1ReferrerBps",
          "type": "uint16"
        },
        {
          "indexed": false,
          "internalType": "uint16",
          "name": "l2ReferrerBps",
          "type": "uint16"
        },
        {
          "indexed": false,
          "internalType": "address",
          "name": "payoutToken",
          "type": "address"
        },
        {
          "indexed": false,
          "internalType": "address",
          "name": "treasury",
          "type": "address"
        },
        {
          "indexed": false,
          "internalType": "bool",
          "name": "recycleMissingToBuyer",
          "type": "bool"
        },
        {
          "indexed": false,
          "internalType": "bool",
          "name": "recycleMissingToSeller",
          "type": "bool"
        },
        {
          "indexed": false,
          "internalType": "bool",
          "name": "active",
          "type": "bool"
        }
      ],
      "name": "SplitSet",
      "type": "event"
    },
    {
      "anonymous": false,
      "inputs": [
        {
          "indexed": true,
          "internalType": "address",
          "name": "implementation",
          "type": "address"
        }
      ],
      "name": "Upgraded",
      "type": "event"
    },
    {
      "inputs": [],
      "name": "ADMIN_ROLE",
      "outputs": [
        {
          "internalType": "bytes32",
          "name": "",
          "type": "bytes32"
        }
      ],
      "stateMutability": "view",
      "type": "function"
    },
    {
      "inputs": [],
      "name": "DEFAULT_ADMIN_ROLE",
      "outputs": [
        {
          "internalType": "bytes32",
          "name": "",
          "type": "bytes32"
        }
      ],
      "stateMutability": "view",
      "type": "function"
    },
    {
      "inputs": [],
      "name": "UPGRADE_INTERFACE_VERSION",
      "outputs": [
        {
          "internalType": "string",
          "name": "",
          "type": "string"
        }
      ],
      "stateMutability": "view",
      "type": "function"
    },
    {
      "inputs": [
        {
          "internalType": "address",
          "name": "token",
          "type": "address"
        }
      ],
      "name": "claim",
      "outputs": [],
      "stateMutability": "nonpayable",
      "type": "function"
    },
    {
      "inputs": [
        {
          "internalType": "address",
          "name": "token",
          "type": "address"
        },
        {
          "internalType": "address",
          "name": "to",
          "type": "address"
        }
      ],
      "name": "claimTo",
      "outputs": [],
      "stateMutability": "nonpayable",
      "type": "function"
    },
    {
      "inputs": [
        {
          "internalType": "address",
          "name": "",
          "type": "address"
        },
        {
          "internalType": "address",
          "name": "",
          "type": "address"
        }
      ],
      "name": "claimable",
      "outputs": [
        {
          "internalType": "uint256",
          "name": "",
          "type": "uint256"
        }
      ],
      "stateMutability": "view",
      "type": "function"
    },
    {
      "inputs": [
        {
          "internalType": "address",
          "name": "user",
          "type": "address"
        },
        {
          "internalType": "address",
          "name": "token",
          "type": "address"
        }
      ],
      "name": "claimableOf",
      "outputs": [
        {
          "internalType": "uint256",
          "name": "",
          "type": "uint256"
        }
      ],
      "stateMutability": "view",
      "type": "function"
    },
    {
      "inputs": [
        {
          "internalType": "bytes32",
          "name": "role",
          "type": "bytes32"
        }
      ],
      "name": "getRoleAdmin",
      "outputs": [
        {
          "internalType": "bytes32",
          "name": "",
          "type": "bytes32"
        }
      ],
      "stateMutability": "view",
      "type": "function"
    },
    {
      "inputs": [
        {
          "internalType": "bytes32",
          "name": "role",
          "type": "bytes32"
        },
        {
          "internalType": "address",
          "name": "account",
          "type": "address"
        }
      ],
      "name": "grantRole",
      "outputs": [],
      "stateMutability": "nonpayable",
      "type": "function"
    },
    {
      "inputs": [
        {
          "internalType": "bytes32",
          "name": "role",
          "type": "bytes32"
        },
        {
          "internalType": "address",
          "name": "account",
          "type": "address"
        }
      ],
      "name": "hasRole",
      "outputs": [
        {
          "internalType": "bool",
          "name": "",
          "type": "bool"
        }
      ],
      "stateMutability": "view",
      "type": "function"
    },
    {
      "inputs": [
        {
          "internalType": "address",
          "name": "admin",
          "type": "address"
        },
        {
          "internalType": "address",
          "name": "_registry",
          "type": "address"
        }
      ],
      "name": "initialize",
      "outputs": [],
      "stateMutability": "nonpayable",
      "type": "function"
    },
    {
      "inputs": [
        {
          "internalType": "address[]",
          "name": "tokens",
          "type": "address[]"
        }
      ],
      "name": "migrateAll",
      "outputs": [],
      "stateMutability": "nonpayable",
      "type": "function"
    },
    {
      "inputs": [
        {
          "internalType": "address",
          "name": "",
          "type": "address"
        }
      ],
      "name": "payoutOf",
      "outputs": [
        {
          "internalType": "address",
          "name": "",
          "type": "address"
        }
      ],
      "stateMutability": "view",
      "type": "function"
    },
    {
      "inputs": [],
      "name": "proxiableUUID",
      "outputs": [
        {
          "internalType": "bytes32",
          "name": "",
          "type": "bytes32"
        }
      ],
      "stateMutability": "view",
      "type": "function"
    },
    {
      "inputs": [],
      "name": "registry",
      "outputs": [
        {
          "internalType": "contract IReferralRegistry",
          "name": "",
          "type": "address"
        }
      ],
      "stateMutability": "view",
      "type": "function"
    },
    {
      "inputs": [
        {
          "internalType": "bytes32",
          "name": "role",
          "type": "bytes32"
        },
        {
          "internalType": "address",
          "name": "callerConfirmation",
          "type": "address"
        }
      ],
      "name": "renounceRole",
      "outputs": [],
      "stateMutability": "nonpayable",
      "type": "function"
    },
    {
      "inputs": [
        {
          "internalType": "bytes32",
          "name": "role",
          "type": "bytes32"
        },
        {
          "internalType": "address",
          "name": "account",
          "type": "address"
        }
      ],
      "name": "revokeRole",
      "outputs": [],
      "stateMutability": "nonpayable",
      "type": "function"
    },
    {
      "inputs": [
        {
          "internalType": "address",
          "name": "newPayout",
          "type": "address"
        }
      ],
      "name": "setPayoutAddress",
      "outputs": [],
      "stateMutability": "nonpayable",
      "type": "function"
    },
    {
      "inputs": [
        {
          "internalType": "address",
          "name": "_registry",
          "type": "address"
        }
      ],
      "name": "setRegistry",
      "outputs": [],
      "stateMutability": "nonpayable",
      "type": "function"
    },
    {
      "inputs": [
        {
          "internalType": "bytes32",
          "name": "scope",
          "type": "bytes32"
        },
        {
          "components": [
            {
              "internalType": "uint16",
              "name": "buyerCashbackBps",
              "type": "uint16"
            },
            {
              "internalType": "uint16",
              "name": "l1ReferrerBps",
              "type": "uint16"
            },
            {
              "internalType": "uint16",
              "name": "l2ReferrerBps",
              "type": "uint16"
            },
            {
              "internalType": "address",
              "name": "payoutToken",
              "type": "address"
            },
            {
              "internalType": "address",
              "name": "treasury",
              "type": "address"
            },
            {
              "internalType": "bool",
              "name": "recycleMissingToBuyer",
              "type": "bool"
            },
            {
              "internalType": "bool",
              "name": "recycleMissingToSeller",
              "type": "bool"
            },
            {
              "internalType": "bool",
              "name": "active",
              "type": "bool"
            }
          ],
          "internalType": "struct IncentiveEngine.Split",
          "name": "s",
          "type": "tuple"
        }
      ],
      "name": "setSplit",
      "outputs": [],
      "stateMutability": "nonpayable",
      "type": "function"
    },
    {
      "inputs": [
        {
          "internalType": "bytes32",
          "name": "scope",
          "type": "bytes32"
        },
        {
          "internalType": "address",
          "name": "buyer",
          "type": "address"
        },
        {
          "internalType": "address",
          "name": "seller",
          "type": "address"
        },
        {
          "internalType": "uint256",
          "name": "poolAmount",
          "type": "uint256"
        }
      ],
      "name": "settleERC20",
      "outputs": [],
      "stateMutability": "nonpayable",
      "type": "function"
    },
    {
      "inputs": [
        {
          "internalType": "bytes32",
          "name": "scope",
          "type": "bytes32"
        },
        {
          "internalType": "address",
          "name": "buyer",
          "type": "address"
        },
        {
          "internalType": "address",
          "name": "seller",
          "type": "address"
        }
      ],
      "name": "settleNative",
      "outputs": [],
      "stateMutability": "payable",
      "type": "function"
    },
    {
      "inputs": [
        {
          "internalType": "bytes32",
          "name": "",
          "type": "bytes32"
        }
      ],
      "name": "splits",
      "outputs": [
        {
          "internalType": "uint16",
          "name": "buyerCashbackBps",
          "type": "uint16"
        },
        {
          "internalType": "uint16",
          "name": "l1ReferrerBps",
          "type": "uint16"
        },
        {
          "internalType": "uint16",
          "name": "l2ReferrerBps",
          "type": "uint16"
        },
        {
          "internalType": "address",
          "name": "payoutToken",
          "type": "address"
        },
        {
          "internalType": "address",
          "name": "treasury",
          "type": "address"
        },
        {
          "internalType": "bool",
          "name": "recycleMissingToBuyer",
          "type": "bool"
        },
        {
          "internalType": "bool",
          "name": "recycleMissingToSeller",
          "type": "bool"
        },
        {
          "internalType": "bool",
          "name": "active",
          "type": "bool"
        }
      ],
      "stateMutability": "view",
      "type": "function"
    },
    {
      "inputs": [
        {
          "internalType": "bytes4",
          "name": "interfaceId",
          "type": "bytes4"
        }
      ],
      "name": "supportsInterface",
      "outputs": [
        {
          "internalType": "bool",
          "name": "",
          "type": "bool"
        }
      ],
      "stateMutability": "view",
      "type": "function"
    },
    {
      "inputs": [
        {
          "internalType": "address",
          "name": "newImplementation",
          "type": "address"
        },
        {
          "internalType": "bytes",
          "name": "data",
          "type": "bytes"
        }
      ],
      "name": "upgradeToAndCall",
      "outputs": [],
      "stateMutability": "payable",
      "type": "function"
    },
    {
      "inputs": [],
      "name": "version",
      "outputs": [
        {
          "internalType": "string",
          "name": "",
          "type": "string"
        }
      ],
      "stateMutability": "pure",
      "type": "function"
    }
  ],
  "bytecode": "0x60a0806040523461002a57306080526126fb90816100308239608051818181610def0152610ed50152f35b600080fdfe608080604052600436101561001357600080fd5b60003560e01c90816301ffc9a714611ef1575080630cd72286146118a05780631e83409a1461175757806321e57c391461153d578063248a9ca3146115015780632f2ff15d146114b55780633319fdb01461019057806333ea51a81461141857806334a1ca891461127b57806336568abe14611234578063485cc955146110845780634f1ef28614610e5957806352d1902d14610ddc57806354fd4d5014610d57578063680b3bdf14610bed5780636da61d1e14610bb257806375b238fc14610b775780637b10399914610b4e57806391d1485414610af4578063a217fddf14610ad8578063a72bc06414610a65578063a91ee0dc146109d0578063ab8229491461024c578063ad3cb1cc146101e1578063d4570c1c146101905763d547741f1461013d57600080fd5b3461018b57604036600319011261018b5761018960043561015c611f44565b9080600052600080516020612686833981519152602052610184600160406000200154612319565b612535565b005b600080fd5b3461018b57604036600319011261018b576101a9611f70565b6101b1611f44565b9060018060a01b038091166000526002602052604060002091166000526020526020604060002054604051908152f35b3461018b57600036600319011261018b57604051604081019080821067ffffffffffffffff831117610236576102329160405260058152640352e302e360dc1b602082015260405191829182611fe1565b0390f35b634e487b7160e01b600052604160045260246000fd5b3461018b57608036600319011261018b57610265611f44565b61026d611f5a565b9061027661223d565b600435600052600160205260406000206040519061029382611f86565b60ff6001825461ffff8116855261ffff8160101c16602086015261ffff8160201c166040860152818060a01b039060301c1692836060860152015460018060a01b0381166080850152818160a01c16151560a0850152818160a81c16151560c085015260b01c161515908160e0840152816109c6575b50156109905760608101516040516323b872dd60e01b81523360048201523060248201526064803560448301529091602091839182906000906001600160a01b03165af19081156108f057600091610961575b501561092657606081015160005460405163d21cacdf60e01b81526001600160a01b0385811660048301529095928116929116602086602481845afa9586156108f057600096610905575b506001600160a01b038616156108fc5760405163d21cacdf60e01b81526001600160a01b038716600482015290602090829060249082905afa9081156108f0576000916108c1575b50905b6103fb856125b8565b926001600160a01b0387166108b2576000925b6001600160a01b0381166108a3576000925b6001600160a01b03811661089457506000955b61271061044761ffff83511660643561228c565b04936001600160a01b038a161561088c5761271061046f61ffff60208501511660643561228c565b04955b6001600160a01b038416156108845761271061049861ffff60408601511660643561228c565b04975b60a08401511561078c5787158061077b575b610759575b881580610748575b610726575b6104d2896104cd8a8a6121dc565b6121dc565b9960a0850151159081610718575b81610705575b5061068c575b6064358a8103116106765786610642575b508661060e575b50866105da575b50866064350361059d575b506040519760018060a01b0316885260018060a01b0316602088015260408701526064356060870152608086015260a085015260c08401526064350360e083015260018060a01b0316907f5160ab6c9f484a006edb6231b6bbceb9fcd9f0cb95caf57d6067331893b8ccd261010060043592a360016000805160206126a683398151915255005b608060018060a01b0391015116600052600260205260406000208260005260205260406000206105d2876064350382546121dc565b905588610516565b60018060a01b0316600052600260205260406000208360005260205260406000206106068782546121dc565b90558961050b565b60018060a01b03166000526002602052604060002084600052602052604060002061063a8782546121dc565b90558a610504565b60018060a01b03166000526002602052604060002085600052602052604060002061066e8782546121dc565b90558b6104fd565b634e487b7160e01b600052601160045260246000fd5b986106ed906001600160a01b038d166106fb576106e76127106106b961ffff60208901511660643561228c565b045b6001600160a01b0388166106f3576127106106e061ffff60408a01511660643561228c565b04906121dc565b906121dc565b986104ec565b6000906121dc565b6106e760006106bb565b6001600160a01b0316151590508d6104e6565b60c0860151151591506104e0565b95610742906127106106e061ffff60408801511660643561228c565b956104bf565b5061ffff60408501511615156104ba565b95610775906127106106e061ffff60208801511660643561228c565b956104b2565b5061ffff60208501511615156104ad565b60c0840151151580610872575b156104bf57871580610861575b610815575b881580610804575b156104bf576127106107cf61ffff60408701511660643561228c565b0460018060a01b038b1660005260026020526040600020876000526020526107fd60406000209182546121dc565b90556104bf565b5061ffff60408501511615156107b3565b61271061082c61ffff60208701511660643561228c565b0460018060a01b038b16600052600260205260406000208760005260205261085a60406000209182546121dc565b90556107ab565b5061ffff60208501511615156107a6565b506001600160a01b038a161515610799565b60009761049b565b600095610472565b61089d906125b8565b95610433565b6108ac816125b8565b92610420565b6108bb876125b8565b9261040e565b6108e3915060203d6020116108e9575b6108db8183611fa3565b81019061226d565b866103ef565b503d6108d1565b6040513d6000823e3d90fd5b506000906103f2565b61091f91965060203d6020116108e9576108db8183611fa3565b94866103a7565b60405162461bcd60e51b81526020600482015260136024820152721d1c985b9cd9995c919c9bdb4819985a5b1959606a1b6044820152606490fd5b610983915060203d602011610989575b61097b8183611fa3565b8101906120ae565b8461035c565b503d610971565b60405162461bcd60e51b815260206004820152600e60248201526d195c98cc8c08191a5cd8589b195960921b6044820152606490fd5b9050151584610309565b3461018b57602036600319011261018b576109e9611f70565b6109f161229f565b6001600160a01b03168015610a3857600080546001600160a01b031916821781557f27fe5f0c1c3b1ed427cc63d0f05759ffdecf9aec9e18d31ef366fc8a6cb5dc3b9080a2005b60405162461bcd60e51b815260206004820152600560248201526407265673d360dc1b6044820152606490fd5b3461018b57602036600319011261018b576004356000526001602052604060002080549061023261ffff926001808060a01b039301549360405194859460ff8260b01c169360ff8360a81c16938260ff8560a01c169416928260301c1691818160201c1691808260101c1691168961202a565b3461018b57600036600319011261018b57602060405160008152f35b3461018b57604036600319011261018b57610b0d611f44565b60043560005260008051602061268683398151915260205260406000209060018060a01b0316600052602052602060ff604060002054166040519015158152f35b3461018b57600036600319011261018b576000546040516001600160a01b039091168152602090f35b3461018b57600036600319011261018b5760206040517fa49807205ce4d355092ef5a8a18f56e8913cf4a201fbe287825b095693c217758152f35b3461018b57602036600319011261018b5760206001600160a01b0380610bd6611f70565b166000526003825260406000205416604051908152f35b3461018b5760208060031936011261018b5760043567ffffffffffffffff80821161018b573660238301121561018b57816004013590811161018b576024820191602436918360051b01011161018b57610c4561223d565b336000526003835260018060a01b03918260406000205416938415610d235760005b838110610c825760016000805160206126a683398151915255005b600190336000526002808452604060002087610ca7610ca2858a8a612217565b612195565b1660005284526040600020549081610cc2575b505001610c67565b33600052808552604060002088610cdd610ca2868b8b612217565b16600052855260006040812055886000528452604060002087610d04610ca2858a8a612217565b166000528452610d1a60406000209182546121dc565b90558780610cba565b6064906040519062461bcd60e51b82526004820152600d60248201526c1b9bc81c185e5bdd5d081cd95d609a1b6044820152fd5b3461018b57600036600319011261018b57604051606081019080821067ffffffffffffffff8311176102365761023291604052603381527f496e63656e74697665456e67696e652076312028706f6f6c2073706c6974746560208201527272202b207061796f757420726f7574696e672960681b604082015260405191829182611fe1565b3461018b57600036600319011261018b577f00000000000000000000000000000000000000000000000000000000000000006001600160a01b03163003610e475760206040517f360894a13ba1a3210667c828492db98dca3e2076cc3735a920a3ca505d382bbc8152f35b60405163703e46dd60e11b8152600490fd5b604036600319011261018b57610e6d611f70565b602490813567ffffffffffffffff811161018b573660238201121561018b57806004013591610e9b83611fc5565b610ea86040519182611fa3565b838152602093848201933687838301011161018b5781600092888893018737830101526001600160a01b037f00000000000000000000000000000000000000000000000000000000000000008116308114908115611056575b50610e4757610f0e61229f565b6040516352d1902d60e01b8152908316948082600481895afa918291600093611026575b5050610f5057604051634c9c8ce360e01b8152600481018690528690fd5b8490867f360894a13ba1a3210667c828492db98dca3e2076cc3735a920a3ca505d382bbc918281036110115750843b15610ffb575080546001600160a01b03191682179055604051907fbc7cd75a20ee27fd9adebab32041f755214dbc6bffa90cc0225b39da2e5c2d3b600080a2815115610fe1575060006101899381925190845af4610fdb6120ff565b91612622565b9250505034610fec57005b63b398979f60e01b8152600490fd5b604051634c9c8ce360e01b815260048101849052fd5b60405190632a87526960e21b82526004820152fd5b9080929350813d831161104f575b61103e8183611fa3565b8101031261018b5751908780610f32565b503d611034565b9050817f360894a13ba1a3210667c828492db98dca3e2076cc3735a920a3ca505d382bbc5416141587610f01565b3461018b57604036600319011261018b5761109d611f70565b6110a5611f44565b7ff0c57e16840df040f15088dc2f81fe391c3923bec73e23a9662efc9c229c6a0090815460ff8160401c16159367ffffffffffffffff82168015908161122c575b6001149081611222575b159081611219575b506112075767ffffffffffffffff198216600117845561115a91856111e8575b506111216125e1565b6111296125e1565b6111316125e1565b60016000805160206126a68339815191525561114b6125e1565b6111548161234c565b506123ec565b5060018060a01b031691826bffffffffffffffffffffffff60a01b6000541617600055604051927f27fe5f0c1c3b1ed427cc63d0f05759ffdecf9aec9e18d31ef366fc8a6cb5dc3b600080a26111ac57005b805468ff000000000000000019169055600181527fc7f505b2f371ae2175ee4913f4499e1f2633a7b5936321eed1cdaeb6115181d290602090a1005b68ffffffffffffffffff19166801000000000000000117845585611118565b60405163f92ee8a960e01b8152600490fd5b905015866110f8565b303b1591506110f0565b8691506110e6565b3461018b57604036600319011261018b5761124d611f44565b336001600160a01b038216036112695761018990600435612535565b60405163334bd91960e11b8152600490fd5b3461018b57604036600319011261018b57611294611f70565b61129c611f44565b906112a561223d565b6001600160a01b038281169283156113ed57336000526020916002835260406000209316928360005282526040600020549182916112e4831515612078565b33600052600282526040600020856000528252600060408120558415600014611360575061134360008080807fc0927886ed1bf317dc39d832624026fb839faa9539ce2853f384086ee413feaf968a5af161133d6120ff565b5061212f565b6040519283523392a460016000805160206126a683398151915255005b60405163a9059cbb60e01b81526001600160a01b03919091166004820152602481019290925280826044816000885af19182156108f0577fc0927886ed1bf317dc39d832624026fb839faa9539ce2853f384086ee413feaf926113cb916000916113d0575b506120c6565b611343565b6113e79150833d85116109895761097b8183611fa3565b876113c5565b606460405162461bcd60e51b81526020600482015260046024820152630746f3d360e41b6044820152fd5b3461018b57602036600319011261018b576001600160a01b03611439611f70565b1680156114855733600081815260036020526040812080546001600160a01b031916841790557f86595dc4ed4838fd84eeed07a9f42ea9af43a730d94d90334e779b82264c0d7c9080a3005b60405162461bcd60e51b815260206004820152600860248201526707061796f75743d360c41b6044820152606490fd5b3461018b57604036600319011261018b576101896004356114d4611f44565b90806000526000805160206126868339815191526020526114fc600160406000200154612319565b6124ae565b3461018b57602036600319011261018b576004356000526000805160206126868339815191526020526020600160406000200154604051908152f35b3461018b5761012036600319011261018b5760043561010036602319011261018b5761156761229f565b6001600160a01b0380611578612169565b16156117255761ffff6127106115ad6115a4836115936121a9565b168461159d6121ba565b16906121dc565b8361159d6121cb565b116116f55760019083600052816020526040600020906115cb6121a9565b1681549063ffff00006115dc6121ba565b60101b1665ffff000000006115ef6121cb565b60201b169166010000000000008660d01b0361160961217f565b60301b169365ffffffffffff60d01b161717171781550190611629612169565b8254911660ff60a01b61163a6121e9565b151560a01b1660ff60a81b61164d6121f8565b151560a81b169160ff60b01b611661612207565b151560b01b169368ffffffffffffffffff60b81b161717171790557fb23548d79033b8b6fa82e11c19ce54c325e99a3c4886441c87a819385c8e09586116a56121a9565b6116ad6121ba565b906116f06116b96121cb565b6116c161217f565b6116c9612169565b6116d16121e9565b906116da6121f8565b926116e3612207565b946040519889988961202a565b0390a2005b60405162461bcd60e51b81526020600482015260086024820152676270733e3130302560c01b6044820152606490fd5b60405162461bcd60e51b815260206004820152600a602482015269074726561737572793d360b41b6044820152606490fd5b3461018b5760208060031936011261018b57611771611f70565b9061177a61223d565b3360009081526002825260408082206001600160a01b03909416808352938352902054906117a9821515612078565b3360005260028152604060002083600052815260006040812055821560001461181f577ff7a40077ff7a04c7e61f6f26fb13774259ddf1b6bce9ecf26a8276cdd399268390611802600080808087335af161133d6120ff565b6040519283523392a360016000805160206126a683398151915255005b60405163a9059cbb60e01b8152336004820152602481018390529080826044816000885af19182156108f0577ff7a40077ff7a04c7e61f6f26fb13774259ddf1b6bce9ecf26a8276cdd39926839261187e9160009161188357506120c6565b611802565b61189a9150833d85116109895761097b8183611fa3565b866113c5565b606036600319011261018b576118b4611f44565b6118bc611f5a565b906118c561223d565b60043560005260016020526040600020604051906118e282611f86565b60ff6001825461ffff8116855261ffff8160101c16602086015261ffff8160201c166040860152818060a01b039060301c1692836060860152015460018060a01b0381166080850152818160a01c16151560a0850152818160a81c16151560c085015260b01c161515908160e084015281611ee8575b5015611eb15760005460405163d21cacdf60e01b81526001600160a01b03848116600483015290949116602085602481845afa9485156108f057600095611e90575b506001600160a01b03851615611e885760405163d21cacdf60e01b81526001600160a01b038616600482015290602090829060249082905afa9081156108f057600091611e69575b505b6119ed846125b8565b916001600160a01b038616611e5a576000915b6001600160a01b038116611e4b576000915b6001600160a01b038116611e3c57506000945b612710611a3761ffff8351163461228c565b04926001600160a01b03891615611e3457612710611a5d61ffff6020850151163461228c565b04945b6001600160a01b03841615611e2c57612710611a8461ffff6040860151163461228c565b04965b60a084015115611d3857861580611d27575b611d07575b871580611cf6575b611cd6575b611ab9886104cd89896121dc565b9860a0850151159081611cc8575b81611cb5575b50611c55575b34893403116106765785611c21575b5085611bed575b5085611bb9575b50853403611b7e575b506040519660018060a01b0316875260018060a01b0316602087015260006040870152346060870152608086015260a085015260c0840152340360e083015260018060a01b0316907f5160ab6c9f484a006edb6231b6bbceb9fcd9f0cb95caf57d6067331893b8ccd261010060043592a360016000805160206126a683398151915255005b608060018060a01b039101511660005260026020526040600020600080526020526040600020611bb186340382546121dc565b905587611af9565b60018060a01b031660005260026020526040600020600080526020526040600020611be58682546121dc565b905588611af0565b60018060a01b031660005260026020526040600020600080526020526040600020611c198682546121dc565b905589611ae9565b60018060a01b031660005260026020526040600020600080526020526040600020611c4d8682546121dc565b90558a611ae2565b97611ca5906001600160a01b038c16611cab576106e7612710611c8061ffff6020890151163461228c565b045b6001600160a01b0388166106f3576127106106e061ffff60408a0151163461228c565b97611ad3565b6106e76000611c82565b6001600160a01b0316151590508c611acd565b60c086015115159150611ac7565b94611cf0906127106106e061ffff6040880151163461228c565b94611aab565b5061ffff6040850151161515611aa6565b94611d21906127106106e061ffff6020880151163461228c565b94611a9e565b5061ffff6020850151161515611a99565b60c0840151151580611e1a575b15611aab57861580611e09575b611dbf575b871580611dae575b15611aab57612710611d7961ffff6040870151163461228c565b0460018060a01b038a166000526002602052604060002060008052602052611da760406000209182546121dc565b9055611aab565b5061ffff6040850151161515611d5f565b612710611dd461ffff6020870151163461228c565b0460018060a01b038a166000526002602052604060002060008052602052611e0260406000209182546121dc565b9055611d57565b5061ffff6020850151161515611d52565b506001600160a01b0389161515611d45565b600096611a87565b600094611a60565b611e45906125b8565b94611a25565b611e54816125b8565b91611a12565b611e63866125b8565b91611a00565b611e82915060203d6020116108e9576108db8183611fa3565b856119e2565b5060006119e4565b611eaa91955060203d6020116108e9576108db8183611fa3565b938561199a565b60405162461bcd60e51b815260206004820152600f60248201526e1b985d1a5d9948191a5cd8589b1959608a1b6044820152606490fd5b90501584611958565b3461018b57602036600319011261018b576004359063ffffffff60e01b821680920361018b57602091637965db0b60e01b8114908115611f33575b5015158152f35b6301ffc9a760e01b14905083611f2c565b602435906001600160a01b038216820361018b57565b604435906001600160a01b038216820361018b57565b600435906001600160a01b038216820361018b57565b610100810190811067ffffffffffffffff82111761023657604052565b90601f8019910116810190811067ffffffffffffffff82111761023657604052565b67ffffffffffffffff811161023657601f01601f191660200190565b6020808252825181830181905290939260005b82811061201657505060409293506000838284010152601f8019910116010190565b818101860151848201604001528501611ff4565b61ffff9182168152918116602083015290911660408201526001600160a01b0391821660608201529116608082015290151560a082015290151560c082015290151560e08201526101000190565b1561207f57565b60405162461bcd60e51b81526020600482015260076024820152666e6f7468696e6760c81b6044820152606490fd5b9081602091031261018b5751801515810361018b5790565b156120cd57565b60405162461bcd60e51b815260206004820152600a60248201526932b9319918103c3332b960b11b6044820152606490fd5b3d1561212a573d9061211082611fc5565b9161211e6040519384611fa3565b82523d6000602084013e565b606090565b1561213657565b60405162461bcd60e51b815260206004820152600b60248201526a3730ba34bb32903c3332b960a91b6044820152606490fd5b60a4356001600160a01b038116810361018b5790565b6084356001600160a01b038116810361018b5790565b356001600160a01b038116810361018b5790565b60243561ffff8116810361018b5790565b60443561ffff8116810361018b5790565b60643561ffff8116810361018b5790565b9190820180921161067657565b60c435801515810361018b5790565b60e435801515810361018b5790565b61010435801515810361018b5790565b91908110156122275760051b0190565b634e487b7160e01b600052603260045260246000fd5b6000805160206126a6833981519152600281541461225b5760029055565b604051633ee5aeb560e01b8152600490fd5b9081602091031261018b57516001600160a01b038116810361018b5790565b8181029291811591840414171561067657565b3360009081527fb16e88c42fd4e48df2dd6a2eabd6bc9aec654ec170056b470819f8892cc6431c60205260409020547fa49807205ce4d355092ef5a8a18f56e8913cf4a201fbe287825b095693c217759060ff16156122fb5750565b6044906040519063e2517d3f60e01b82523360048301526024820152fd5b8060005260008051602061268683398151915260205260406000203360005260205260ff60406000205416156122fb5750565b6001600160a01b031660008181527fb7db2dd08fcb62d0c9e08c51941cae53c267786a0b75803fb7960902fc8ef97d60205260408120549091906000805160206126868339815191529060ff166123e7578280526020526040822081835260205260408220600160ff1982541617905533917f2f8788117e7eff1d82e926ec794901d17c78024a50270940304540a733656f0d8180a4600190565b505090565b6001600160a01b031660008181527fb16e88c42fd4e48df2dd6a2eabd6bc9aec654ec170056b470819f8892cc6431c60205260408120549091907fa49807205ce4d355092ef5a8a18f56e8913cf4a201fbe287825b095693c21775906000805160206126868339815191529060ff166124a8578184526020526040832082845260205260408320600160ff198254161790557f2f8788117e7eff1d82e926ec794901d17c78024a50270940304540a733656f0d339380a4600190565b50505090565b9060009180835260008051602061268683398151915280602052604084209260018060a01b03169283855260205260ff604085205416156000146124a8578184526020526040832082845260205260408320600160ff198254161790557f2f8788117e7eff1d82e926ec794901d17c78024a50270940304540a733656f0d339380a4600190565b9060009180835260008051602061268683398151915280602052604084209260018060a01b03169283855260205260ff6040852054166000146124a857818452602052604083208284526020526040832060ff1981541690557ff6391f5c32d9c69d2a47ea670b442974b53935d1edc7fd64eb21e047a839171b339380a4600190565b6001600160a01b0381811660009081526003602052604090205416806125dc575090565b905090565b60ff7ff0c57e16840df040f15088dc2f81fe391c3923bec73e23a9662efc9c229c6a005460401c161561261057565b604051631afcd79f60e31b8152600490fd5b90612649575080511561263757805190602001fd5b60405163d6bda27560e01b8152600490fd5b8151158061267c575b61265a575090565b604051639996b31560e01b81526001600160a01b039091166004820152602490fd5b50803b1561265256fe02dd7bc7dec4dceedda775e58dd541e08a116c6c53815c0bd028192f7b6268009b779b17422d0df92223018b32b4d1fa46e071723d6817e2486d003becc55f00a2646970667358221220d81b16b5a6cb3a2e63565f22dd73a74f60e4ca64266e0d523ac9dae4b2e328c164736f6c63430008160033",
  "linkReferences": {},
  "deployedLinkReferences": {}
}