{
  "_format": "hh-sol-artifact-1",
  "contractName": "IncentiveEngine",
  "sourceName": "contracts/IncentiveEngine.sol",
  "abi": [
    {
      "inputs": [],
      "name": "AccessControlBadConfirmation",
      "type": "error"
    },
    {
      "inputs": [
        {
          "internalType": "address",
          "name": "account",
          "type": "address"
        },
        {
          "internalType": "bytes32",
          "name": "neededRole",
          "type": "bytes32"
        }
      ],
      "name": "AccessControlUnauthorizedAccount",
      "type": "error"
    },
    {
      "inputs": [
        {
          "internalType": "address",
          "name": "target",
          "type": "address"
        }
      ],
      "name": "AddressEmptyCode",
      "type": "error"
    },
    {
      "inputs": [
        {
          "internalType": "address",
          "name": "implementation",
          "type": "address"
        }
      ],
      "name": "ERC1967InvalidImplementation",
      "type": "error"
    },
    {
      "inputs": [],
      "name": "ERC1967NonPayable",
      "type": "error"
    },
    {
      "inputs": [],
      "name": "FailedCall",
      "type": "error"
    },
    {
      "inputs": [],
      "name": "InvalidInitialization",
      "type": "error"
    },
    {
      "inputs": [],
      "name": "NotInitializing",
      "type": "error"
    },
    {
      "inputs": [],
      "name": "ReentrancyGuardReentrantCall",
      "type": "error"
    },
    {
      "inputs": [],
      "name": "UUPSUnauthorizedCallContext",
      "type": "error"
    },
    {
      "inputs": [
        {
          "internalType": "bytes32",
          "name": "slot",
          "type": "bytes32"
        }
      ],
      "name": "UUPSUnsupportedProxiableUUID",
      "type": "error"
    },
    {
      "anonymous": false,
      "inputs": [
        {
          "indexed": true,
          "internalType": "address",
          "name": "user",
          "type": "address"
        },
        {
          "indexed": true,
          "internalType": "address",
          "name": "token",
          "type": "address"
        },
        {
          "indexed": false,
          "internalType": "uint256",
          "name": "amount",
          "type": "uint256"
        }
      ],
      "name": "Claimed",
      "type": "event"
    },
    {
      "anonymous": false,
      "inputs": [
        {
          "indexed": true,
          "internalType": "address",
          "name": "user",
          "type": "address"
        },
        {
          "indexed": true,
          "internalType": "address",
          "name": "token",
          "type": "address"
        },
        {
          "indexed": true,
          "internalType": "address",
          "name": "to",
          "type": "address"
        },
        {
          "indexed": false,
          "internalType": "uint256",
          "name": "amount",
          "type": "uint256"
        }
      ],
      "name": "ClaimedTo",
      "type": "event"
    },
    {
      "anonymous": false,
      "inputs": [
        {
          "indexed": false,
          "internalType": "uint64",
          "name": "version",
          "type": "uint64"
        }
      ],
      "name": "Initialized",
      "type": "event"
    },
    {
      "anonymous": false,
      "inputs": [
        {
          "indexed": true,
          "internalType": "address",
          "name": "user",
          "type": "address"
        },
        {
          "indexed": true,
          "internalType": "address",
          "name": "newPayout",
          "type": "address"
        }
      ],
      "name": "PayoutAddressSet",
      "type": "event"
    },
    {
      "anonymous": false,
      "inputs": [
        {
          "indexed": true,
          "internalType": "bytes32",
          "name": "scope",
          "type": "bytes32"
        },
        {
          "indexed": true,
          "internalType": "address",
          "name": "buyer",
          "type": "address"
        },
        {
          "indexed": true,
          "internalType": "address",
          "name": "seller",
          "type": "address"
        },
        {
          "indexed": false,
          "internalType": "address",
          "name": "token",
          "type": "address"
        },
        {
          "indexed": false,
          "internalType": "uint256",
          "name": "pool",
          "type": "uint256"
        },
        {
          "indexed": false,
          "internalType": "uint256",
          "name": "toBuyer",
          "type": "uint256"
        },
        {
          "indexed": false,
          "internalType": "uint256",
          "name": "toReferrers",
          "type": "uint256"
        },
        {
          "indexed": false,
          "internalType": "uint256",
          "name": "toSellerRecycled",
          "type": "uint256"
        },
        {
          "indexed": false,
          "internalType": "uint256",
          "name": "toTreasury",
          "type": "uint256"
        }
      ],
      "name": "PoolSettled",
      "type": "event"
    },
    {
      "anonymous": false,
      "inputs": [
        {
          "indexed": true,
          "internalType": "bytes32",
          "name": "scope",
          "type": "bytes32"
        },
        {
          "indexed": false,
          "internalType": "uint16[]",
          "name": "bps",
          "type": "uint16[]"
        }
      ],
      "name": "ReferrerBpsSet",
      "type": "event"
    },
    {
      "anonymous": false,
      "inputs": [
        {
          "indexed": true,
          "internalType": "address",
          "name": "registry",
          "type": "address"
        }
      ],
      "name": "RegistrySet",
      "type": "event"
    },
    {
      "anonymous": false,
      "inputs": [
        {
          "indexed": true,
          "internalType": "bytes32",
          "name": "role",
          "type": "bytes32"
        },
        {
          "indexed": true,
          "internalType": "bytes32",
          "name": "previousAdminRole",
          "type": "bytes32"
        },
        {
          "indexed": true,
          "internalType": "bytes32",
          "name": "newAdminRole",
          "type": "bytes32"
        }
      ],
      "name": "RoleAdminChanged",
      "type": "event"
    },
    {
      "anonymous": false,
      "inputs": [
        {
          "indexed": true,
          "internalType": "bytes32",
          "name": "role",
          "type": "bytes32"
        },
        {
          "indexed": true,
          "internalType": "address",
          "name": "account",
          "type": "address"
        },
        {
          "indexed": true,
          "internalType": "address",
          "name": "sender",
          "type": "address"
        }
      ],
      "name": "RoleGranted",
      "type": "event"
    },
    {
      "anonymous": false,
      "inputs": [
        {
          "indexed": true,
          "internalType": "bytes32",
          "name": "role",
          "type": "bytes32"
        },
        {
          "indexed": true,
          "internalType": "address",
          "name": "account",
          "type": "address"
        },
        {
          "indexed": true,
          "internalType": "address",
          "name": "sender",
          "type": "address"
        }
      ],
      "name": "RoleRevoked",
      "type": "event"
    },
    {
      "anonymous": false,
      "inputs": [
        {
          "indexed": true,
          "internalType": "bytes32",
          "name": "scope",
          "type": "bytes32"
        },
        {
          "indexed": false,
          "internalType": "uint16",
          "name": "buyerCashbackBps",
          "type": "uint16"
        },
        {
          "indexed": false,
          "internalType": "address",
          "name": "payoutToken",
          "type": "address"
        },
        {
          "indexed": false,
          "internalType": "address",
          "name": "treasury",
          "type": "address"
        },
        {
          "indexed": false,
          "internalType": "bool",
          "name": "recycleMissingToBuyer",
          "type": "bool"
        },
        {
          "indexed": false,
          "internalType": "bool",
          "name": "recycleMissingToSeller",
          "type": "bool"
        },
        {
          "indexed": false,
          "internalType": "bool",
          "name": "active",
          "type": "bool"
        }
      ],
      "name": "SplitSet",
      "type": "event"
    },
    {
      "anonymous": false,
      "inputs": [
        {
          "indexed": true,
          "internalType": "address",
          "name": "implementation",
          "type": "address"
        }
      ],
      "name": "Upgraded",
      "type": "event"
    },
    {
      "inputs": [],
      "name": "ADMIN_ROLE",
      "outputs": [
        {
          "internalType": "bytes32",
          "name": "",
          "type": "bytes32"
        }
      ],
      "stateMutability": "view",
      "type": "function"
    },
    {
      "inputs": [],
      "name": "DEFAULT_ADMIN_ROLE",
      "outputs": [
        {
          "internalType": "bytes32",
          "name": "",
          "type": "bytes32"
        }
      ],
      "stateMutability": "view",
      "type": "function"
    },
    {
      "inputs": [],
      "name": "UPGRADE_INTERFACE_VERSION",
      "outputs": [
        {
          "internalType": "string",
          "name": "",
          "type": "string"
        }
      ],
      "stateMutability": "view",
      "type": "function"
    },
    {
      "inputs": [
        {
          "internalType": "address",
          "name": "token",
          "type": "address"
        }
      ],
      "name": "claim",
      "outputs": [],
      "stateMutability": "nonpayable",
      "type": "function"
    },
    {
      "inputs": [
        {
          "internalType": "address",
          "name": "token",
          "type": "address"
        },
        {
          "internalType": "address",
          "name": "to",
          "type": "address"
        }
      ],
      "name": "claimTo",
      "outputs": [],
      "stateMutability": "nonpayable",
      "type": "function"
    },
    {
      "inputs": [
        {
          "internalType": "address",
          "name": "",
          "type": "address"
        },
        {
          "internalType": "address",
          "name": "",
          "type": "address"
        }
      ],
      "name": "claimable",
      "outputs": [
        {
          "internalType": "uint256",
          "name": "",
          "type": "uint256"
        }
      ],
      "stateMutability": "view",
      "type": "function"
    },
    {
      "inputs": [
        {
          "internalType": "address",
          "name": "user",
          "type": "address"
        },
        {
          "internalType": "address",
          "name": "token",
          "type": "address"
        }
      ],
      "name": "claimableOf",
      "outputs": [
        {
          "internalType": "uint256",
          "name": "",
          "type": "uint256"
        }
      ],
      "stateMutability": "view",
      "type": "function"
    },
    {
      "inputs": [
        {
          "internalType": "bytes32",
          "name": "role",
          "type": "bytes32"
        }
      ],
      "name": "getRoleAdmin",
      "outputs": [
        {
          "internalType": "bytes32",
          "name": "",
          "type": "bytes32"
        }
      ],
      "stateMutability": "view",
      "type": "function"
    },
    {
      "inputs": [
        {
          "internalType": "bytes32",
          "name": "role",
          "type": "bytes32"
        },
        {
          "internalType": "address",
          "name": "account",
          "type": "address"
        }
      ],
      "name": "grantRole",
      "outputs": [],
      "stateMutability": "nonpayable",
      "type": "function"
    },
    {
      "inputs": [
        {
          "internalType": "bytes32",
          "name": "role",
          "type": "bytes32"
        },
        {
          "internalType": "address",
          "name": "account",
          "type": "address"
        }
      ],
      "name": "hasRole",
      "outputs": [
        {
          "internalType": "bool",
          "name": "",
          "type": "bool"
        }
      ],
      "stateMutability": "view",
      "type": "function"
    },
    {
      "inputs": [
        {
          "internalType": "address",
          "name": "admin",
          "type": "address"
        },
        {
          "internalType": "address",
          "name": "_registry",
          "type": "address"
        }
      ],
      "name": "initialize",
      "outputs": [],
      "stateMutability": "nonpayable",
      "type": "function"
    },
    {
      "inputs": [
        {
          "internalType": "address",
          "name": "",
          "type": "address"
        }
      ],
      "name": "payoutOf",
      "outputs": [
        {
          "internalType": "address",
          "name": "",
          "type": "address"
        }
      ],
      "stateMutability": "view",
      "type": "function"
    },
    {
      "inputs": [],
      "name": "proxiableUUID",
      "outputs": [
        {
          "internalType": "bytes32",
          "name": "",
          "type": "bytes32"
        }
      ],
      "stateMutability": "view",
      "type": "function"
    },
    {
      "inputs": [
        {
          "internalType": "bytes32",
          "name": "",
          "type": "bytes32"
        },
        {
          "internalType": "uint256",
          "name": "",
          "type": "uint256"
        }
      ],
      "name": "referrerBps",
      "outputs": [
        {
          "internalType": "uint16",
          "name": "",
          "type": "uint16"
        }
      ],
      "stateMutability": "view",
      "type": "function"
    },
    {
      "inputs": [],
      "name": "registry",
      "outputs": [
        {
          "internalType": "contract IReferralRegistry",
          "name": "",
          "type": "address"
        }
      ],
      "stateMutability": "view",
      "type": "function"
    },
    {
      "inputs": [
        {
          "internalType": "bytes32",
          "name": "role",
          "type": "bytes32"
        },
        {
          "internalType": "address",
          "name": "callerConfirmation",
          "type": "address"
        }
      ],
      "name": "renounceRole",
      "outputs": [],
      "stateMutability": "nonpayable",
      "type": "function"
    },
    {
      "inputs": [
        {
          "internalType": "bytes32",
          "name": "role",
          "type": "bytes32"
        },
        {
          "internalType": "address",
          "name": "account",
          "type": "address"
        }
      ],
      "name": "revokeRole",
      "outputs": [],
      "stateMutability": "nonpayable",
      "type": "function"
    },
    {
      "inputs": [
        {
          "internalType": "address",
          "name": "newPayout",
          "type": "address"
        }
      ],
      "name": "setPayoutAddress",
      "outputs": [],
      "stateMutability": "nonpayable",
      "type": "function"
    },
    {
      "inputs": [
        {
          "internalType": "bytes32",
          "name": "scope",
          "type": "bytes32"
        },
        {
          "internalType": "uint16[]",
          "name": "bps",
          "type": "uint16[]"
        }
      ],
      "name": "setReferrerBps",
      "outputs": [],
      "stateMutability": "nonpayable",
      "type": "function"
    },
    {
      "inputs": [
        {
          "internalType": "address",
          "name": "_registry",
          "type": "address"
        }
      ],
      "name": "setRegistry",
      "outputs": [],
      "stateMutability": "nonpayable",
      "type": "function"
    },
    {
      "inputs": [
        {
          "internalType": "bytes32",
          "name": "scope",
          "type": "bytes32"
        },
        {
          "components": [
            {
              "internalType": "uint16",
              "name": "buyerCashbackBps",
              "type": "uint16"
            },
            {
              "internalType": "address",
              "name": "payoutToken",
              "type": "address"
            },
            {
              "internalType": "address",
              "name": "treasury",
              "type": "address"
            },
            {
              "internalType": "bool",
              "name": "recycleMissingToBuyer",
              "type": "bool"
            },
            {
              "internalType": "bool",
              "name": "recycleMissingToSeller",
              "type": "bool"
            },
            {
              "internalType": "bool",
              "name": "active",
              "type": "bool"
            }
          ],
          "internalType": "struct IncentiveEngine.Split",
          "name": "s",
          "type": "tuple"
        }
      ],
      "name": "setSplit",
      "outputs": [],
      "stateMutability": "nonpayable",
      "type": "function"
    },
    {
      "inputs": [
        {
          "internalType": "bytes32",
          "name": "scope",
          "type": "bytes32"
        },
        {
          "internalType": "address",
          "name": "buyer",
          "type": "address"
        },
        {
          "internalType": "address",
          "name": "seller",
          "type": "address"
        },
        {
          "internalType": "uint256",
          "name": "poolAmount",
          "type": "uint256"
        }
      ],
      "name": "settleERC20",
      "outputs": [],
      "stateMutability": "nonpayable",
      "type": "function"
    },
    {
      "inputs": [
        {
          "internalType": "bytes32",
          "name": "scope",
          "type": "bytes32"
        },
        {
          "internalType": "address",
          "name": "buyer",
          "type": "address"
        },
        {
          "internalType": "address",
          "name": "seller",
          "type": "address"
        }
      ],
      "name": "settleNative",
      "outputs": [],
      "stateMutability": "payable",
      "type": "function"
    },
    {
      "inputs": [
        {
          "internalType": "bytes32",
          "name": "",
          "type": "bytes32"
        }
      ],
      "name": "splits",
      "outputs": [
        {
          "internalType": "uint16",
          "name": "buyerCashbackBps",
          "type": "uint16"
        },
        {
          "internalType": "address",
          "name": "payoutToken",
          "type": "address"
        },
        {
          "internalType": "address",
          "name": "treasury",
          "type": "address"
        },
        {
          "internalType": "bool",
          "name": "recycleMissingToBuyer",
          "type": "bool"
        },
        {
          "internalType": "bool",
          "name": "recycleMissingToSeller",
          "type": "bool"
        },
        {
          "internalType": "bool",
          "name": "active",
          "type": "bool"
        }
      ],
      "stateMutability": "view",
      "type": "function"
    },
    {
      "inputs": [
        {
          "internalType": "bytes4",
          "name": "interfaceId",
          "type": "bytes4"
        }
      ],
      "name": "supportsInterface",
      "outputs": [
        {
          "internalType": "bool",
          "name": "",
          "type": "bool"
        }
      ],
      "stateMutability": "view",
      "type": "function"
    },
    {
      "inputs": [
        {
          "internalType": "address",
          "name": "newImplementation",
          "type": "address"
        },
        {
          "internalType": "bytes",
          "name": "data",
          "type": "bytes"
        }
      ],
      "name": "upgradeToAndCall",
      "outputs": [],
      "stateMutability": "payable",
      "type": "function"
    },
    {
      "inputs": [],
      "name": "version",
      "outputs": [
        {
          "internalType": "string",
          "name": "",
          "type": "string"
        }
      ],
      "stateMutability": "pure",
      "type": "function"
    }
  ],
  "bytecode": "0x60a0806040523461002a57306080526129d79081610030823960805181818161129c01526113820152f35b600080fdfe608080604052600436101561001357600080fd5b60003560e01c90816301ffc9a714612289575080630cd7228614611b845780631e83409a14611a3b578063248a9ca3146119ff5780632f2ff15d146119b35780633319fdb0146104fa57806333ea51a81461191657806334a1ca891461177957806336568abe146117325780633b23a175146116e1578063485cc955146115315780634f1ef2861461130657806352d1902d1461128957806354fd4d50146112055780636da61d1e146111ca57806375b238fc1461118f5780637b1039991461116657806391d148541461110c5780639cb6df1914610f52578063a217fddf14610f36578063a72bc06414610eb1578063a91ee0dc14610e1c578063ab822949146105b6578063ad3cb1cc1461054b578063d4570c1c146104fa578063d547741f146104ac5763fb9ad49d1461014857600080fd5b3461030457604036600319011261030457600435602480359067ffffffffffffffff9081831161030457366023840112156103045782600401359182116103045780830191600536838360051b87010111610304576101a561257b565b85600052600192602091848352604060002096604051916101c58361231e565b88549261ffff998a8516825260ff8960018060a01b03928360109860101c168a860152015491821691826040850152818160a01c1615156060850152818160a81c161515608085015260b01c16151560a0830152156104765789905116906000925b8888851061044e5750505061271091501161041f57876000526002835260406000209168010000000000000000851161040b575081548483558085106103ae575b508591600052826000208460041c9160005b83811061035d575050600f198516850380610309575b505050509391906040519481818701828852526040860194936000905b8382106102dd57887f4579acfd7c6e30d7f1f28180885b26110810a640c19f1f329be4db2bf75859c68989038aa2005b909192939495863590828216809203610304579081528301958301949392918401906102ad565b600080fd5b9260009360005b8887838310610329575050505050015538808080610290565b90919293966103539061033b896124ef565b9085851b60031b9161ffff809116831b921b19161790565b9601929101610310565b87906000805b88858210610377575050818501550161027a565b90979293916103a190610389856124ef565b908a851b60031b9161ffff809116831b921b19161790565b9201960190899291610363565b8260005283600020600f80870160041c8201920160041c0190601e86881b16806103f1575b5086905b8281106103e5575050610268565b600081550186906103d7565b6000199081830191825491880360031b1c169055386103d3565b634e487b7160e01b60009081526041600452fd5b60405162461bcd60e51b815260048101849052600881840152676270733e3130302560c01b6044820152606490fd5b90919261046c908c6104658988881b8701016124ef565b169061252b565b9301929190610227565b60405162461bcd60e51b815260048101879052600f818701526e1cd95d081cdc1b1a5d08199a5c9cdd608a1b6044820152606490fd5b34610304576040366003190112610304576104f86004356104cb6122dc565b90806000526000805160206129628339815191526020526104f36001604060002001546125f5565b612811565b005b3461030457604036600319011261030457610513612308565b61051b6122dc565b9060018060a01b038091166000526003602052604060002091166000526020526020604060002054604051908152f35b3461030457600036600319011261030457604051604081019080821067ffffffffffffffff8311176105a05761059c9160405260058152640352e302e360dc1b602082015260405191829182612378565b0390f35b634e487b7160e01b600052604160045260246000fd5b34610304576080366003190112610304576105cf6122dc565b6105d76122f2565b6105df61254b565b6004356000526001602052604060002090604051916105fd8361231e565b60ff6001825461ffff81168652818060a01b039060101c1692836020870152015460018060a01b0381166040860152818160a01c1615156060860152818160a81c161515608086015260b01c161515908160a085015281610e12575b5015610ddc576020828101516040516323b872dd60e01b815233600482015230602482015260648035604483015290929183919082906000906001600160a01b03165af19081156109b257600091610dad575b5015610d725760018060a01b03602083015116916004356000526002602052604060002093604051808660208298549384815201906000526020600020926000905b80600f830110610c9757610784945491818110610c82575b818110610c6a575b818110610c53575b818110610c3b575b818110610c23575b818110610c0b575b818110610bf3575b818110610bdb575b818110610bc3575b818110610bab575b818110610b93575b818110610b7b575b818110610b63575b818110610b4b575b818110610b33575b10610b25575b50038661233a565b845115610af35761079481612894565b936001600160a01b038416610ae25760009391905b6127106107bd61ffff865116606435612538565b04809260009660009180966000975b8c518910156109be5760005460405163d21cacdf60e01b81526001600160a01b0392831660048201529160209183916024918391165afa9081156109b257600091610970575b50809a8d518a101561095a5761271061083b8f602061ffff918e60051b01015116606435612538565b04916001600160a01b038116156108a457916108938161089993600195610867878060a01b0391612894565b16600052600360205260406000208c600052602052604060002061088c83825461252b565b905561252b565b9961252b565b985b019796996107cc565b50979890806108b7575b5060019061089b565b60608b01519199969091156108e457816108d66001936108dc9361252b565b9761252b565b985b906108ae565b95989060808b0151151580610948575b610902575b506001906108de565b8061093b61094192600194989c858060a01b038916600052600360205260406000208c600052602052604060002061088c83825461252b565b9a61252b565b94906108f9565b506001600160a01b03851615156108f4565b634e487b7160e01b600052603260045260246000fd5b90506020813d6020116109aa575b8161098b6020938361233a565b8101031261030457516001600160a01b0381168103610304578d610812565b3d915061097e565b6040513d6000823e3d90fd5b5093899196939250888b606435866064350311610acc5782610a98575b508460643503610a5b575b5060405195865260643560208701526040860152606085015260808401526064350360a083015260018060a01b03169160018060a01b0316907f727b900154d5ac7440f4446774aa170867b20fb76d02b947d1daea5e12103c0c60c060043592a4600160008051602061298283398151915255005b604060018060a01b039101511660005260036020526040600020866000526020526040600020610a908560643503825461252b565b9055876109e6565b60018060a01b031660005260036020526040600020876000526020526040600020610ac483825461252b565b9055886109db565b634e487b7160e01b600052601160045260246000fd5b610aeb84612894565b9391906107a9565b60405162461bcd60e51b815260206004820152600a6024820152691b9bc8189c1cc81cd95d60b21b6044820152606490fd5b60f01c81526020018861077c565b92602060019161ffff8560e01c168152019301610776565b92602060019161ffff8560d01c16815201930161076e565b92602060019161ffff8560c01c168152019301610766565b92602060019161ffff8560b01c16815201930161075e565b92602060019161ffff8560a01c168152019301610756565b92602060019161ffff8560901c16815201930161074e565b92602060019161ffff8560801c168152019301610746565b92602060019161ffff8560701c16815201930161073e565b92602060019161ffff8560601c168152019301610736565b92602060019161ffff8560501c16815201930161072e565b92602060019161ffff8560401c168152019301610726565b92602060019161ffff8560301c16815201930161071e565b92602060019161ffff85831c168152019301610716565b92602060019161ffff8560101c16815201930161070e565b92602060019161ffff85168152019301610706565b916010919350610200600191865461ffff8116825261ffff81861c16602083015261ffff8160201c16604083015261ffff8160301c16606083015261ffff8160401c16608083015261ffff8160501c1660a083015261ffff8160c0828260601c1681860152828260701c1660e0860152828260801c16610100860152828260901c16610120860152828260a01c16610140860152828260b01c166101608601521c1661018083015261ffff8160d01c166101a083015261ffff8160e01c166101c083015260f01c6101e08201520194019201889293916106ee565b60405162461bcd60e51b81526020600482015260136024820152721d1c985b9cd9995c919c9bdb4819985a5b1959606a1b6044820152606490fd5b610dcf915060203d602011610dd5575b610dc7818361233a565b8101906123f7565b846106ac565b503d610dbd565b60405162461bcd60e51b815260206004820152600e60248201526d195c98cc8c08191a5cd8589b195960921b6044820152606490fd5b9050151584610659565b3461030457602036600319011261030457610e35612308565b610e3d61257b565b6001600160a01b03168015610e8457600080546001600160a01b031916821781557f27fe5f0c1c3b1ed427cc63d0f05759ffdecf9aec9e18d31ef366fc8a6cb5dc3b9080a2005b60405162461bcd60e51b815260206004820152600560248201526407265673d360dc1b6044820152606490fd5b34610304576020366003190112610304576004356000908152600160208181526040928390208054920154835161ffff841681526001600160a01b0360109490941c8416928101929092529182169281019290925260ff60a082811c82161515606085015260a883901c82161515608085015260b09290921c1615159082015260c090f35b3461030457600036600319011261030457602060405160008152f35b346103045760e03660031901126103045760043560c036602319011261030457610f7a61257b565b6001600160a01b0380610f8b6124b2565b16156110da578160005260016020526001604060002061ffff610fac6124de565b16815490620100008460b01b03610fc16124c8565b60101b169169ffffffffffffffffffff60b01b16171781550190610fe36124b2565b8254911660ff60a01b610ff46124fe565b151560a01b1660ff60a81b61100761250d565b151560a81b169160ff60b01b61101b61251c565b151560b01b169368ffffffffffffffffff60b81b161717171790557fd817f73c163e06c88aa5983c55d0b7a4cbe62036cf79802e45f9609ab5db13b561105f6124de565b6110676124c8565b906110d56110736124b2565b61107b6124fe565b61108361250d565b9061108c61251c565b6040805161ffff90971687526001600160a01b03978816602088015296909316958501959095529315156060840152921515608083015291151560a082015290819060c0820190565b0390a2005b60405162461bcd60e51b815260206004820152600a602482015269074726561737572793d360b41b6044820152606490fd5b34610304576040366003190112610304576111256122dc565b60043560005260008051602061296283398151915260205260406000209060018060a01b0316600052602052602060ff604060002054166040519015158152f35b34610304576000366003190112610304576000546040516001600160a01b039091168152602090f35b346103045760003660031901126103045760206040517fa49807205ce4d355092ef5a8a18f56e8913cf4a201fbe287825b095693c217758152f35b346103045760203660031901126103045760206001600160a01b03806111ee612308565b166000526004825260406000205416604051908152f35b3461030457600036600319011261030457604051606081019080821067ffffffffffffffff8311176105a05761059c91604052603281527f496e63656e74697665456e67696e652076312028666c65782d6465707468202b6020820152712073656c6c657220696e206576656e74732960701b604082015260405191829182612378565b34610304576000366003190112610304577f00000000000000000000000000000000000000000000000000000000000000006001600160a01b031630036112f45760206040517f360894a13ba1a3210667c828492db98dca3e2076cc3735a920a3ca505d382bbc8152f35b60405163703e46dd60e11b8152600490fd5b60403660031901126103045761131a612308565b602490813567ffffffffffffffff81116103045736602382011215610304578060040135916113488361235c565b611355604051918261233a565b83815260209384820193368783830101116103045781600092888893018737830101526001600160a01b037f00000000000000000000000000000000000000000000000000000000000000008116308114908115611503575b506112f4576113bb61257b565b6040516352d1902d60e01b8152908316948082600481895afa9182916000936114d3575b50506113fd57604051634c9c8ce360e01b8152600481018690528690fd5b8490867f360894a13ba1a3210667c828492db98dca3e2076cc3735a920a3ca505d382bbc918281036114be5750843b156114a8575080546001600160a01b03191682179055604051907fbc7cd75a20ee27fd9adebab32041f755214dbc6bffa90cc0225b39da2e5c2d3b600080a281511561148e575060006104f89381925190845af4611488612448565b916128fe565b925050503461149957005b63b398979f60e01b8152600490fd5b604051634c9c8ce360e01b815260048101849052fd5b60405190632a87526960e21b82526004820152fd5b9080929350813d83116114fc575b6114eb818361233a565b8101031261030457519087806113df565b503d6114e1565b9050817f360894a13ba1a3210667c828492db98dca3e2076cc3735a920a3ca505d382bbc54161415876113ae565b346103045760403660031901126103045761154a612308565b6115526122dc565b7ff0c57e16840df040f15088dc2f81fe391c3923bec73e23a9662efc9c229c6a0090815460ff8160401c16159367ffffffffffffffff8216801590816116d9575b60011490816116cf575b1590816116c6575b506116b45767ffffffffffffffff19821660011784556116079185611695575b506115ce6128bd565b6115d66128bd565b6115de6128bd565b6001600080516020612982833981519152556115f86128bd565b61160181612628565b506126c8565b5060018060a01b031691826bffffffffffffffffffffffff60a01b6000541617600055604051927f27fe5f0c1c3b1ed427cc63d0f05759ffdecf9aec9e18d31ef366fc8a6cb5dc3b600080a261165957005b805468ff000000000000000019169055600181527fc7f505b2f371ae2175ee4913f4499e1f2633a7b5936321eed1cdaeb6115181d290602090a1005b68ffffffffffffffffff191668010000000000000001178455856115c5565b60405163f92ee8a960e01b8152600490fd5b905015866115a5565b303b15915061159d565b869150611593565b3461030457604036600319011261030457602435600435600052600260205260406000209081548110156103045760209160005261ffff826000208260041c015460f06040519360041b161c168152f35b346103045760403660031901126103045761174b6122dc565b336001600160a01b03821603611767576104f890600435612811565b60405163334bd91960e11b8152600490fd5b3461030457604036600319011261030457611792612308565b61179a6122dc565b906117a361254b565b6001600160a01b038281169283156118eb57336000526020916003835260406000209316928360005282526040600020549182916117e28315156123c1565b3360005260038252604060002085600052825260006040812055841560001461185e575061184160008080807fc0927886ed1bf317dc39d832624026fb839faa9539ce2853f384086ee413feaf968a5af161183b612448565b50612478565b6040519283523392a4600160008051602061298283398151915255005b60405163a9059cbb60e01b81526001600160a01b03919091166004820152602481019290925280826044816000885af19182156109b2577fc0927886ed1bf317dc39d832624026fb839faa9539ce2853f384086ee413feaf926118c9916000916118ce575b5061240f565b611841565b6118e59150833d8511610dd557610dc7818361233a565b876118c3565b606460405162461bcd60e51b81526020600482015260046024820152630746f3d360e41b6044820152fd5b34610304576020366003190112610304576001600160a01b03611937612308565b1680156119835733600081815260046020526040812080546001600160a01b031916841790557f86595dc4ed4838fd84eeed07a9f42ea9af43a730d94d90334e779b82264c0d7c9080a3005b60405162461bcd60e51b815260206004820152600860248201526707061796f75743d360c41b6044820152606490fd5b34610304576040366003190112610304576104f86004356119d26122dc565b90806000526000805160206129628339815191526020526119fa6001604060002001546125f5565b61278a565b34610304576020366003190112610304576004356000526000805160206129628339815191526020526020600160406000200154604051908152f35b346103045760208060031936011261030457611a55612308565b90611a5e61254b565b3360009081526003825260408082206001600160a01b0390941680835293835290205490611a8d8215156123c1565b33600052600381526040600020836000528152600060408120558215600014611b03577ff7a40077ff7a04c7e61f6f26fb13774259ddf1b6bce9ecf26a8276cdd399268390611ae6600080808087335af161183b612448565b6040519283523392a3600160008051602061298283398151915255005b60405163a9059cbb60e01b8152336004820152602481018390529080826044816000885af19182156109b2577ff7a40077ff7a04c7e61f6f26fb13774259ddf1b6bce9ecf26a8276cdd399268392611b6291600091611b67575061240f565b611ae6565b611b7e9150833d8511610dd557610dc7818361233a565b866118c3565b606036600319011261030457611b986122dc565b611ba06122f2565b611ba861254b565b600435600052600160205260406000209160405192611bc68461231e565b60ff6001825461ffff81168752818060a01b039060101c1692836020880152015460018060a01b0381166040870152818160a01c1615156060870152818160a81c161515608087015260b01c161515908160a086015281612280575b5015612249576004356000526002602052604060002092604051808560208297549384815201906000526020600020926000905b80600f83011061216e57611cec945491818110612159575b818110612141575b81811061212a575b818110612112575b8181106120fa575b8181106120e2575b8181106120ca575b8181106120b2575b81811061209a575b818110612082575b81811061206a575b818110612052575b81811061203a575b818110612022575b81811061200a575b10611ffc575b50038561233a565b835115610af357611cfc82612894565b926001600160a01b038116611fed576000925b612710611d2161ffff85511634612538565b04809460009260009080956000965b8b51881015611eeb5760005460405163d21cacdf60e01b81526001600160a01b0392831660048201529160209183916024918391165afa9081156109b257600091611ea9575b5080968c5189101561095a57612710611d9d61ffff8f6020908d60051b0101511634612538565b04916001600160a01b03811615611dff5791611dee81611df493600195611dc9878060a01b0391612894565b166000526003602052604060002060008052602052604060002061088c83825461252b565b9b61252b565b975b01969895611d30565b5099979080611e12575b50600190611df6565b60608a0151919896909115611e3957816108d6600193611e319361252b565b975b90611e09565b95979060808a0151151580611e97575b611e57575b50600190611e33565b80610893611e9092600194979b858060a01b038a166000526003602052604060002060008052602052604060002061088c83825461252b565b9390611e4e565b506001600160a01b0386161515611e49565b90506020813d602011611ee3575b81611ec46020938361233a565b8101031261030457516001600160a01b0381168103610304578c611d76565b3d9150611eb7565b5088859293878a8d3485340311610acc5786611fb9575b50833403611f7e575b506040519460008652346020870152604086015260608501526080840152340360a083015260018060a01b03169160018060a01b0316907f727b900154d5ac7440f4446774aa170867b20fb76d02b947d1daea5e12103c0c60c060043592a4600160008051602061298283398151915255005b604060018060a01b039101511660005260036020526040600020600080526020526040600020611fb1843403825461252b565b905586611f0b565b60018060a01b031660005260036020526040600020600080526020526040600020611fe587825461252b565b905587611f02565b611ff681612894565b92611d0f565b60f01c815260200187611ce4565b92602060019161ffff8560e01c168152019301611cde565b92602060019161ffff8560d01c168152019301611cd6565b92602060019161ffff8560c01c168152019301611cce565b92602060019161ffff8560b01c168152019301611cc6565b92602060019161ffff8560a01c168152019301611cbe565b92602060019161ffff8560901c168152019301611cb6565b92602060019161ffff8560801c168152019301611cae565b92602060019161ffff8560701c168152019301611ca6565b92602060019161ffff8560601c168152019301611c9e565b92602060019161ffff8560501c168152019301611c96565b92602060019161ffff8560401c168152019301611c8e565b92602060019161ffff8560301c168152019301611c86565b92602060019161ffff85831c168152019301611c7e565b92602060019161ffff8560101c168152019301611c76565b92602060019161ffff85168152019301611c6e565b916010919350610200600191865461ffff8116825261ffff81861c16602083015261ffff8160201c16604083015261ffff8160301c16606083015261ffff8160401c16608083015261ffff8160501c1660a083015261ffff8160c0828260601c1681860152828260701c1660e0860152828260801c16610100860152828260901c16610120860152828260a01c16610140860152828260b01c166101608601521c1661018083015261ffff8160d01c166101a083015261ffff8160e01c166101c083015260f01c6101e0820152019401920187929391611c56565b60405162461bcd60e51b815260206004820152600f60248201526e1b985d1a5d9948191a5cd8589b1959608a1b6044820152606490fd5b90501584611c22565b34610304576020366003190112610304576004359063ffffffff60e01b821680920361030457602091637965db0b60e01b81149081156122cb575b5015158152f35b6301ffc9a760e01b149050836122c4565b602435906001600160a01b038216820361030457565b604435906001600160a01b038216820361030457565b600435906001600160a01b038216820361030457565b60c0810190811067ffffffffffffffff8211176105a057604052565b90601f8019910116810190811067ffffffffffffffff8211176105a057604052565b67ffffffffffffffff81116105a057601f01601f191660200190565b6020808252825181830181905290939260005b8281106123ad57505060409293506000838284010152601f8019910116010190565b81810186015184820160400152850161238b565b156123c857565b60405162461bcd60e51b81526020600482015260076024820152666e6f7468696e6760c81b6044820152606490fd5b90816020910312610304575180151581036103045790565b1561241657565b60405162461bcd60e51b815260206004820152600a60248201526932b9319918103c3332b960b11b6044820152606490fd5b3d15612473573d906124598261235c565b91612467604051938461233a565b82523d6000602084013e565b606090565b1561247f57565b60405162461bcd60e51b815260206004820152600b60248201526a3730ba34bb32903c3332b960a91b6044820152606490fd5b6064356001600160a01b03811681036103045790565b6044356001600160a01b03811681036103045790565b60243561ffff811681036103045790565b3561ffff811681036103045790565b60843580151581036103045790565b60a43580151581036103045790565b60c43580151581036103045790565b91908201809211610acc57565b81810292918115918404141715610acc57565b60008051602061298283398151915260028154146125695760029055565b604051633ee5aeb560e01b8152600490fd5b3360009081527fb16e88c42fd4e48df2dd6a2eabd6bc9aec654ec170056b470819f8892cc6431c60205260409020547fa49807205ce4d355092ef5a8a18f56e8913cf4a201fbe287825b095693c217759060ff16156125d75750565b6044906040519063e2517d3f60e01b82523360048301526024820152fd5b8060005260008051602061296283398151915260205260406000203360005260205260ff60406000205416156125d75750565b6001600160a01b031660008181527fb7db2dd08fcb62d0c9e08c51941cae53c267786a0b75803fb7960902fc8ef97d60205260408120549091906000805160206129628339815191529060ff166126c3578280526020526040822081835260205260408220600160ff1982541617905533917f2f8788117e7eff1d82e926ec794901d17c78024a50270940304540a733656f0d8180a4600190565b505090565b6001600160a01b031660008181527fb16e88c42fd4e48df2dd6a2eabd6bc9aec654ec170056b470819f8892cc6431c60205260408120549091907fa49807205ce4d355092ef5a8a18f56e8913cf4a201fbe287825b095693c21775906000805160206129628339815191529060ff16612784578184526020526040832082845260205260408320600160ff198254161790557f2f8788117e7eff1d82e926ec794901d17c78024a50270940304540a733656f0d339380a4600190565b50505090565b9060009180835260008051602061296283398151915280602052604084209260018060a01b03169283855260205260ff60408520541615600014612784578184526020526040832082845260205260408320600160ff198254161790557f2f8788117e7eff1d82e926ec794901d17c78024a50270940304540a733656f0d339380a4600190565b9060009180835260008051602061296283398151915280602052604084209260018060a01b03169283855260205260ff60408520541660001461278457818452602052604083208284526020526040832060ff1981541690557ff6391f5c32d9c69d2a47ea670b442974b53935d1edc7fd64eb21e047a839171b339380a4600190565b6001600160a01b0381811660009081526004602052604090205416806128b8575090565b905090565b60ff7ff0c57e16840df040f15088dc2f81fe391c3923bec73e23a9662efc9c229c6a005460401c16156128ec57565b604051631afcd79f60e31b8152600490fd5b90612925575080511561291357805190602001fd5b60405163d6bda27560e01b8152600490fd5b81511580612958575b612936575090565b604051639996b31560e01b81526001600160a01b039091166004820152602490fd5b50803b1561292e56fe02dd7bc7dec4dceedda775e58dd541e08a116c6c53815c0bd028192f7b6268009b779b17422d0df92223018b32b4d1fa46e071723d6817e2486d003becc55f00a264697066735822122093093e176034f24ed683ba299fee41e58382fb0320c7ce8b1b55a0795adacb0564736f6c63430008160033",
  "linkReferences": {},
  "deployedLinkReferences": {}
}