{
  "_format": "hh-sol-artifact-1",
  "contractName": "NFTBatchSender",
  "sourceName": "contracts/NFTBatchSender.sol",
  "abi": [
    {
      "inputs": [
        {
          "internalType": "uint256",
          "name": "maxBatch_",
          "type": "uint256"
        },
        {
          "internalType": "address",
          "name": "initialOwner",
          "type": "address"
        }
      ],
      "stateMutability": "nonpayable",
      "type": "constructor"
    },
    {
      "inputs": [
        {
          "internalType": "uint256",
          "name": "given",
          "type": "uint256"
        },
        {
          "internalType": "uint256",
          "name": "max",
          "type": "uint256"
        }
      ],
      "name": "BatchTooLarge",
      "type": "error"
    },
    {
      "inputs": [],
      "name": "EnforcedPause",
      "type": "error"
    },
    {
      "inputs": [],
      "name": "ExpectedPause",
      "type": "error"
    },
    {
      "inputs": [],
      "name": "LengthMismatch",
      "type": "error"
    },
    {
      "inputs": [],
      "name": "NotApprovedForAll",
      "type": "error"
    },
    {
      "inputs": [],
      "name": "NotERC721",
      "type": "error"
    },
    {
      "inputs": [],
      "name": "NotOwner",
      "type": "error"
    },
    {
      "inputs": [
        {
          "internalType": "address",
          "name": "owner",
          "type": "address"
        }
      ],
      "name": "OwnableInvalidOwner",
      "type": "error"
    },
    {
      "inputs": [
        {
          "internalType": "address",
          "name": "account",
          "type": "address"
        }
      ],
      "name": "OwnableUnauthorizedAccount",
      "type": "error"
    },
    {
      "inputs": [],
      "name": "ReentrancyGuardReentrantCall",
      "type": "error"
    },
    {
      "inputs": [],
      "name": "ZeroAddress",
      "type": "error"
    },
    {
      "anonymous": false,
      "inputs": [
        {
          "indexed": true,
          "internalType": "address",
          "name": "sender",
          "type": "address"
        },
        {
          "indexed": true,
          "internalType": "address",
          "name": "collection",
          "type": "address"
        },
        {
          "indexed": false,
          "internalType": "address[]",
          "name": "recipients",
          "type": "address[]"
        },
        {
          "indexed": false,
          "internalType": "uint256[]",
          "name": "tokenIds",
          "type": "uint256[]"
        }
      ],
      "name": "BatchSend1to1",
      "type": "event"
    },
    {
      "anonymous": false,
      "inputs": [
        {
          "indexed": true,
          "internalType": "address",
          "name": "sender",
          "type": "address"
        },
        {
          "indexed": false,
          "internalType": "address[]",
          "name": "collections",
          "type": "address[]"
        },
        {
          "indexed": false,
          "internalType": "address[]",
          "name": "recipients",
          "type": "address[]"
        },
        {
          "indexed": false,
          "internalType": "uint256[]",
          "name": "tokenIds",
          "type": "uint256[]"
        }
      ],
      "name": "BatchSendMixed",
      "type": "event"
    },
    {
      "anonymous": false,
      "inputs": [
        {
          "indexed": true,
          "internalType": "address",
          "name": "sender",
          "type": "address"
        },
        {
          "indexed": true,
          "internalType": "address",
          "name": "collection",
          "type": "address"
        },
        {
          "indexed": true,
          "internalType": "address",
          "name": "to",
          "type": "address"
        },
        {
          "indexed": false,
          "internalType": "uint256[]",
          "name": "tokenIds",
          "type": "uint256[]"
        }
      ],
      "name": "BatchSendToOne",
      "type": "event"
    },
    {
      "anonymous": false,
      "inputs": [
        {
          "indexed": true,
          "internalType": "address",
          "name": "sender",
          "type": "address"
        },
        {
          "indexed": true,
          "internalType": "address",
          "name": "collection",
          "type": "address"
        },
        {
          "indexed": true,
          "internalType": "address",
          "name": "to",
          "type": "address"
        },
        {
          "indexed": false,
          "internalType": "uint256",
          "name": "count",
          "type": "uint256"
        }
      ],
      "name": "BatchSummary",
      "type": "event"
    },
    {
      "anonymous": false,
      "inputs": [
        {
          "indexed": true,
          "internalType": "address",
          "name": "sender",
          "type": "address"
        },
        {
          "indexed": false,
          "internalType": "uint256",
          "name": "uniqueCollections",
          "type": "uint256"
        },
        {
          "indexed": false,
          "internalType": "uint256",
          "name": "count",
          "type": "uint256"
        }
      ],
      "name": "BatchSummaryMixed",
      "type": "event"
    },
    {
      "anonymous": false,
      "inputs": [
        {
          "indexed": true,
          "internalType": "address",
          "name": "previousOwner",
          "type": "address"
        },
        {
          "indexed": true,
          "internalType": "address",
          "name": "newOwner",
          "type": "address"
        }
      ],
      "name": "OwnershipTransferStarted",
      "type": "event"
    },
    {
      "anonymous": false,
      "inputs": [
        {
          "indexed": true,
          "internalType": "address",
          "name": "previousOwner",
          "type": "address"
        },
        {
          "indexed": true,
          "internalType": "address",
          "name": "newOwner",
          "type": "address"
        }
      ],
      "name": "OwnershipTransferred",
      "type": "event"
    },
    {
      "anonymous": false,
      "inputs": [
        {
          "indexed": false,
          "internalType": "address",
          "name": "account",
          "type": "address"
        }
      ],
      "name": "Paused",
      "type": "event"
    },
    {
      "anonymous": false,
      "inputs": [
        {
          "indexed": false,
          "internalType": "address",
          "name": "account",
          "type": "address"
        }
      ],
      "name": "Unpaused",
      "type": "event"
    },
    {
      "stateMutability": "payable",
      "type": "fallback"
    },
    {
      "inputs": [],
      "name": "MAX_BATCH",
      "outputs": [
        {
          "internalType": "uint256",
          "name": "",
          "type": "uint256"
        }
      ],
      "stateMutability": "view",
      "type": "function"
    },
    {
      "inputs": [],
      "name": "acceptOwnership",
      "outputs": [],
      "stateMutability": "nonpayable",
      "type": "function"
    },
    {
      "inputs": [
        {
          "internalType": "address[]",
          "name": "collections",
          "type": "address[]"
        },
        {
          "internalType": "address[]",
          "name": "recipients",
          "type": "address[]"
        },
        {
          "internalType": "uint256[]",
          "name": "tokenIds",
          "type": "uint256[]"
        }
      ],
      "name": "batchSendMixed",
      "outputs": [],
      "stateMutability": "nonpayable",
      "type": "function"
    },
    {
      "inputs": [
        {
          "internalType": "address",
          "name": "collection",
          "type": "address"
        },
        {
          "internalType": "address[]",
          "name": "recipients",
          "type": "address[]"
        },
        {
          "internalType": "uint256[]",
          "name": "tokenIds",
          "type": "uint256[]"
        }
      ],
      "name": "batchSendSameCollection",
      "outputs": [],
      "stateMutability": "nonpayable",
      "type": "function"
    },
    {
      "inputs": [
        {
          "internalType": "address",
          "name": "collection",
          "type": "address"
        },
        {
          "internalType": "address",
          "name": "to",
          "type": "address"
        },
        {
          "internalType": "uint256[]",
          "name": "tokenIds",
          "type": "uint256[]"
        }
      ],
      "name": "batchSendToOne",
      "outputs": [],
      "stateMutability": "nonpayable",
      "type": "function"
    },
    {
      "inputs": [],
      "name": "owner",
      "outputs": [
        {
          "internalType": "address",
          "name": "",
          "type": "address"
        }
      ],
      "stateMutability": "view",
      "type": "function"
    },
    {
      "inputs": [],
      "name": "pause",
      "outputs": [],
      "stateMutability": "nonpayable",
      "type": "function"
    },
    {
      "inputs": [],
      "name": "paused",
      "outputs": [
        {
          "internalType": "bool",
          "name": "",
          "type": "bool"
        }
      ],
      "stateMutability": "view",
      "type": "function"
    },
    {
      "inputs": [],
      "name": "pendingOwner",
      "outputs": [
        {
          "internalType": "address",
          "name": "",
          "type": "address"
        }
      ],
      "stateMutability": "view",
      "type": "function"
    },
    {
      "inputs": [],
      "name": "renounceOwnership",
      "outputs": [],
      "stateMutability": "nonpayable",
      "type": "function"
    },
    {
      "inputs": [],
      "name": "sweepETH",
      "outputs": [],
      "stateMutability": "nonpayable",
      "type": "function"
    },
    {
      "inputs": [
        {
          "internalType": "address",
          "name": "newOwner",
          "type": "address"
        }
      ],
      "name": "transferOwnership",
      "outputs": [],
      "stateMutability": "nonpayable",
      "type": "function"
    },
    {
      "inputs": [],
      "name": "unpause",
      "outputs": [],
      "stateMutability": "nonpayable",
      "type": "function"
    },
    {
      "stateMutability": "payable",
      "type": "receive"
    }
  ],
  "bytecode": "0x60a06040523480156200001157600080fd5b50604051620017883803806200178883398101604081905262000034916200012a565b806001600160a01b0381166200006557604051631e4fbdf760e01b8152600060048201526024015b60405180910390fd5b6200007081620000bc565b50600160025581620000b25760405162461bcd60e51b815260206004820152600a60248201526906d617842617463683d360b41b60448201526064016200005c565b5060805262000169565b600180546001600160a01b0319169055620000d781620000da565b50565b600080546001600160a01b038381166001600160a01b0319831681178455604051919092169283917f8be0079c531659141344cd1fd0a4f28419497f9722a3daafe3b4186f6b6457e09190a35050565b600080604083850312156200013e57600080fd5b825160208401519092506001600160a01b03811681146200015e57600080fd5b809150509250929050565b6080516115d9620001af6000396000818161021b0152818161033b01528181610377015281816107360152818161077201528181610ad90152610b1501526115d96000f3fe6080604052600436106100c65760003560e01c80638da5cb5b1161007f578063cf90923011610059578063cf9092301461026b578063d47f68771461028b578063e30c3978146102a0578063f2fde38b146102be57610101565b80638da5cb5b146101d7578063950bff9f14610209578063b20a30111461024b57610101565b8063125aee77146101325780633f4ba83a146101545780635c975abb14610169578063715018a61461019857806379ba5097146101ad5780638456cb59146101c257610101565b366101015760405162461bcd60e51b815260206004820152600660248201526509cde408aa8960d31b60448201526064015b60405180910390fd5b60405162461bcd60e51b815260206004820152600660248201526509cde408aa8960d31b60448201526064016100f8565b34801561013e57600080fd5b5061015261014d36600461126f565b6102de565b005b34801561016057600080fd5b50610152610652565b34801561017557600080fd5b50600154600160a01b900460ff1660405190151581526020015b60405180910390f35b3480156101a457600080fd5b50610152610664565b3480156101b957600080fd5b50610152610676565b3480156101ce57600080fd5b506101526106ba565b3480156101e357600080fd5b506000546001600160a01b03165b6040516001600160a01b03909116815260200161018f565b34801561021557600080fd5b5061023d7f000000000000000000000000000000000000000000000000000000000000000081565b60405190815260200161018f565b34801561025757600080fd5b506101526102663660046112d4565b6106ca565b34801561027757600080fd5b50610152610286366004611357565b610a87565b34801561029757600080fd5b50610152610eb6565b3480156102ac57600080fd5b506001546001600160a01b03166101f1565b3480156102ca57600080fd5b506101526102d93660046113f1565b610f50565b6102e6610fc1565b6102ee610fec565b6001600160a01b038416158061030b57506001600160a01b038316155b156103295760405163d92e233d60e01b815260040160405180910390fd5b8060008190036103395750610642565b7f00000000000000000000000000000000000000000000000000000000000000008111156103a35760405163bb1cb70b60e01b8152600481018290527f000000000000000000000000000000000000000000000000000000000000000060248201526044016100f8565b6103ac85611014565b60405163e985e9c560e01b815233600482015230602482015285906001600160a01b0382169063e985e9c590604401602060405180830381865afa1580156103f8573d6000803e3d6000fd5b505050506040513d601f19601f8201168201806040525081019061041c9190611415565b6104395760405163cd7769ff60e01b815260040160405180910390fd5b60005b8281101561059057336001600160a01b038316636352211e87878581811061046657610466611437565b905060200201356040518263ffffffff1660e01b815260040161048b91815260200190565b602060405180830381865afa1580156104a8573d6000803e3d6000fd5b505050506040513d601f19601f820116820180604052508101906104cc919061144d565b6001600160a01b0316146104f3576040516330cd747160e01b815260040160405180910390fd5b816001600160a01b03166342842e0e338888888681811061051657610516611437565b6040516001600160e01b031960e088901b1681526001600160a01b03958616600482015294909316602485015250602090910201356044820152606401600060405180830381600087803b15801561056d57600080fd5b505af1158015610581573d6000803e3d6000fd5b5050505080600101905061043c565b50846001600160a01b0316866001600160a01b0316336001600160a01b03167f7e198157768195b5aa557c144f5835fd684fbfcb3c6edc8a6808d07311da4a3687876040516105e092919061149c565b60405180910390a4846001600160a01b0316866001600160a01b0316336001600160a01b03167fc56239fa89bb0143929488a3c0e91699ef18ec5118d0ec9a06cfdea69ad13bf38560405161063791815260200190565b60405180910390a450505b61064c6001600255565b50505050565b61065a61103a565b610662611067565b565b61066c61103a565b61066260006110bc565b60015433906001600160a01b031681146106ae5760405163118cdaa760e01b81526001600160a01b03821660048201526024016100f8565b6106b7816110bc565b50565b6106c261103a565b6106626110d5565b6106d2610fc1565b6106da610fec565b6001600160a01b0385166107015760405163d92e233d60e01b815260040160405180910390fd5b8060008190036107115750610a76565b808414610734576040516001621398b960e31b0319815260040160405180910390fd5b7f000000000000000000000000000000000000000000000000000000000000000081111561079e5760405163bb1cb70b60e01b8152600481018290527f000000000000000000000000000000000000000000000000000000000000000060248201526044016100f8565b6107a786611014565b60405163e985e9c560e01b815233600482015230602482015286906001600160a01b0382169063e985e9c590604401602060405180830381865afa1580156107f3573d6000803e3d6000fd5b505050506040513d601f19601f820116820180604052508101906108179190611415565b6108345760405163cd7769ff60e01b815260040160405180910390fd5b60005b828110156109de57600087878381811061085357610853611437565b905060200201602081019061086891906113f1565b90506001600160a01b0381166108915760405163d92e233d60e01b815260040160405180910390fd5b336001600160a01b038416636352211e8888868181106108b3576108b3611437565b905060200201356040518263ffffffff1660e01b81526004016108d891815260200190565b602060405180830381865afa1580156108f5573d6000803e3d6000fd5b505050506040513d601f19601f82011682018060405250810190610919919061144d565b6001600160a01b031614610940576040516330cd747160e01b815260040160405180910390fd5b826001600160a01b03166342842e0e338389898781811061096357610963611437565b6040516001600160e01b031960e088901b1681526001600160a01b03958616600482015294909316602485015250602090910201356044820152606401600060405180830381600087803b1580156109ba57600080fd5b505af11580156109ce573d6000803e3d6000fd5b5050505081600101915050610837565b50866001600160a01b0316336001600160a01b03167fc0a0bf62abc64cf560b5eeb5dde70c9e85214f8580fbc022cdb48e01726ec35588888888604051610a289493929190611501565b60405180910390a36040518281526000906001600160a01b0389169033907fc56239fa89bb0143929488a3c0e91699ef18ec5118d0ec9a06cfdea69ad13bf39060200160405180910390a450505b610a806001600255565b5050505050565b610a8f610fc1565b610a97610fec565b806000819003610aa75750610ea4565b8581141580610ab65750838114155b15610ad7576040516001621398b960e31b0319815260040160405180910390fd5b7f0000000000000000000000000000000000000000000000000000000000000000811115610b415760405163bb1cb70b60e01b8152600481018290527f000000000000000000000000000000000000000000000000000000000000000060248201526044016100f8565b6000806000806000805b86811015610e165760008d8d83818110610b6757610b67611437565b9050602002016020810190610b7c91906113f1565b905060008c8c84818110610b9257610b92611437565b9050602002016020810190610ba791906113f1565b90506001600160a01b0382161580610bc657506001600160a01b038116155b15610be45760405163d92e233d60e01b815260040160405180910390fd5b876001600160a01b0316826001600160a01b031614610cc85781975083610c0a90611533565b9350610c1582611118565b955085610c3557604051635444e56f60e01b815260040160405180910390fd5b60405163e985e9c560e01b815233600482015230602482015291945084916001600160a01b0383169063e985e9c590604401602060405180830381865afa158015610c84573d6000803e3d6000fd5b505050506040513d601f19601f82011682018060405250810190610ca89190611415565b965086610cc85760405163cd7769ff60e01b815260040160405180910390fd5b336001600160a01b038616636352211e8d8d87818110610cea57610cea611437565b905060200201356040518263ffffffff1660e01b8152600401610d0f91815260200190565b602060405180830381865afa158015610d2c573d6000803e3d6000fd5b505050506040513d601f19601f82011682018060405250810190610d50919061144d565b6001600160a01b031614610d77576040516330cd747160e01b815260040160405180910390fd5b846001600160a01b03166342842e0e33838e8e88818110610d9a57610d9a611437565b6040516001600160e01b031960e088901b1681526001600160a01b03958616600482015294909316602485015250602090910201356044820152606401600060405180830381600087803b158015610df157600080fd5b505af1158015610e05573d6000803e3d6000fd5b505050508260010192505050610b4b565b50336001600160a01b03167fbd13cee2a1eead6c843daf0539ac81b574d34b0a139f7d31b045cf31d9828e568d8d8d8d8d8d604051610e5a9695949392919061155a565b60405180910390a2604080518281526020810188905233917fc96cfd167b8084589e9266b54baedcd7e6357c0f080488c79d7bc5b77ac9be7e910160405180910390a25050505050505b610eae6001600255565b505050505050565b610ebe61103a565b600080546040516001600160a01b039091169047908381818185875af1925050503d8060008114610f0b576040519150601f19603f3d011682016040523d82523d6000602084013e610f10565b606091505b50509050806106b75760405162461bcd60e51b815260206004820152600c60248201526b14d5d1515417d1905253115160a21b60448201526064016100f8565b610f5861103a565b600180546001600160a01b0383166001600160a01b03199091168117909155610f896000546001600160a01b031690565b6001600160a01b03167f38d16b8cac22d99fc7c124b9cd0de2d3fa1faef420bfe791d8c362d765e2270060405160405180910390a350565b600154600160a01b900460ff16156106625760405163d93c066560e01b815260040160405180910390fd5b600280540361100e57604051633ee5aeb560e01b815260040160405180910390fd5b60028055565b61101d81611118565b6106b757604051635444e56f60e01b815260040160405180910390fd5b6000546001600160a01b031633146106625760405163118cdaa760e01b81523360048201526024016100f8565b61106f611194565b6001805460ff60a01b191690557f5db9ee0a495bf2e6ff9c91a7834c1ba4fdd244a5e8aa4e537bd38aeae4b073aa335b6040516001600160a01b03909116815260200160405180910390a1565b600180546001600160a01b03191690556106b7816111be565b6110dd610fc1565b6001805460ff60a01b1916600160a01b1790557f62e78cea01bee320cd4e420270b5ea74000d11b0c9f74754ebdbfc544b05a25861109f3390565b6040516301ffc9a760e01b81526380ac58cd60e01b60048201526000906001600160a01b038316906301ffc9a790602401602060405180830381865afa925050508015611182575060408051601f3d908101601f1916820190925261117f91810190611415565b60015b61118e57506000919050565b92915050565b600154600160a01b900460ff1661066257604051638dfc202b60e01b815260040160405180910390fd5b600080546001600160a01b038381166001600160a01b0319831681178455604051919092169283917f8be0079c531659141344cd1fd0a4f28419497f9722a3daafe3b4186f6b6457e09190a35050565b6001600160a01b03811681146106b757600080fd5b60008083601f84011261123557600080fd5b50813567ffffffffffffffff81111561124d57600080fd5b6020830191508360208260051b850101111561126857600080fd5b9250929050565b6000806000806060858703121561128557600080fd5b84356112908161120e565b935060208501356112a08161120e565b9250604085013567ffffffffffffffff8111156112bc57600080fd5b6112c887828801611223565b95989497509550505050565b6000806000806000606086880312156112ec57600080fd5b85356112f78161120e565b9450602086013567ffffffffffffffff8082111561131457600080fd5b61132089838a01611223565b9096509450604088013591508082111561133957600080fd5b5061134688828901611223565b969995985093965092949392505050565b6000806000806000806060878903121561137057600080fd5b863567ffffffffffffffff8082111561138857600080fd5b6113948a838b01611223565b909850965060208901359150808211156113ad57600080fd5b6113b98a838b01611223565b909650945060408901359150808211156113d257600080fd5b506113df89828a01611223565b979a9699509497509295939492505050565b60006020828403121561140357600080fd5b813561140e8161120e565b9392505050565b60006020828403121561142757600080fd5b8151801515811461140e57600080fd5b634e487b7160e01b600052603260045260246000fd5b60006020828403121561145f57600080fd5b815161140e8161120e565b81835260006001600160fb1b0383111561148357600080fd5b8260051b80836020870137939093016020019392505050565b6020815260006114b060208301848661146a565b949350505050565b8183526000602080850194508260005b858110156114f65781356114db8161120e565b6001600160a01b0316875295820195908201906001016114c8565b509495945050505050565b6040815260006115156040830186886114b8565b828103602084015261152881858761146a565b979650505050505050565b60006001820161155357634e487b7160e01b600052601160045260246000fd5b5060010190565b60608152600061156e60608301888a6114b8565b82810360208401526115818187896114b8565b9050828103604084015261159681858761146a565b999850505050505050505056fea2646970667358221220ccd28e7fbfbee6ac4b99c546643591efc0ee3a7b76344503e42c41c12455d6eb64736f6c63430008160033",
  "linkReferences": {},
  "deployedLinkReferences": {}
}